:020000040800F2
:100000005020012081020008DF3200088F2B0008F9
:10001000DD3200084D050008154200080000000010
:10002000000000000000000000000000C101000806
:100030003D060008000000001D020008CD3E00083B
:100040009B0200089B0200089B0200089B0200081C
:100050009B0200089B0200089B0200089B0200080C
:100060009B0200089B0200089B0200089B020008FC
:100070009B0200089B0200089B0200089B020008EC
:100080009B0200089B0200089B0200089B020008DC
:100090009B0200089B0200089B0200089B020008CC
:1000A0009B0200089B0200089B0200089B020008BC
:1000B0009B0200089B0200089B0200089B020008AC
:1000C0009B0200089B0200089B0200089B0200089C
:1000D0009B0200089B0200089B0200089B0200088C
:1000E0009B0200089B0200089B0200089B0200087C
:1000F0009B0200089B0200089B0200089B0200086C
:100100009B020008153300089B0200089B020008B0
:100110009B0200089B0200089D3F00089B0200080C
:100120009B0200089B0200089B0200088105000852
:100130009B0200089B0200089B0200089B0200082B
:100140009B0200089B0200089B0200089B0200081B
:100150009B0200088D0500089B0200089B02000816
:100160009B0200089B0200089B0200089B020008FB
:100170009B0200089B0200089B0200080000000090
:100180009B0200089B0200089B0200089B020008DB
:100190009B0200089B0200089B0200089B020008CB
:1001A0009B0200089B02000875050008DFF80CD0D0
:1001B00000F024F900480047079E02085020012063
:1001C0002C4B19680868B0E8F04F80F30988BFF33A
:1001D0006F8F4FF0000080F311887047000000001F
:1001E00008480068006880F308884FF0000080F33A
:1001F000148862B661B6BFF34F8FBFF36F8F00DF15
:1002000000BF00BF08ED00E0DFF80C00016841F41A
:1002100070010160704700BF88ED00E0EFF30980D6
:10022000BFF36F8F134B1A681EF0100F08BF20ED3D
:10023000108A20E9F04F106009B44FF0500080F3AD
:100240001188BFF34F8FBFF36F8F2FF0D9FB4FF0A3
:10025000000080F3118809BC19680868B0E8F04F05
:100260001EF0100F08BFB0EC108A80F30988BFF3AE
:100270006F8F704744000020EFF305807047000047
:100280000648804706480047FEE7FEE7FEE7FEE730
:10029000FEE7FEE7FEE7FEE7FEE7FEE7813F000838
:1002A000AD0100082DE9F05F0546002092469B460F
:1002B00088460646814640241BE02846414647467C
:1002C000224600F08AF853465A46C01A914110D38C
:1002D00011461846224600F071F82D1A67EB010806
:1002E0004F4622460120002100F068F817EB000974
:1002F0004E41201EA4F10104DFDC484631462A4667
:100300004346BDE8F09F40EA01039B0703D009E0A4
:1003100008C9121F08C0042AFAD203E011F8013BF1
:1003200000F8013B521EF9D27047D2B201E000F84A
:10033000012B491EFBD270470022F6E710B5134689
:100340000A4604461946FFF7F0FF204610BD10B5D7
:10035000044604E00B7800F8013B03B1491C521E2F
:10036000F8D2204610BD421C10F8011B0029FBD119
:10037000801A704710B5002200E0521C835C8C5C30
:10038000A34201D1002BF8D1D8B2E1B2401A10BD7E
:1003900030B504460020034600E05B1C934203D2C4
:1003A000E05CCD5C401BF8D030BD034611F8012B5A
:1003B00000F8012B002AF9D118467047202A04DBE7
:1003C000203A00FA02F1002070479140C2F1200368
:1003D00020FA03F3194390407047202A04DB203AA7
:1003E00021FA02F00021704721FA02F3D040C2F155
:1003F000200291400843194670470000064C074D03
:1004000006E0E06840F0010394E8070098471034E4
:10041000AC42F6D3FFF7CEFEDC4F0308FC4F0308D7
:1004200070B58C1810F8015B15F0070301D110F8B6
:10043000013B2A1106D110F8012B03E010F8016BE3
:1004400001F8016B5B1EF9D12B0705D40023521E66
:100450000DD401F8013BFAE710F8013BCB1A921CCE
:1004600003E013F8015B01F8015B521EF9D5A142CC
:10047000D8D3002070BD70470146014801F05EBD31
:100480002C25002010B5044801F06AFD042801D095
:10049000012010BD002010BD2C25002010B500F05B
:1004A00015F8012801D0012010BD074801F072FEA7
:1004B000040006D14FF40061034801F0F7FB00B1DE
:1004C0000124204610BD00002C25002008B5012085
:1004D0008DF800009DF8000008BD0000134610B51F
:1004E0000A4601460024034801F03CFF00B1012404
:1004F000204610BD2C25002008B50120ADF80000D5
:10050000034800231A46694640682AF0CDFA08BD20
:1005100000000020134610B50A4601460024034897
:1005200001F0C0FF00B10124204610BD2C250020A1
:1005300008B50220ADF80000034800231A466946BA
:1005400040682AF0B1FA08BD00000020FEE7000074
:100550000748B0F90000401C07D005480A30B0F940
:100560000000401C01D001207047002070470000AF
:10057000CA000020014800F02BBC000080030020CE
:10058000014800F015BD0000B0250020014800F032
:100590000FBD00001026002001681823CAB2103ACF
:1005A000B2FBF3F2054B6FF30901032A9B5CC365B1
:1005B00000D9091D8165084670470000281003080E
:1005C00010B5014600208B698A6A4FF0C07453B1A0
:1005D000B3F5005F15D072B1012A0CD0022A0AD0FF
:1005E000032A09D104E01AB1012A06D0022A03D154
:1005F000C96AC90100D5012010BDC96AA142FAD05B
:1006000010BD002AF7D0012AF2D0022AF3D0032A23
:10061000F3D010BD30B50468256825F48025256029
:10062000046863608368402B036803D099600068A6
:10063000C26030BD9A600068C16030BD70477047CD
:10064000002200F001B8000030B50E4B0546012035
:100650005C7A002C14D1587A1C54587A03EB800031
:1006600045605D7A03F108002A54587A421C5A7298
:10067000303008703A2048702F208870CC700020ED
:1006800030BD00004418012070B5B3F5804F05D08F
:100690006FF0704140F82210002070BD50F82240E9
:1006A000084B8E891C40D1E9003543EA05138D685B
:1006B00089692D0245EA06452B430B43234340F845
:1006C0002230E9E70000F0CFF0B50C6850F8243094
:1006D000174A1340D1E90125D1E903672A433E4374
:1006E00032434E6932438E693243CE6932430E6AD9
:1006F00032434E6A32438E6A3243CE6A3243CE6B05
:1007000032430E6B32434E6B32431A43082D01D1F4
:1007100042F0400240F824204A6BB2F5801F05D118
:10072000096819B1016841F4801101600020F0BD31
:100730008000E0FFF0B500EB8204626802F0404503
:10074000D1E9002342EA03128B688E891B0243EA37
:1007500006431A430E8A0D4B03EB065632430E7DB9
:100760005F0107EB066632438E6932432A436260BB
:100770000268D20207D54268098A22F4700203EBAC
:100780000151114341600020F0BD00000000F0FF66
:10079000FEB5002000900190802602908DF8006048
:1007A00051208DF801000A226946BA2000F048F86D
:1007B000002819DB9DF802009DF803108DF80060F9
:1007C00000EB012085B29DF804009DF8051003227E
:1007D00000EB012084B256208DF801006946BA2052
:1007E00000F02EF8002801DA0020FEBD9DF802007E
:1007F000224600F00303294602A003F00DFD01206C
:10080000FEBD00003C3C2D4754502D494E464F2D17
:100810003E3E20585F4D4158203D2025642C2059F4
:100820005F4D4158203D2025642C205452494747B4
:100830004552203D203078253032780D0A000000E6
:10084000F0B587B00D460221ADF804100024012157
:10085000ADF80240ADF80E108DF800008DF80C00D8
:10086000901EADF81000A81C1646029505900221B6
:10087000684602F0D3F90746022803D0641C052C11
:10088000F5DB01E0052C06DB28883B4641BAB21EA9
:10089000024803F0C1FC07B03846F0BD5C4B0308CA
:1008A00038B50C4800256C1E006800900BE0032250
:1008B0006946BA20FFF7C4FF44B2002C08DC294681
:1008C00005A003F0A9FC28466D1CEDB20528EED367
:1008D000204638BD481003083C3C2D4754502D4558
:1008E00052524F522D3E3E204754502069326320D1
:1008F00074657374206661696C65642074696D65E4
:100900002025642E0D0A0000FEB50024ADF802403B
:1009100016460F468DF80000ADF804200291012123
:10092000684602F07BF90546012803D0641C052CBB
:10093000F5DB01E0052C06DB38882B4641BAB21EF8
:10094000024803F069FC2846FEBD0000B04B0308D6
:1009500010B502F043F9FFF7A3FF040004D505A08A
:1009600003F05AFC204610BD00F01AF8FFF710FF04
:10097000002010BD3C3C2D4754502D4552524F5243
:100980002D3E3E2049324320636F6D6D756E696365
:100990006174696F6E204552524F52210D0A00005A
:1009A00030B53C4985B00822D1E90301CDE9030106
:1009B00003A9BA20FFF744FF040003D536A003F0D3
:1009C0002BFC63E09DF80E103E4D352916D09DF8A6
:1009D00011009DF81220002831D09DF813300292AA
:1009E000CDE900039DF810309DF80F2036A003F0EC
:1009F00013FC9DF80E0039283AD047E09DF811000D
:100A00009DF812309DF813208DE80D009DF81030F0
:100A10009DF80F2038A003F0FFFB9DF80E0035284D
:100A200034D19DF80F00362830D19DF810003828B9
:100A30002CD19DF81100382828D1022025E09DF8FE
:100A40001300CDE900029DF810309DF80F2036A06C
:100A500003F0E2FB9DF80E00392817D19DF80F0036
:100A6000312813D19DF8100031280FD101200CE05E
:100A70009DF80F00312809D19DF81000352805D1C7
:100A80009DF81100372801D10020287005B02046BC
:100A900030BD0000481003083C3C2D4754502D4504
:100AA00052524F522D3E3E20475450207265616491
:100AB0002076657273696F6E206661696C65640D7E
:100AC0000A000000C00000203C3C2D4754502D4936
:100AD0004E464F2D3E3E2049433320566572736982
:100AE0006F6E3A2025632563256325635F253032C9
:100AF00078253032780D0A003C3C2D4754502D4962
:100B00004E464F2D3E3E2049433120566572736953
:100B10006F6E3A2025632563256325635F25303298
:100B200078253032780D0A003C3C2D4754502D4931
:100B30004E464F2D3E3E2049433220566572736922
:100B40006F6E3A202563256325635F253032782553
:100B50003032780D0A00000000F020B8034B23F873
:100B6000101003F10A0121F810207047CA0000207C
:100B7000044A4FF0FF3122F810100A3222F8101008
:100B800070470000CA000020034A12880280024811
:100B90000A30008808807047CA0000202DE9F04F15
:100BA00046A097B0006815902821E94601A8FFF7F4
:100BB000C3FB434E00270C2270680090BA20834686
:100BC0006946FFF73DFE010005D53EA003F024FB7A
:100BD00017B0BDE8F08F9DF802000028F8D001069C
:100BE00060D500F00F04052C5CD8012C14D90BAD96
:100BF0002421281DFFF7A0FBB0680B906FF00500C3
:100C000000EBC4020BA95846FFF71AFEE200A91C2C
:100C100003A8083AFFF777FB374D05F10408688809
:100C2000A0421AD9A4F1010A14E000260FE000BF87
:100C300009EBC600C07800F00F0118F807008842E1
:100C400007D0564501DBFFF793FF761CF6B2A642AC
:100C5000EED37F1C68888742E7DBACB100264746AD
:100C60000FE000BF09EBC601C87800F00F00B855CF
:100C7000B1F806C08A880B89CCF5F071FFF76EFFDA
:100C8000761CA642EEDB0CE00004000C09D0002626
:100C9000474603E0B85DFFF76BFF761C6888864225
:100CA000F8DB6C80032215A95846FFF72DFE0028BB
:100CB0008EDA12A003F0B0FA8AE70000814E00003D
:100CC000481003083C3C2D4754502D4552524F527A
:100CD0002D3E3E20493243207472616E7366657208
:100CE000206572726F722E206572726E6F3A256483
:100CF0000A200D0A00000000C00000203C3C2D47E7
:100D000054502D494E464F2D3E3E204932432077C8
:100D10007269746520656E645F636D6420657272CC
:100D20006F72210D0A0000007047000070B590F846
:100D30003820012A24D0012680F83860022280F869
:100D4000392000EB0112148CD369183243EA0445B0
:100D50001E4C0A2B16D0092B14D0137B45EA0363D3
:100D60000029016813D0CD69A5431D43CD610368F7
:100D70001168196151680A291BD0092919D01DE091
:100D8000022070BDD36803F07F432B43E8E74D6A30
:100D9000A5431D434D6203681168996151680A2992
:100DA00001D009290AD1D168026821F07F419162FE
:100DB00004E0D168026821F07F41116280F8396057
:100DC000002180F83810084670BD00000F0003FFB6
:100DD0002DE9F0470446006846680568F1074FF0C2
:100DE00004084FF000074FF0010914D0E90512D5AF
:100DF000016821F480710160E06B40F00100E06364
:100E00002168C1F8089084F8398084F838706169E5
:100E100009B120468847B00615D5A80413D5206827
:100E2000016821F400510160216820208860E06B96
:100E300040F00200E06384F8398084F8387061691A
:100E400009B120468847300715D5280513D52068F5
:100E5000016821F400610160216808208860E06B6E
:100E600040F00400E06384F8398084F838706169E8
:100E700009B12046884770070CD568050AD5206857
:100E8000016821F4806101602168C1F80880204672
:100E900000F05AF8B00713D5A80511D520680168ED
:100EA00021F400710160216802208860E06BE0633A
:100EB00084F8399084F83870216909B12046884750
:100EC000F00612D5E80410D52068016821F480519D
:100ED0000160216810208860E06BE06384F839903D
:100EE00084F838702046FFF71FFFBDE8F08770B523
:100EF000040004D094F83900002510B106E0012068
:100F000070BD84F83850204600F020F8022084F8A4
:100F1000390020680168626821F4403111430160A2
:100F20002068416BA26821F00701114341632068EA
:100F3000016CE2686FF30D0111430164E563012068
:100F400084F83900002070BD7047000008B50068C3
:100F50000B49884212D10B48016841F4000101603D
:100F60000068002200F40000009005215A2000F0E3
:100F700077FBBDE808405A2000F064BB08BD0000C4
:100F800000B002403038024090F83510022903D0FA
:100F90008021416501207047052180F835100068E7
:100FA000016821F00101016000207047406D704729
:100FB0002DE9F84304464FF00009CDF8009063484E
:100FC0004FF41651A56D0068B0FBF1F72E6894F848
:100FD0005C10082000FA01F131420FD021680A6844
:100FE00052070BD50A6822F004020A6094F85C10DC
:100FF0008840A860606D40F00100606594F85C1066
:101000004FF0010808FA01F0304208D02168496920
:10101000090604D5A860606D40F00200606594F890
:101020005C1004208840304208D021680968890794
:1010300004D5A860606D40F00400606594F85C1011
:1010400010208840304218D021680968090714D55B
:10105000A86020680168490304D50068000308D52A
:10106000A16C07E00168C90503D4016821F00801FB
:101070000160216C09B12046884794F85C1020205B
:101080008840304231D021680968C9062DD5A86052
:1010900094F8350005282068016806D0490347D533
:1010A000006800031DD4616C1CE021F01601016092
:1010B0002068416921F080014161206C08B9A06C71
:1010C00020B12068016821F00801016094F85C10EB
:1010D0003F208840A86084F8349084F83580216DE2
:1010E0001FE0E16B09B120468847606D00282BD0D6
:1010F000606DC00714D0052084F8350020680168B1
:1011000021F0010101600098401C0090B84203D812
:1011100020680068C007F6D184F8349084F83580E0
:10112000E16C002910D001B02046BDE8F04308472B
:101130000168C905D5D4016821F01001016084F867
:10114000349084F83580CCE7BDE8F8834000002077
:101150002DE9F041044600F0F7F906465CB10025A0
:1011600084F83450022084F835002068016821F0AA
:10117000010101600DE00120BDE8F08100F0E4F91B
:10118000801B052805D920206065032084F83500E0
:10119000F2E720680068C007F0D122681168204893
:1011A0000140D4E901031843D4E90336334318431B
:1011B00063691843A3691843E3691843236A184312
:1011C0000843616A042903D1D4E90B131943084386
:1011D000106020684069666A20F0070130460E43BF
:1011E000012704280CD1A06A0643E06A40B12046DA
:1011F000FFF7E6F920B14020606584F83570BAE762
:10120000206846612046FFF7C7F994F85C203F212B
:1012100091408160656584F835700020ACE700007E
:101220003F8010F02DE9F0410446866D90F83400BF
:10123000002501280DD0012084F8340094F8357081
:101240000020012F07D084F8340002252846BDE88D
:10125000F0810220FBE7022784F8357060652046A4
:10126000FFF7D8F994F85C103F208840B060206800
:10127000016841F016010160206C20B1206801680E
:1012800041F0080101602068016841F0010101603E
:10129000DCE7000070B5044600F056F90546601C16
:1012A00002D004480078044400F04EF9401BA042EC
:1012B000FAD370BD34000020F0B587B01421684621
:1012C000FFF73AF82048016800293AD1012101606E
:1012D0001E480024016841F00101016000680225F8
:1012E00000F0010005904FF23F00CDE9000502AA91
:1012F00003260C2782E8D0006946154800F030F834
:1013000041F23F40CDE9000502AA694682E8D000DB
:10131000104800F025F84FF68370CDE9000502AAC9
:10132000694682E8D0000C4800F01AF84FF6337096
:10133000CDE9000502AA694682E8D000074800F01E
:101340000FF807B0F0BD000024000020383802403C
:10135000001402400018024000100240000C02403D
:101360002DE9F84F00224FF0010803254FF00F0E32
:101370000B6808FA02F42340A3426ED14E68012E96
:1013800005D0022E03D0112E01D0122E12D1866864
:101390004FEA420C05FA0CF7BE43CF6807FA0CF788
:1013A000374387604668A6430C79C4F30014944021
:1013B00034434460C668570005FA07FC8C6826EA87
:1013C0000C06BC403443C4604C68022C01D0122C83
:1013D00013D1D40800EB8404A346D4F8209054071A
:1013E0004FEAD46A0EFA0AF629EA06090E6906FAE5
:1013F0000AF646EA0906CBF8206004680E7924EA6A
:101400000C0406F00306BE40264306604C68E40068
:101410006FD53B4C266846F480462660246822F04F
:10142000030604F480440094364C3444A446D4F8B3
:1014300008489607360F0EFA06F7BC43324FB842FB
:1014400001D100272EE0314FB84201D1012729E018
:101450002F4FB84202D1022724E04AE02D4FB84274
:1014600001D103271EE02C4FB84201D1042719E017
:101470002A4FB84201D1052714E0294FB84201D1C3
:1014800006270FE0274FB84201D107270AE0264F71
:10149000B84201D1082705E0244FB84201D10927FD
:1014A00000E00A27B7402743CCF80878204E34687C
:1014B0004F689C43FF0300D51C4334601C4E361D0F
:1014C00034684F689C43BF0300D51C433460184EFA
:1014D000083634684F689C43FF0200D51C433460D3
:1014E000134E0C3634684F689C43BF0200D51C4332
:1014F0003460521C102AFFF43BAFBDE8F88F0000A7
:101500004438024000300140000002400004024024
:1015100000080240000C024000100240001402408B
:1015200000180240001C024000200240002402403B
:10153000003C01400069084000D0012070470AB11A
:10154000816170470904FBE701488068704700002B
:10155000340000200248816802781144816070479D
:10156000340000200B4810B5016841F4007101609F
:10157000016841F480610160016841F4807101609B
:10158000032000F08DF8002000F006F800F03EF88F
:10159000002010BD003C024010B5014688B000227A
:1015A000362000F05DF8362000F04CF81348002497
:1015B000016841F010010160006805A900F0100009
:1015C0000690684600F050F900F06EF90C494000B2
:1015D000B0FBF1F10C480B4A491E026040F2E732C1
:1015E000C0E90324C0E9011401F0E2F810B10120C0
:1015F00008B010BD044801F01DF9F9E74038024079
:1016000040420F0000100040484700200C4882B0C4
:10161000016841F480410160006800F4804000905E
:101620000748001F016841F08051016000680022F6
:1016300000F0805000900F21901E02B000F010B812
:1016400044380240002809DB00F01F0201219140CC
:101650004009800000F1E020C0F800117047000050
:10166000F0B40E4B1B680C46C3F30223C3F107050D
:10167000042D00D90425191D072901D2002300E0FB
:10168000DB1E012606FA05F1491E214099409E40C5
:10169000761E16403143F0BC02F0CEBD0CED00E0EA
:1016A000064900F0070208684FF6FF03184040EAB9
:1016B0000220034A10430860704700000CED00E070
:1016C0000000FA052DE9F8431748016841F0805100
:1016D00001600068154F00F08050012600903E64C4
:1016E000FFF732FF05464FF47A78114C05E000BF52
:1016F000FFF72AFF401B40450DD86068C003F7D5AF
:101700007E64FFF721FF0546464607E0FFF71CFF12
:10171000401BB04202D90320BDE8F8836068800313
:10172000F4D50020F8E700004038024000000E42E7
:10173000007000402DE9F0470E46050065D0DFF847
:101740001481D8F80000F7B200F00F00B04207D2C1
:1017500088F80070D8F8000000F00F00B04254D1B3
:1017600028683D4C810712D5400703D5206840F416
:10177000E05020602878000703D5206840F46040DE
:1017800020602068A96820F0F000084320602878D5
:10179000C0072DD0304968680839012812D00228C6
:1017A00013D0032811D00968890700292DDA216890
:1017B00021F0030101432160FFF7C6FE814641F29B
:1017C000883A0EE009688903EFE709688901ECE7C8
:1017D000FFF7BAFEA0EB0901514502D90320BDE88D
:1017E000F0872068696800F00C00B0EB810FEFD142
:1017F000D8F80010404601F00F01B14207D9077038
:10180000006800F00F00B04201D00120E7E728781F
:10181000400705D52068E96820F4E05008432060BF
:101820002878000706D52068296920F4604040EA3E
:10183000C100206000F058F82168084AC1F3031184
:10184000515CC8400649086006480068FFF7A4FEDE
:101850000020C4E7003C0240083802403010030872
:1018600040000020380000200F2202600C4A13685C
:1018700003F003034360136803F0F003836013680D
:1018800003F4E053C36012684FF4E05303EAD2025A
:1018900002610448006800F00F0008607047000013
:1018A00008380240003C02400448054900680968C5
:1018B000044AC1F38221515CC840704740000020B7
:1018C00008380240401003080448054900680968C8
:1018D000044AC1F34231515CC840704740000020C7
:1018E0000838024040100308154810B5006810F091
:1018F0000C02144813D04110042A0FD0082A0ED12C
:101900000F4C241F2268236802F03F025B0207D5B8
:101910002068C0F38810A0FB010106E0084610BD56
:101920002168C1F38811A1FB00010023FEF7BAFC76
:101930002168C1F30141491C4900B0FBF1F010BD21
:10194000083802400024F4002DE9F84F04006ED05E
:101950002078DFF83C93C007A9F104054AD009F1CB
:1019600004000168C1F38101012908D00068C0F3B7
:10197000810002280AD1D9F80000400206D5286863
:10198000800337D560680028E1D033E06068B0F5A7
:10199000803F10D0B0F5A02F286810D020F4803000
:1019A0002860286820F4802028606068A8B1FFF7CC
:1019B000CBFD06460DE0286840F48030F4E740F4A3
:1019C00080202860F7E700BFFFF7BEFD801B64287A
:1019D00073D828688003F7D50CE0FFF7B5FD0646FD
:1019E00005E000BFFFF7B0FD801B6428F0D8286831
:1019F0008003F7D42078DFF89C8280074FF0000A3C
:101A00003ED5A348001D016811F00C0F08D00068F6
:101A1000C0F3810002280BD1D9F80000400207D49E
:101A20002868800716D5E068012800D112E02BE174
:101A3000E068B8B10120C8F80000FFF785FD064650
:101A400005E000BFFFF780FD801B0228C0D8286892
:101A50008007F7D52868216920F0F80040EAC10026
:101A600028600DE0C8F800A0FFF76EFD064604E010
:101A7000FFF76AFD801B02281FD828688007F7D46B
:101A80002078000722D5824E83486169703671B193
:101A900001210160FFF758FD074604E0FFF754FD00
:101AA000C01B022809D830688007F7D50EE0C0F8BF
:101AB00000A0FFF749FD074605E082E0FFF744FD7F
:101AC000C01B02287DD830688007F7D420784007F3
:101AD00068D5DFF8BCB100270BF13C0BDBF8000048
:101AE000C0000BD4DBF8001041F08051CBF800109F
:101AF000DBF80000012700F080500090674E30684E
:101B0000C00510D4306840F480703060FFF71CFDD1
:101B1000009005E0FFF718FD0099401A022850D800
:101B20003068C005F6D55A4EA0686C3601280FD033
:101B30000528306810D020F001003060306820F0B7
:101B400004003060A068B8B1FFF7FEFC00900FE021
:101B5000306840F00100F4E740F004003060F7E73F
:101B6000FFF7F2FC0099411A41F28830814266D8B1
:101B700030688007F4D50EE0FFF7E6FC009007E040
:101B8000FFF7E2FC0099411A41F28830814256D8B1
:101B900030688007F4D42FB1DBF8001021F08051B9
:101BA000CBF80010A069C8B33949091D0968C1F311
:101BB000810102294AD00228504607D0C8F86000A7
:101BC00000E03CE0FFF7C0FC04463BE04746C8F8B5
:101BD0006000FFF7B9FC064605E000BFFFF7B4FC64
:101BE000801B02282BD828688001F7D4D4E907018C
:101BF0000843A16A2A4A490802EB0141626A41EAA4
:101C00008211084394F82C1040EA0161C9F80010D1
:101C100001203866FFF798FC044606E036E000BF76
:101C2000FFF792FC001B022809D828688001F7D52D
:101C30002CE000BFFFF788FC001B022802D903201C
:101C4000BDE8F88F28688001F4D41FE00128F7D0A0
:101C5000D9F80000E26900F48001914214D1226AAF
:101C600000F03F0191420FD147F6C071626A014016
:101C7000914209D1A26A00F44031914204D1E16A53
:101C800000F07060884201D00120D9E70020D7E73A
:101C90000438024000004742800E47420070004076
:101CA0000000FFFF10B5FEF7E6FB10BD2DE9FE4377
:101CB000044603200F4684F83400606C03285AD091
:101CC000B7F5805F57D04FF4006600254FF080686D
:101CD000B7421CD1009501950021206801F016FB48
:101CE000800121D46946204601F0FEFE98BB019890
:101CF000400332D5B4F850000104206801F042FBE3
:101D000048BB0221206822E0A06B284327E01FB1D6
:101D1000A06B40F0006022E0009501950021206852
:101D200001F0F4FA800101D53546EDE76946204619
:101D300001F0DAFE78B90198C0030ED5B4F850006E
:101D40000104206801F01EFB28B90021206801F081
:101D500066FB0028D8D00546D6E74546D4E7A06301
:101D6000A06B012558B121680C48886384F8345071
:101D70000120BDE8FE83A06B40F08050EFE7211DFD
:101D8000D4E905060EC90097CDE90106206801F0E7
:101D9000C7FA84F834500020EBE70000FF0540004C
:101DA00070470000F0B5426E920F0A70426EC2F3A7
:101DB00083624A70426EC2F301628A70426E120CF4
:101DC000CA70B0F86420120A0A7190F864204A714F
:101DD000826E120DCA80826EC2F303420A72B0F89C
:101DE0006820C2F3C0324A72B0F86820C2F3803271
:101DF0008A72B0F86820C2F34032CA72B0F8682024
:101E0000C2F300320A7300264E73426C4FF4007521
:101E1000012462B1012A3AD0026847499163816B7B
:101E200041F08051816380F834400120F0BDB0F86A
:101E30006820C36E9205120D42EA93720A61C26E67
:101E4000C2F3C2620A75C26EC2F302624A75C26E02
:101E5000C2F342528A75C26EC2F38242CA75C26E22
:101E6000C2F3C2320A760A69521C42650B7E03F045
:101E700007039B1C9A4042650B7A03F00F0704FA94
:101E800007F383655B0A5A43C0E917250EE090F813
:101E90006820C36E9206920A42EA13420A610A69F6
:101EA000521C92024265C0E91652056630F86C2F4A
:101EB000C2F3803201F8192F0288C2F3C6124A70A9
:101EC000027802F07F028A704268D20FCA704268BC
:101ED000C2F341720A714268C2F382624A71426877
:101EE000C2F383528A714268C2F34052CA710E72C1
:101EF0004268C2F300424A728288C2F3C0328A72D8
:101F00008288C2F38032CA728288C2F340320A7376
:101F10008288C2F300324A738288C2F381228A73B4
:101F20008288C2F30122CA730079C0F346000874A4
:101F30004C740020F0BD0000FF054000426C0A60B8
:101F4000826C4A60C26C8A60026DCA60426D0A612E
:101F5000826D4A61C26D8A61006EC861002070475F
:101F600070B50446B0F8500000250104206801F067
:101F700060FB18B1A16B0143A16304E0002120685C
:101F800001F0C4F90546C5F3432070BDF8B5056BF3
:101F900004460068416B09041BD5290719D5D4E90B
:101FA0000A56002E14D00027206801F0D3F905F856
:101FB000010B010A05F8011B010C05F8021B000EBC
:101FC000361F7F1C05F8010C082FEDD3C4E90A5613
:101FD000F8BD416B4FF00006C9054FF0010744D52D
:101FE000390281632068C16B4CF23A329143C1637C
:101FF0002068C16A21F00101C16228071DD515F0D2
:10200000220F09D0206801F045FB28B1A16B0143E4
:10201000A1632046FFF7C4FE216840F23A5088636E
:1020200084F834702663A80703D0204600F032FA03
:10203000F8BD204600F032FAF8BD2806FCD5A80607
:1020400009D5206801F026FB28B1A16B0143A163EB
:102050002046FFF7A5FEA807EED12068C16A21F04F
:102060000801C16284F83470E3E7416B490424D568
:10207000290722D5D4E90856002EDDD05FF00007ED
:1020800015F8010B009015F8011B361F40EA0120DE
:10209000009015F8021B40EA0140009015F8011C61
:1020A00040EA016000906946206801F066F97F1CF3
:1020B000082FE5D3C4E90856F8BD416B40F23A2237
:1020C0001142F9D0416B890703D5A16B41F00201A0
:1020D000A163416B090703D5A16B41F00801A1631E
:1020E000416B890603D5A16B41F02001A163416BCF
:1020F000C90603D5A16B41F01001A163416B8905AD
:1021000003D5A16B41F00801A16340F23A718163EC
:102110002068C16B40F23A329143C163206801F0FC
:10212000B9FAA16B0843A063280706D584F8347078
:1021300026632046FFF734FEF8BD2806FCD515F0CF
:10214000300F0CD0E16B11480865E06BFEF71CFF07
:102150000028F1D0E06BBDE8F84001F0A3BCA8076F
:102160000CD0216C0A480865206CFEF70DFF002892
:10217000E2D0206CBDE8F84001F06BBCA66384F8A7
:10218000347026632046FFF78DFDF8BDA53A0008A0
:10219000533A000870B504000ED094F834000025BE
:1021A00018B92577204600F03BF8032084F8340066
:1021B000204600F00BF808B1012070BDA56325632F
:1021C000012084F83400002070BD0000FEB5002519
:1021D000044676200095CDE9015029460B460A4673
:1021E000206801F09DF808B10120FEBD0B4E46F8B5
:1021F000A05F206801F0A6F801253560204601F0B7
:1022000055FD20B9204601F0D9FC0028EDD084F816
:102210003450A16B0143A163E6E700000080254232
:102220002DE9F04F87B0054614216846FEF784F883
:102230004649286888427DD145480068444940F4B1
:1022400000600860086800F4006005904048143899
:1022500000683F4940F0040014390860086800F045
:1022600004000590086840F008000860086803262C
:1022700000F0080005904FF4F85000900220019003
:102280000020CDE902060C24694604943148FFF78A
:1022900067F804270220CDE900700020CDE902068E
:1022A000694604942C48FFF75BF82D4C2B484FF0FF
:1022B0000068C4E900080020A060E06038022061E6
:1022C000C4E90976800004F114014FF480494FF00D
:1022D000200A4FF4403B81E8010EC6024702204627
:1022E000C4E90B67FEF734FF08B1FEF7A8F92C64C8
:1022F000A5631B4C194860344830C4E900084020ED
:10230000A0600020E0604FF48060206104F11401BF
:10231000800081E8010E042060621431032081E80E
:10232000C1002046FEF714FF08B1FEF788F9EC6300
:10233000002200E007E005213120A563FFF790F9B6
:102340003120FFF77FF907B0BDE8F08F002C014086
:102350004438024000080240000C02405864024029
:10236000B02500202DE9F04786B01F4604461546EB
:1023700039B194F83400012807D0022006B0BDE836
:10238000F087A06B40F0006008E00020A063E36DE0
:10239000EA199A4204D9A06B40F00070A0636FE084
:1023A000032284F8342022688246D0622268D36BEC
:1023B00040F22A363343D363236C324A4FEA47292B
:1023C000DA63236C304ADA64226C4FEA99031065B1
:1023D00020680A46266C00F180013046FEF722FF95
:1023E000DFF8A880012660B12068C16B21F49571E7
:1023F000C1632168C1F83880A06B40F08040A063C1
:1024000011E023480660606C012800D06D024FF493
:102410000071206800F0EAFF40B12268C2F83880FD
:10242000A16B0143A16384F8346029E04FF0FF30D1
:10243000CDE900099020029002200596CDE9030A1B
:10244000D1466946206800F04BFF012F06D9822053
:1024500020632946206801F05DF805E081202063B3
:102460002946206801F06FF8002887D02268C2F85A
:102470003880A16B0143A16384F83460C4F83090C4
:1024800001207BE7113A0008AD390008FF05400044
:102490008C85254210B5FEF72FF810BD10B5FEF75C
:1024A00047F810BD2DE9FF4F87B0044608981F4636
:1024B000164638B194F83400012807D002200BB03A
:1024C000BDE8F08FA06B40F0006008E00025A56338
:1024D000E16DF019884204D9A06B40F00070A06350
:1024E00061E0032084F834002068C5622068C16B75
:1024F00040F21A2A41EA0A01C163E16B3248C8631B
:10250000E16B3248C864E06B0565606C012800D05F
:1025100076024FF40071206800F068FFDFF8B09099
:102520004FF0010840B12268C2F83890A16B014316
:10253000A16384F8348036E04FF0900B012F06D968
:10254000A02020633146206801F0BEF805E0C4F801
:1025500030B03146206801F0D0F840B12268C2F8AE
:102560003890A16B0143A16384F834801AE01948C4
:102570004646C0F8008022687F02BB08E06B8032CC
:102580000899FEF74FFE80B12068C16B21EA0A016D
:10259000C1632168C1F83890A06B40F08040A0630F
:1025A00084F834602563012089E74FF0FF30CDE9DE
:1025B0000007CDE902B5CDE904566946206800F070
:1025C0008FFE00207BE70000973A0008AD39000835
:1025D000FF0540008C85254270B5040005D000251C
:1025E000A56294F8510010B106E0012070BD84F896
:1025F0005050204600F030F8022084F85100206846
:10260000016821F040010160D4E901010843D4E9E7
:1026100003121143084361690843218B01F40071DF
:102620000843E1690843216A0843A16A0843216815
:102630000860A069042101EA1040616A084321682A
:1026400048602068C16921F40061C16165650120AD
:1026500084F85100002070BD10B586B004461421E6
:102660006846FDF769FE13492068884220D1124868
:102670000021026842F480520260006800F4805039
:1026800005900D481438026842F0020202600068AA
:1026900000F002000590382000900220CDE90101F1
:1026A000032003900520049069460448FEF758FE75
:1026B00006B010BD00300140443802400004024022
:1026C00070B515460E46040003D094F8490010B1C9
:1026D00007E0012070BD002084F84800204600F08B
:1026E0001AF804F108012068FDF7EEFF3146A268F0
:1026F0002068FEF71FF8D4E901022946236BFDF795
:10270000C3FFA168206850F8212042F0010240F880
:102710002120002070BDFEF7CFBD7047704700003C
:1027200070B590F83C20012A32D0012480F83C405A
:10273000022280F83D2003685A689D6822F07006E6
:102740000A6832435A60134B02689A4214D0B2F1BD
:10275000804F11D0104B9A420ED0104B9A420BD0A2
:102760000F4B9A4208D00F4B9A4205D00E4B9A421B
:1027700002D00E4B9A4204D1496825F080031943D8
:10278000916080F83D40002180F83C10084670BD03
:10279000022070BD0000014000040040000800401D
:1027A000000C0040000401400040014000180040BF
:1027B00010B5040003D094F83D0010B107E00120EB
:1027C00010BD002084F83C00204600F00DF80220E7
:1027D00084F83D00211D206801F0ECFB012084F805
:1027E0003D00002010BD000008B500680649884281
:1027F00008D10648016841F020010160006800F03E
:102800002000009008BD0000001400404038024045
:10281000022180F83D1001688A6802F00702062A4A
:1028200003D00A6842F001020A60012180F83D10DD
:10283000002070470168CA6842F00102CA6000685F
:10284000816801F00701062903D0016841F0010108
:10285000016000207047022180F83D1001680A6A7B
:1028600041F211131A4207D10A6A9B101A4203D18E
:102870000A6822F001020A60012180F83D10002060
:102880007047704770B50446006801694FF0000555
:10289000C943890715D4C168C943890711D4E91E02
:1028A000016101202077206880698007204602D0DE
:1028B000FFF7E7FF04E000F098F8204600F096F8F4
:1028C000257720680169C943490717D4C168C943FE
:1028D000490713D46FF004010161022020772068BA
:1028E000806910F4407F204602D0FFF7CAFF04E061
:1028F00000F07BF8204600F079F825772068016920
:10290000C943090716D4C168C943090712D46FF037
:1029100008010161042020772068C06980072046F3
:1029200002D0FFF7AEFF04E000F05FF8204600F0B1
:102930005DF8257720680169C943C90617D4C168C5
:10294000C943C90613D46FF0100101610820207734
:102950002068C06910F4407F204602D0FFF791FF45
:1029600004E000F042F8204600F040F825772068A7
:102970000169C943C90708D1C168C943C90704D15E
:10298000891E0161204600F033F820680169C943BF
:10299000090609D4C168C943090605D46FF080014E
:1029A00001612046FFF7B9FE20680169C943490665
:1029B00009D4C168C943490605D46FF040010161DB
:1029C000204600F01FF820680169C94389060BD42E
:1029D000C168C943890607D46FF020010161204610
:1029E000BDE87040FFF79ABE70BD704770470000A9
:1029F00000680349884201D1FEF7ACBD7047000072
:102A000000100040704770B5040004D094F83900FD
:102A1000002510B106E0012070BD84F83850204632
:102A200000F022F8242084F839002068C16821F4DD
:102A30000051C160204601F027FB2068016921F4A4
:102A4000904101612068416921F02A0141612068BB
:102A5000C16841F40051C160E563202084F8390069
:102A600084F83A00002070BD10B586B004461421E9
:102A70006846FDF761FC14492068884221D113485B
:102A80000021026842F010020260006800F01000AD
:102A900005900E481438026842F001020260006896
:102AA00000F0010005904FF4C06000900220CDE9D5
:102AB0000101032003900720049069460448FEF7B3
:102AC0004FFC06B010BD0000001001404438024029
:102AD000000002402DE9F843044690F839001F46F3
:102AE00016460D46202850D1B5B1AEB194F8380045
:102AF00001284AD0012084F838004FF00008C4F8BB
:102B00003C80212084F83900FEF71EFDA684814612
:102B1000E68484F8388026E00120BDE8F883E08C64
:102B2000401EE084A0684B46B0F5805F4FF0000285
:102B30004FF080012046009703D001F039FBE8B93F
:102B40000DE001F035FBC8B928882168C0F3080002
:102B50004860206908B16D1C05E0AD1C03E02168E8
:102B600015F8010B4860E08C0028D8D14B460022B4
:102B700040212046009701F01BFB08B10320CCE761
:102B8000202084F839000020C7E70220C5E7FEE7CF
:102B900070B514460D4606460EF0CCFC46F001001A
:102BA0000EF096FC0EF0F6FC88B10EF0E1FC012070
:102BB00070BD012C03D10EF047FC0EF0D9FC0EF0D5
:102BC0005DFC641E05F8010BA4B20EF021FC002C84
:102BD000EFD10EF0CDFC002070BD000070B50022DA
:102BE00002210C48FEF7ABFC0B4D4FF400540022C1
:102BF00021462846FEF7A3FC3220FEF74BFB0122BC
:102C000021462846FEF79BFCBDE870403220FEF7C7
:102C100041BB0000000402400008024070B50E46AF
:102C20000546002419E000BF04EB440105EB8100D8
:102C30008278D20707D08288836815F82100194668
:102C4000FFF7A6FF06E00279836815F82100194610
:102C500000F007F8641C002802D1B442E4D12046F9
:102C600070BD2DE9F04116460D4680460EF080FC01
:102C700000244FF47A770EF05DFC40460EF028FCFD
:102C80000EF088FC18B1641CA4B2BC42F3D3BC4261
:102C900006D00BE028780EF01BFC0EF07BFC20B178
:102CA0000EF066FC0120BDE8F0816D1C761EF6B2C8
:102CB000F0D20EF05DFC0020F5E7000010B500F04A
:102CC000DCF8014654A001F0A7FA4FF0D844F720F1
:102CD00024F8420BA920E0875120E0872C20E087D0
:102CE0008220E087C02024F8420C1120E0870920D0
:102CF000E087C12024F8420C4120E087C52024F859
:102D0000420C0020E0870A20E0878020E087B12085
:102D100024F8420CB020E0871120E087B42024F88A
:102D2000420C0220E087B62024F8420C0220E08703
:102D30002220E087B72024F8420CC620E087BE207E
:102D400024F8420C0020E0870420E087E92024F8E2
:102D5000420C0020E087362024F8420C0820E0874F
:102D60003A2024F8420C5520E087E02024F8420C59
:102D70000020E0870720E0871020E0870920E08717
:102D80001720E0870B20E0874120E0878920E0873B
:102D90004B20E0870A20E0870C20E0870E20E087A8
:102DA0001820E0871B20E0870F20E087E12024F82F
:102DB000420C0020E0871720E0871A20E0870420DB
:102DC000E0870E20E0870620E0872F20E08745205F
:102DD000E0874320E0870220E0870A20E08709207F
:102DE000E0873220E0873620E0870F20E08711203F
:102DF00024F8420C6420FEF74DFA292024F8420CF6
:102E0000032000F069F8084904200860BDE810407C
:102E10001F2000F00BB800004C43445F49443D3094
:102E20007825580D0A0000001808024030B5054604
:102E30000B480488408821464443491E401E8AB2FC
:102E400083B20021084600F024F800214FF0D8405A
:102E500003E000BFA0F88050491CA142FAD330BD66
:102E6000BC0000204FF0D843188003E0B3F8800086
:102E700001F8010B521EF9D2704708B500200090EE
:102E800004226946D320FFF7EDFFBDF8020040BAE7
:102E900008BD30B54FF0D8442A2524F8425B050A16
:102EA000E587C0B2E087100AE087D0B2E0872B2028
:102EB00024F8420C080AE087C8B2E087180AE087C5
:102EC000D8B2E0872C2024F8420C30BD4FF0D84215
:102ED0001080A2F8801070470F494FF4A0734FF490
:102EE000F07258B101280DD002280FD0032811D15B
:102EF0000A804B80A8213620FFF7E8BF0B804A806C
:102F00000821F8E70A804B806821F4E70B804A80AB
:102F1000C821F0E770470000BC00002015F094F9CC
:102F20000CF074FC25F06EF90A2027F0CDFCF9E7CF
:102F30000F4810B50D49016000210222C0E90112BD
:102F4000C160C0E90A1201634163FDF7D0FF08B117
:102F5000FDF775FB01210648FDF7E8FE002803D0C8
:102F6000BDE81040FDF76BBB10BD000000B0024093
:102F7000800300200D4808B5016841F4800101601C
:102F80000068002200F48000009005213B20FEF73D
:102F900067FB3B20FEF756FB002205214520FEF78C
:102FA0005FFBBDE808404520FEF74CBB30380240CF
:102FB00010B504490448FDF743FB0249891E087017
:102FC00010BD00000A000020CC0F03082DE9F047D7
:102FD00088B01C216846FDF7AFF92A480621002475
:102FE000C0E902141025C0E904458461C4614FF4AE
:102FF000805A0462C0E9094AC4620463446384637A
:10300000214FC4634FF020464464C0E900670320A9
:103010004FF00F09CDE9000902A94FF0110881E82E
:1030200031010022694617480694FFF749FB08B1B1
:10303000FDF705FB1348042150300022C0E90214BB
:10304000C0E904458461C4610462C0E9094AC462FC
:10305000046344638463C4634464C0E90067CDE9E6
:10306000004902A9092081E831010648694650302B
:103070000694FFF725FB002801D0FDF7E0FA08B021
:10308000BDE8F0878C240020040100A010B51AF0E0
:1030900039FD21F0F7FC21F01BFD074A002107480C
:1030A00027F032FE064C044A0021206024320548F5
:1030B00027F02AFE606010BDE00F03081D2F0008F6
:1030C0002C0000207D4000082DE9F04186B014213D
:1030D0006846FDF731F944480024016841F00401D5
:1030E0000160016801F004010591016841F02001CF
:1030F0000160016801F020010591016841F0800143
:103100000160016801F080010591016841F0020150
:103110000160016801F002010591016841F0400180
:103120000160016801F040010591016841F0100162
:103130000160016801F010010591016841F008018A
:103140000160016801F008010591016841F0010189
:1031500001600068254F00F0010042F2040505906F
:10316000002229463846FEF7EAF9DFF8848000227B
:103170004FF460614046FEF7E2F91E4E0022012145
:103180003046FEF7DCF900950125CDE9015469468A
:1031900038460394FEF7E4F84FF4C0600090CDE9A0
:1031A0000154694640460394FEF7DAF80095CDE9EC
:1031B00001540225694630460395FEF7D1F8CDE962
:1031C0000054694630460294FEF7CAF8A8020090FF
:1031D00001AA112082E8310069464046FEF7C0F896
:1031E00006B0BDE8F081000030380240000802401F
:1031F0000014024000040240064805490160002115
:1032000041608160C1600161416108218161704755
:10321000002C01402C2500200F4810B50D490160FD
:103220004FF48271416000218160C1604FF40072EF
:103230000161C0E90512C1610162416281620A2136
:10324000C162FFF7C9F9002803D0BDE81040FDF7BF
:10325000F6B910BD00300140704600201CB50024B6
:103260000F4800940D4901940160B321C0E9011495
:103270004FF6FE71C16080218161FFF799FA08B1B4
:10328000FDF7DDF90094694605480194FFF748FA17
:10329000002801D0FDF7D3F91CBD00000014004048
:1032A000C84600200C4810B50A4901604FF4E131CE
:1032B0004160002181600C22C160C0E9041281617B
:1032C000C161FFF7A0FB002803D0BDE81040FDF767
:1032D000B6B910BD0010014008470020FEE7704756
:1032E0000A6842624A688262D1E902231A43D1E93C
:1032F00004310B43C16A1A4321F0F7011143C16243
:1033000000207047006800F00300704708444069DF
:10331000704700000148FEF739BE00002C25002050
:1033200070B50DF1100C11439CE870002343194354
:1033300029434268314347F6FF639A430A43426098
:10334000002070BD10B5032101600220FDF7A2FF2F
:10335000002010BDD0F8800070470A688260D1E973
:1033600001231A43D1E903310B43C1681A436FF3B8
:103370000B011143C160002070470968C0F880103C
:103380000020704710B586B004463720CDE9001004
:1033900040200290002003904FF480600490694622
:1033A0002046FFF7DAFF41F288323721204600F04D
:1033B000BDF906B010BD000010B504460A4886B03D
:1033C00001432920CDE90010402002900020039005
:1033D0004FF48060049069462046FFF7BEFF204608
:1033E00000F05CFA06B010BD0000108010B586B089
:1033F00004461020CDE900104020029000200390E8
:103400004FF48060049069462046FFF7A6FF41F222
:1034100088321021204600F089F906B010BD10B5A1
:1034200086B004460620CDE900104020029000201E
:1034300003904FF48060049069462046FFF78DFFAB
:1034400041F288320621204600F070F906B010BD26
:1034500030B585B000240546009401944FF4806097
:103460000294CDE9034069462846FFF776FF0B48F2
:103470004FF4FA510068B0FBF1F041F28831484353
:10348000401E03D24FF0004005B030BD696B090605
:10349000F6D5C520A8632046F6E7000040000020CE
:1034A00070B585B004464FF4D570009001A908208E
:1034B0004025002681E86100C0010490694620464D
:1034C000FFF74BFF12484FF4FA510068B0FBF1F0E0
:1034D00041F288314843401E03D24FF0004005B00E
:1034E00070BD616B11F0450FF5D00905F3D4606B29
:1034F000400701D5042003E0606BC00702D0012023
:10350000A063ECE7606B400600D5A5633046E6E7B4
:103510004000002010B586B004461220CDE900100E
:1035200040200290002003904FF480600490694690
:103530002046FFF712FF41F288321221204600F0A8
:10354000F5F806B010BD10B586B004461120CDE9DF
:10355000001040200290002003904FF480600490FF
:1035600069462046FFF7F9FE41F2883211212046D4
:1035700000F0DCF806B010BD10B586B00446072098
:10358000CDE9002040200290002003904FF480609D
:10359000049069462046FFF7E0FE41F28832072199
:1035A000204600F0C3F806B010BD10B586B0044642
:1035B00000210220CDE90010C020CDE902014FF426
:1035C0008060049069462046FFF7C7FE204600F061
:1035D0003DF906B010BD10B586B004460920CDE90E
:1035E0000010C0200290002003904FF480600490EF
:1035F00069462046FFF7B1FE204600F027F906B0E5
:1036000010BD10B586B0044600213320CDE900106E
:103610004020CDE902010001049069462046FFF7F1
:103620009CFE41F288323321204600F07FF806B03C
:1036300010BD10B586B004460D20CDE90010402025
:103640000290002003904FF4806004906946204669
:10365000FFF783FE41F288320D21204600F066F824
:1036600006B010BD30B585B00C46054600210320DC
:10367000CDE900104020CDE9020100010490694627
:103680002846FFF76AFE22460321284600F028F963
:1036900005B030BD10B586B0044600210C20CDE940
:1036A00000104020CDE90201000104906946204647
:1036B000FFF753FE034A0C21204600F037F806B00E
:1036C00010BD000000E1F50510B586B004461920D4
:1036D000CDE9001040200290002003904FF480605C
:1036E000049069462046FFF738FE41F288321921DE
:1036F000204600F01BF806B010BD10B586B0044699
:103700001820CDE9001040200290002003904FF4D3
:103710008060049069462046FFF71FFE41F2883220
:103720001821204600F002F806B010BD454B10B538
:103730001B684FF4FA54B3FBF4F353435B1E02D2FD
:103740004FF0004010BD426B12F0450FF6D012054D
:10375000F4D4426B520703D504218163084610BD9F
:10376000426BD20702D00121816305E0C52282634A
:103770000269D2B28A4201D0012010BD0021FFF7B8
:10378000C5FD3149084201D1002010BD002802DAF0
:103790004FF0007010BD410001D5402010BD8100E8
:1037A00001D5802010BDC10002D54FF4807010BD3E
:1037B000010102D54FF4007010BD410102D54FF454
:1037C000806010BDC10102D54FF4006010BD010240
:1037D00002D54FF4805010BD410202D54FF4005085
:1037E00010BD810202D54FF4804010BDC10202D548
:1037F0004FF4004010BD410302D54FF4003010BD1E
:10380000810302D54FF4802010BDC10302D54FF4CF
:10381000002010BD010402D54FF4801010BD4104FA
:1038200002D54FF4001010BD810402D54FF4800082
:1038300010BD000702D54FF4000010BD4FF48030DA
:1038400010BD00004000002008E0FFFD12494FF4C9
:10385000FA520968B1FBF2F141F288325143491E34
:1038600002D24FF000407047426B12F0450FF6D085
:103870001205F4D4416B490703D50421816308463E
:103880007047416BC90703D0012181630846704727
:10389000C521816300207047400000200F494FF48C
:1038A000FA520968B1FBF2F141F288325143491EE4
:1038B00002D24FF000407047426B12F0450FF6D035
:1038C0001205F4D4416B490703D5042181630846EE
:1038D0007047C52181630020704700004000002030
:1038E00030B5204B4FF4FA541B68B3FBF4F341F2AC
:1038F000883463435B1E02D24FF0004030BD446BFE
:1039000014F0450FF6D02405F4D4436B5B0703D5C0
:1039100004218163084630BD436BDB0702D00121DF
:10392000816303E00369DBB28B4201D0012030BD2B
:10393000C52181630021FFF7E9FC10F4604F04D03A
:10394000410406D54FF4005030BD000C108000201B
:1039500030BD000402D54FF4805030BD4FF48030AC
:1039600030BD00004000002010B5064C0120207042
:10397000FCF788FD18B9207820F00100207020782D
:1039800010BD00000000002070B5054626F0C6FFFF
:10399000044603E0FCF776FD002806D026F0BEFFC3
:1039A000001BA842F6D34FF0FF3070BD10B5846BFA
:1039B000FDF7FCFA022828D0206C416DE06B406DC9
:1039C000012901D001281DD1216810488863206891
:1039D000C16B21F49D71C163A06B40F08040A06376
:1039E0002046FEF7BDFA062801D0052805D120683B
:1039F000FFF750FEA16B0843A063012084F8340058
:103A0000002020632046FEF7CBF910BDFF054000E3
:103A100010B5846B206B822809D12068FFF73AFE2D
:103A200028B1A16B0143A1632046FEF7B9F92068D4
:103A3000C16A21F00801C162216840F23A508863EE
:103A4000012084F83400002020632046FEF722FD88
:103A500010BD10B5846B40F23A502168886320464F
:103A6000FEF77EFA012184F8341000212163062834
:103A700001D0052805D12068FFF70CFEA16B084393
:103A8000A063A06B0028204602D0FEF789F910BD84
:103A9000FEF708F910BD806B0068C16B41F48071BE
:103AA000C163704710B5846B40F23A502168886357
:103AB0002046FEF755FA012184F8341000212163D5
:103AC000062801D0052805D12068FFF7E3FDA16B8A
:103AD0000843A063A06B0028204602D0FEF760F9DF
:103AE00010BDFEF7DFF810BD2DE9F04F89B00D468F
:103AF0000446FDF729FD00268346009601963746C9
:103B000008212068FFF772FC002834D1B4F8500077
:103B100001042068FFF736FC00282CD1401E4FF02E
:103B20000808CDE9020830204FF00209CDE9040968
:103B30000120CDE9067002A92068FFF7D1FB2068BB
:103B4000FFF75FFD002816D1EA4640F22A472068B9
:103B5000416B394212D1416B890204D5FFF7FAFB60
:103B60004AF82600761CFDF7EFFCA0EB0B00401C8A
:103B7000EDD14FF0004009B0BDE8F08F416B09076F
:103B800003D5C0F838800820F5E7416B890703D5D5
:103B9000C0F838900220EEE7416B890603D520215A
:103BA00081630846E7E740F23A518163019800BA21
:103BB0002860009800BA68600020DCE710B590B07B
:103BC00004460120ADF838002068FFF79BFB002871
:103BD00054D0606C032842D02068FFF7E6FC002830
:103BE0004AD100212068FFF791FB6067042120681B
:103BF000FFF78CFBA06708212068FFF787FBE067D1
:103C00000C212068FFF782FBC4F88000606C032859
:103C100025D00EA92068FFF725FD00282CD1606C67
:103C200003281CD0BDF83800206501042068FFF788
:103C3000D2FC002820D100212068FFF767FB6066D6
:103C400004212068FFF762FBA06608212068FFF7C7
:103C50005DFBE0660C212068FFF758FB206704211C
:103C60002068FFF753FB000DE06403A92046FEF730
:103C700099F830B14FF0805010B010BD4FF0806017
:103C8000FAE7B4F85000002302042068FFF774FC40
:103C90000028F1D104F1100007C88DE8070094E86E
:103CA0000F00FFF73DFB0020E6E700002DE9F84F8D
:103CB0000026044600963546B0460068FFF7C8FB6C
:103CC000002827D12068FFF7EBFB4FF0805B4FF017
:103CD00001094FF6FF7748B1A6642068FFF7B8FBEB
:103CE000002817D1A06C012802D020E0C4F8489029
:103CF00000212068FFF746FB58B918E00021206832
:103D0000FFF740FB002805D151462068FFF754FB20
:103D100010B15846BDE8F88F00212068FFF7F6FA89
:103D200005464FEAD0780098401C009002E0DFF88A
:103D30002CA00098B84202D2B8F1000FDED0009853
:103D4000B84202D34FF08070E4E7680002D5C4F8AF
:103D5000449000E066640020DCE70000000010C131
:103D600070B5104C05460120207026F0C7FD0228D2
:103D700016D1FCF793FB18B92846FFF7F5FD207024
:103D8000207801280CD0606850B9002202210A2056
:103D900026F050FE606018B9207840F001002070D5
:103DA000207870BD0000002010B5124888B014467D
:103DB0000078C00702D0032008B010BDC1B10129AE
:103DC00005D0022908D003290CD00420F4E7684666
:103DD000FCF752FB06980AE06846FCF74DFB079893
:103DE000208005E06846FCF747FB0798400A206002
:103DF0000020E1E7000000202DE9F84347F23054AD
:103E00001E461746884601252046FFF7BDFD0028BF
:103E10001EDB324639464046FCF760FBC0B90F480E
:103E2000234600226946406826F0C4FD80B9BDF8EB
:103E3000000001280CD126F071FD064603E000BF0A
:103E4000FCF720FB38B126F069FD801BA042F7D3B8
:103E50002846BDE8F8830025FAE7000000000020AE
:103E6000FFF782BD2DE9F84347F230541E4617464E
:103E7000884601252046FFF787FD00281EDB3246D5
:103E800039464046FCF746FBC0B90F48234600229E
:103E90006946406826F08EFD80B9BDF80000022812
:103EA0000CD126F03BFD064603E000BFFCF7EAFA22
:103EB00038B126F033FD801BA042F7D32846BDE879
:103EC000F8830025FAE700000000002010B550201C
:103ED00080F31188BFF34F8FBFF36F8F2CF098FEE4
:103EE00018B104494FF080500860002080F3118819
:103EF00010BD000004ED00E030B593B030216846FD
:103F0000FCF71AFA14210CA8FCF716FA1A48002537
:103F1000016841F080510160006800F0805011900C
:103F20001648016841F4404101600068022400F431
:103F30004040119001200090000401908001CDE9E3
:103F4000064004200890B420CDE9090408200B9015
:103F50006846FDF7F9FCFDF7B5FB0CA90F2081E8D9
:103F600031004FF4A0500F90E002109005210CA8F2
:103F7000FDF7E0FB13B030BD403802400070004058
:103F80000548016841F47001016003494FF0006089
:103F9000803908607047000088ED00E010B501200E
:103FA00025F08CFDBDE810400148FEF76BBC000019
:103FB00048470020F0B50268254C264D264E274F75
:103FC000274B4FF0804CA04209D0604507D0A84253
:103FD00005D0B04203D0B84201D0984204D122F0BB
:103FE000700E4A6842EA0E02A0421BD0604519D00A
:103FF000A84217D0B04215D0B84213D0984211D081
:10400000184DA8420ED0184DA8420BD0174DA8420B
:1040100008D0174DA84205D0164DA84202D0164D23
:10402000A84203D122F44075CA682A434D6922F0A0
:1040300080022A4302608A68C2620A688262A042E1
:1040400001D0984201D10969016301214161F0BDAC
:10405000000001400004004000080040000C004047
:10406000000401400040014000440140004801407C
:1040700000180040001C004000200040FCF76CFDD0
:104080001E2026F021FCF9E72DE9F04104460068E6
:104090000169E26821F44051114301612169A0687E
:1040A000E26908436169114308432168CA6849F21B
:1040B0000C639A430243CA6020684169A26921F4F3
:1040C000407111434161E069192764253226B0F53A
:1040D000004F354A354920684FF0000806D0884225
:1040E00001D0904236D1FDF7EFFB35E0884201D098
:1040F000904202D1FDF7E8FB01E0FDF7D5FB6168D6
:104100004A18A0FB070148EB0803FCF7CBF801466F
:10411000B0FBF5F00201B1FBF5F06FF01803584366
:1041200001EB800006EBC000B0FBF5F000F0F800FA
:1041300002EB4002B1FBF5F0584301EB800006EBC7
:10414000C000B0FBF5F000F0070021681044886063
:10415000BDE8F081FDF7A8FB61688B0F8A00A0FB2A
:104160000701FCF79FF80146B0FBF5F06FF018026D
:10417000504301EB800006EB0010B0FBF5F000F0BF
:10418000F002B1FBF5F002EB0012B1FBF5F06FF0BD
:104190001803584301EB800006EB0010B0FBF5F06C
:1041A00000F00F00D1E700000014014000100140B2
:1041B0002DE9F041984617460E460446069D1DE03F
:1041C000681C1BD02DB1FDF7BFF9A0EB0800A84279
:1041D00014D92068C16821F4D071C1602068416998
:1041E00021F001014161202084F8390084F83A006F
:1041F000002084F838000320BDE8F08120680068C2
:1042000036EA000004D00020B842D9D00020F3E7FD
:104210000120F9E7FEE700000FB4054B10B503A934
:10422000044A029802F05EFF10BC5DF814FB000027
:10423000210301087C0300200907090E002804DB84
:1042400000F1E02080F80014704700F00F0000F14A
:10425000E02080F8141D704702E008C8121F08C152
:10426000002AFAD170477047002001E001C1121FF7
:10427000002AFBD1704770B5044600256FF02F0669
:1042800008E02068411C2160007805EB850106EB01
:10429000410145182068007800F004F80028F0D1AA
:1042A000284670BD3038092801D801207047002009
:1042B0007047000010B54421094801F02EFA25F09E
:1042C000F3FB084C0023042260601E21064823F003
:1042D000D5FEA06003F0A0FB0020207010BD000000
:1042E0005895002054010020D17A00082DE9F041B2
:1042F00000251C4688460646152A3BD2DFE802F018
:104300000B1B1D2E3744535C5E676A79878999A61B
:10431000ABB0B5BACD00304610F0C8FA05464046FD
:1043200010F0C4FA014605EBD570401001EBD171D5
:10433000A0EB6100A1E025800EE0304610F0B6FA57
:104340000746404610F0B2FA07EBD771491000EB70
:10435000D070A1EB60008BE065800BE0304610F080
:10436000A5FA0746404610F0A1FA381A80E02580E9
:1043700097E06080208831880844208060887188B8
:1043800008446080BDE8F081304610F08FFA0546A1
:10439000404610F08BFA05EBD571491000EBD07058
:1043A000A1EB60007CE0304610F080FA0546404604
:1043B00010F07CFA281A73E025805FE0304610F098
:1043C00075FA0546404610F071FA281A55E0258026
:1043D000084618E0304610F069FA0546404610F0ED
:1043E00065FA05EBD571491000EBD070A1EB6000C8
:1043F00007E0304610F05AFA0546404610F056FAEB
:10440000281A2080404610F019FA4042B1E7258072
:1044100018E0304610F04AFA0546404610F046FAD9
:10442000014605EBD570401001EBD171A0EB6100A6
:1044300007E0304610F03AFA0546404610F036FAEA
:10444000281A2080304610F0F9F992E7084610F05B
:104450002DFA40420CE0084610F028FA40420CE0E9
:10446000084610F023FA40421AE0304610F01EFAD7
:10447000208071E7304610F019FA2080304610F0A5
:10448000DDF90546404610F0D9F905EBD571491024
:1044900000EBD070A1EB60006BE7304610F006FA3D
:1044A0002080304610F0CAF90546404610F0C6F9A3
:1044B000281A5EE770B5B1F90030B2F90040A342A6
:1044C00000DC23460380B1F90250B2F90240A54254
:1044D00000DD2C464480B1F90460B2F90450AE42CC
:1044E00000DA35468580B1F90610B2F9062091420E
:1044F00000DB1146C1800120AB4201DC8C4200DDB3
:10450000002070BDF8B50D4604461646B4F90010FB
:10451000B5F900200020914212DBB4F90220B5F970
:1045200002309A420CDBB4F90420B5F904309A4207
:1045300006DCB4F90620B5F906309A4200DC012009
:10454000002E33D0ADF800106088ADF8020032467E
:104550006946284600F047F8002827D0A088ADF823
:1045600000006088ADF8020032466946284600F037
:104570003AF800281AD02088ADF80000E088ADF89D
:10458000020032466946284600F02DF800280DD07A
:10459000A088ADF80000E088ADF802003246694618
:1045A000284600F020F8002800D00120F8BDB0F91E
:1045B0000020B1F904309A4213DCB0F90420B1F9BB
:1045C00000309A420DDBB0F90220B1F906309A4270
:1045D00007DCB0F90600B1F90210884201DB0120C6
:1045E0007047002070472DE9FC4114460E46B1F992
:1045F0000020B0F9001005468A423ADBB5F9040004
:10460000824236DCB6F90270B5F90220974230DBFF
:10461000B5F906309F422CDC002C75DD401A9A1A41
:10462000401C521C00B212B200EBD07002EBD272EE
:1046300040105210904200DB1046844200DD0446D8
:10464000ADF80010288800222044ADF804006888E6
:10465000ADF80200688831462044ADF8060068468F
:10466000FFF7C1FF40B1BDF804002044ADF80400DD
:104670003FE00020BDE8FC81E8880022001BADF887
:104680000200E888ADF8060031466846FFF7ABFF48
:1046900028B1BDF804002044ADF8040011E0A8885A
:1046A0000022001BADF80000A888ADF804003146D8
:1046B0006846FFF798FF50B1BDF80000001BADF849
:1046C0000000BDF80200001BADF8020016E068888B
:1046D000ADF80200688800222044ADF8060031469B
:1046E0006846FFF780FF70B1BDF80000001BADF811
:1046F0000000BDF806002044ADF8060031466846CB
:1047000020F0A4F9B6E7FFE70120B3E710B5B1F94F
:104710000040B2F900309C4200DA23460380B1F930
:104720000240B2F902309C4200DA23464380B1F9DC
:104730000440B2F904309C4200DD23468380B1F985
:104740000610B2F90620914200DC1146C18010BD6E
:1047500030B5034680881C885D88001BDC88401CBF
:10476000198000B2641B641C014624B25A801846AA
:1047700010F0C0F82146BDE83040184610F0B5B83A
:104780000022002801DA01224042002901DA4942D0
:10479000921C884207D9C1EB011101EB4101B1FB29
:1047A000F0F3103205E0C0EB001000EB4000B0FB6E
:1047B000F1F30020D9B216290BD92C2900D80120F9
:1047C000292900D8401C252900D8401C20290BD9B4
:1047D0000BE0022900D30120062900D3401C0A293E
:1047E00000D3401C0F2900D3401C1844D10601D52A
:1047F000C0F15A0091074FEAC27105D509B1B43032
:1048000005E0C0F1B40002E009B1C0F5B47080B2B7
:1048100070472DE9FF4F87B01D46DDE91476DDF8BE
:1048200058908B46022E50D3002F4ED001F01CFD25
:10483000804613F0BBFE00F11004D0F808A0D8F8B1
:104840002410404601B188475A4604A80799FFF74B
:1048500031FE002839D0BDF810002188401A01B27D
:10486000ADF81010BDF812006288801AADF8120081
:10487000BDF814002288801A00B2ADF81400BDF80B
:1048800016206388D21AADF8162095B198F8082042
:10489000D2070ED1401A401C01B2002007E02A5C6A
:1048A000802A01D9FF2200E000222A54401C8842BD
:1048B000F5DBD8F8140058B1CDE90065029704AAD9
:1048C00051462046099B0BF0D5FA0BB0BDE8F08F9E
:1048D000B9F1000F0AD001A8009680E8A00204AA4E
:1048E00051462046099B0BF017F8EEE7CDE900652D
:1048F000029704AA51462046099B0BF0A7F8E4E76B
:104900002DE9FF4F87B01D46DDE91476DDF858A08C
:104910009146022E52D3002F50D0014605A8089A86
:10492000FFF7C8FD002849D001F09EFC804613F037
:104930003DFE00F11004D0F808B0D8F8241040462D
:1049400001B18847BDF814002188401A01B2ADF8C2
:104950001410BDF816006288801AADF81600BDF874
:1049600018002288801A00B2ADF81800BDF81A208D
:104970006388D21AADF81A2095B198F80820D207AA
:104980000ED1401A401C01B2002007E02A5C802AA8
:1049900001D9FF2200E000222A54401C8842F5DBA6
:1049A000D8F8140068B1CDF800900397CDE90165FF
:1049B00005AA59462046089B25F0C6FC0BB0BDE869
:1049C000F08FBAF1000F0BD002A805AA80E8A0046E
:1049D000CDE9009659462046089B25F047FAEDE7B9
:1049E000CDF800900397CDE9016505AA5946204608
:1049F000089B25F0EBFAE1E7D0F87421C2F30943F4
:104A00008B4202D204490A4002E0591A61F319426A
:104A1000C0F8742170470000FFFF00FC2DE9FC5F27
:104A2000054625F041F8434C8346E8686060002164
:104A3000284623F07DFC60683F4FC16B81B120F0B8
:104A40001FFA20F091F96068FA43D0F8741111420E
:104A500069D013F042FEE8B360684169D1BB06E05B
:104A6000D0F874113940C0F87411BDE8FC9F13F000
:104A70009DFD054620F0FEFAA8690028FCD1A86833
:104A80002E688146B04200D16E68606813F0A2FDC6
:104A90008246002525E0481990F85601F8B901EB47
:104AA000C50030F9563F42881AFB023CB0F8068038
:104AB0008088A8EB0202521CC01A401C12B200B23D
:104AC000CDE90002B1F900104FEA4C0C0B4606EBA1
:104AD0000C0200E00CE009EB0C0017F087F96D1CEC
:104AE000ADB26168D1F87401C0F30940A842D2D8D0
:104AF00060684FF48071563001F00EF96068202133
:104B000000F5AB7001F008F96068D0F87411394015
:104B1000C0F87411584624F0C1FF014660688369EB
:104B20000BB12268984700F0F7FEBDE8FC5F00F08B
:104B300005B80000F4000020FFFF00FC10B5044C95
:104B40002068002803D01BF027FF0020206010BD44
:104B5000780100204421014800F0DFBD409500208D
:104B60001821014800F0D9BD649500202DE9FF5FB0
:104B70000446DDE90E0613B9B0F5807F7ED0B6F9A4
:104B800000504FF0FF376D42454307EB25252DB20E
:104B90002580B6F902C0CCF1000C0CFB00FC07EB41
:104BA0002C273FB26780B6F900C0A1EB0C0141434E
:104BB0004FF0020C0CEB212109B2A180B6F9028062
:104BC000A2EB080242430CEB222000B2E080002B53
:104BD0007ED04FF00A0A93FBFAF5684200EB8000A2
:104BE00003EB400705F1010928B201F069FF0090CD
:104BF0000FFA89F001F064FF83465A3528B201F0BC
:104C00005FFF804609F15A0000B201F059FF0146EA
:104C1000009AC7F10A0000FB02F300FB08F00BFB4F
:104C2000073301FB070193FBFAF291FBFAF04FEA1D
:104C3000601AB4F90010B4F902000AFB01FCCDF8C7
:104C40000CC05511378805FB10C207EBA2220FFAE2
:104C500082F905FB01F2BB46029277880AFB00212C
:104C600007EBA1210BB2B4F90410BE460AFB01FC0C
:104C700005FB10C20BEBA22216B200E02FE005FBF1
:104C800001F7CDE9007CB4F90680DDF80CC00AFB21
:104C9000007005FB18C1DDF804C0009F05FB18C5B6
:104CA000029A0AFB087C0AFB08220BEBA1210EEBFF
:104CB000AC270EEBA02009B20EEBA2220BEBA52530
:104CC0000FFA87FC00B212B22DB24F46494500E000
:104CD0000EE000DA0F46B54216DAA84615E00020CD
:104CE0002080491E6080A180521EE280BDE8FF9FA7
:104CF00032882A44228072883A4462803288114481
:104D0000A180718808444FE0B046474504DA4F4619
:104D1000494506DA0F4604E0B54201DA2F4600E0C5
:104D2000374627804F46494500DD0F46B54201DD35
:104D3000A84600E0B046474503DD4D46494505DC41
:104D400001E0B54201DD294600E03146A1809A42EA
:104D500001DA154600E01D46844501DA614600E0AF
:104D600001468D4205DA9A4201DA114606E01946FB
:104D700004E0844501DA614600E0014661809A4220
:104D800001DD114600E01946844501DD654600E07D
:104D90000546A94205DD9A4201DD104604E01846A9
:104DA00002E0844500DD6046E0809FE72DE9FE4F8C
:104DB0000446D0F800B0B0F90800E589081AB4F943
:104DC0000A10511AD4E90932B5F5807F3CD0A58983
:104DD000002DA56B05FB00F005FB01F54FEA601007
:104DE0004FEA65113ED0256BE66A05FB00F706FB2E
:104DF0001177464305FB016003EBA72902EBA020D6
:104E000080460612B4F904004FEA2927B84248DD6B
:104E1000002F46DBB4F90610B14242DD002E40DB24
:104E200094F834104A073FD58A0704F114031DD4BF
:104E300000FB067045004FF0020A0BEB05015246DD
:104E4000184600F0FBFE22E0256BE66A05FB00F742
:104E500006FB1177464305FB016003EBA70902EB54
:104E6000A000CDE703EB00095018C9E700FB06706E
:104E700000EB40054FF0030A0BEB05010222184638
:104E800000F0DCFEE81C584410F8010CA07594F802
:104E90003400C0071ED01948A18A008880B2814220
:104EA00018D10020BDE8FE8F32B204F1180023694A
:104EB000CDE90102002539B2AA468B4617F08CF9DC
:104EC0000090BDF80000A082DDE90102594617F00C
:104ED0001BF9DBE7E07C78B1A4F83C90A4F83E80B5
:104EE000A4F84070A4F84260656484F848A02046A5
:104EF000BDE8FE4F00F004B80120D3E760100308BE
:104F00002DE9F04F044690F83C10D0F8009090F84E
:104F10003E0087B04FF0FF36702907DAB4F9402021
:104F20003546012A00D5002580310DE0902916DD97
:104F3000B4F94020B4F904300125521C9A4200DB38
:104F40000025A1F27F114942C9B28846702809DACA
:104F5000B4F94210012900D50026803010E0002568
:104F6000FF21F2E790280DDDB4F94210B4F90620D4
:104F70000126491C914200DB0026A0F27F1040422E
:104F8000C7B201E00026FF2760690090A07D059070
:104F9000002083468246049094F83400400744D5AC
:104FA00094F84810606C11FB05014944022201A8E5
:104FB00000F050FEA08894F8481010FB01F0616CDE
:104FC000022206FB0011494403A800F043FEA18819
:104FD00094F8480011FB00F1626C06FB012210FB03
:104FE00005901118022202A800F034FE94F8340053
:104FF000800761D594F84800626C10FB052300EB34
:1050000009010B4413F8013C0493A38813FB00F33C
:1050100006FB0322114411F801BC10FB0500111816
:1050200001EB090010F8010C45E0B4F84000B4F9B8
:105030004220284401B204F118008146236917F088
:10504000CBF80190B4F84200B4F94010304402B2F9
:1050500054F8103F484617F0BFF80390608E23685D
:10506000304402B2208E284401B2484617F0B4F80A
:10507000029094F82400103C80071DD5B4F942201A
:1050800034F8400F284401B2484617F03DF8049028
:105090006088B4F90010304402B2484617F034F882
:1050A00083466088304402B234F84009284401B293
:1050B000484617F029F8824694F83400424645469F
:1050C000800735D5059810FB08F30499C8F1FF0057
:1050D00011FB0031C1F307211BFB08F61AFB00602E
:1050E000C0F3072011FB07F3C7F1FF0610FB0633DF
:1050F0001B0AA375022907D8022803D8002007B08D
:10510000BDE8F08F002702E0022800D8FF270598AD
:10511000022800D800220498022800D8FF22BBF100
:10512000020F00D80025BAF1020F03D8FF2501E0D5
:10513000FF20A075EAB1FF2A04D0DDE9000112F0DA
:10514000CFF80090BDB1FF2D17D0DDE902102A463F
:1051500012F0C6F8049097B1FF2F05D001463A46E9
:10516000009812F0BDF80090BDF80000A082012068
:10517000C5E70198E5E70298ECE70398EAE7BDF890
:105180001000F3E72DE9F0470446B0F908000A27BC
:1051900000026062B4F90A000002A062B4F90C10C7
:1051A00091FBF7F5684200EB800001EB4006684296
:1051B00005F1010800B201F083FC8246E84300B229
:1051C00001F07EFC8146C5F15A0000B201F078FC86
:1051D0000546C8F15A0000B201F072FCC6F10A019E
:1051E00001FB0AF3024609FB0630694390FBF7F026
:1051F00002FB061191FBF7F14011E06248112063B8
:10520000A07C17F0F5F894F8341060F3000184F8EE
:105210003410A07C17F0DCF894F8341060F34101EE
:1052200084F83410A07C042824D0052822D0062835
:1052300020D021F0040100BF84F8341021682162DD
:10524000A16921F0E00160F30401A08860F39421DA
:10525000E08860F35F51A161E0894FF4001101EB38
:105260005001B1FBF0F0A063FF20A075208AA0825E
:10527000BDE8F08741F00401DEE700002DE9F047CA
:10528000444E89468046318821B14348434C0568E5
:1052900000200EE00020BDE8F08700BF00EBC00258
:1052A00005EB8202136AA34201DD5B1E1362401C00
:1052B00080B28842F2D300241BE000BF04EBC4009C
:1052C00005EB8007786818F0DBFA10B1012809D0E7
:1052D0000DE0796841450AD139891FFA89F0814288
:1052E0000ED004E041467868FBF744F840B1641CF6
:1052F000A4B230888442E1D32C46012032881AE0DF
:1053000004EBC40005EB80046169206A08444FF493
:105310007A712062884200DD2162002CECD036E0F8
:1053200000EBC00105EB8101266A0B6AB34200DA8B
:105330000C46401C80B29042F2D3606810B1204607
:1053400017F039FC24F0B0FB064600254A464146DA
:105350002046656117F08EFC18B12562606978B14E
:1053600015E0204617F027FC2021204600F0D4FC51
:105370002421204600F0D0FC4FF00040206289E755
:10538000304624F08BFB606108B901206061204643
:1053900081E700000401002060010020010000807E
:1053A00010B510210C4800F0B8F917F017FC40B107
:1053B0000A4901600A4941600A4981600A49C1609D
:1053C00010BD12F00BFF0028FAD10022134607A0EF
:1053D00012F008FFFEE700007095002085C5010867
:1053E000F5C80108F9CA010851C501084F757420B4
:1053F0006F66206D656D6F727900000000210846B0
:1054000018F010BB70B50C4605460026102120464A
:1054100000F082FC2878012804D0022807D0042854
:1054200008D00BE0288C2080688C608006E0686AD9
:10543000606003E00A2060600020A0816A681AB101
:105440002146284690470646304670BD2DE9FF416B
:10545000464DC0686860C16800295ED00DF0D0F884
:10546000686890F85000400757D40026694668687D
:10547000FFF7C8FF074668680DF0C2F82E6068683D
:105480009DF80E100177012905D00078042808D175
:10549000BDF80C0088B324F007FB6968C968C1F83F
:1054A000780168680178012906D0022937D00429DB
:1054B00039D003293CD029E00446406D78B1B4F9D5
:1054C0002420BDF900108A4205D1B4F92620BDF987
:1054D00002309A4203D0BDF902201DF075FFBDF8DD
:1054E00000002084BDF802006084207F3BE000BF04
:1054F00004F11C000CF08CFE04E014E004F11C002C
:105500000CF0E0FF208CA084608CE08468680DF0D3
:1055100077F8002FAAD16E602E60BDE8FF81694642
:105520000CF064FDF2E7694668680CF029FBEDE7D2
:105530000446C06D0028E9D00299022230F821000B
:105540002084E06D029902EB8101405E6084B4F931
:105550002410B4F920209142D0D1B4F92610814210
:10556000CCD19DF80E000128C8D1C1E7E000002091
:105570007FB50D46040003D113F01AF8040025D0BE
:105580002E4EF5B10020ADF80000ADF80200204627
:1055900013F020F8401EADF80400204613F082F806
:1055A000401EADF806006A46294602A8FEF782FFB3
:1055B00000280BD0226912B102A92046904700258D
:1055C00011E0D4F874013040C4F874017FBD00BF0D
:1055D00004EBC501002202A85631FEF793FF002814
:1055E000F4D16D1CADB2D4F87401C0F30940A842E7
:1055F000EED8D4F87401C0F30941202903D204EB9A
:10560000C10002A907E03040C4F87401C0F30940AA
:1056100004EBC000694656300FF0A4F8D4F87401CA
:105620004FF4800101EBB0604FEAB010C4F8740190
:105630000321E06A22F07CFE7FBD0000FFFF00FC3A
:1056400070B50C461E461546114600F016F9AEB16F
:1056500000222946204624F0D9FF294620466268C8
:1056600024F0CEFF616819B12A46204624F0CEFF0F
:105670006560A068002800D1A56070BD294620465D
:10568000A26824F0C3FF00222946204624F0B8FF78
:10569000A16819B12A46204624F0B2FFA5606068CF
:1056A0000028EAD1656070BD70B5054600F012F8BB
:1056B00004460CE02146284600F01FF80646214625
:1056C000284600F0DAF820461BF066F93446002C34
:1056D000F0D170BD002100B141680846704700B5A7
:1056E00003460022FFF7F6FF03E01846521C00F0C5
:1056F00004F80100F9D1104600BD002802D000686E
:10570000091D40587047002801D000684058704774
:10571000002100B181680846704700224260C91C20
:1057200021F0030182600160704770B50446006893
:1057300008301BF0DDF8050013D00146002220469A
:1057400024F064FF29462046626824F059FF61680E
:1057500019B12A46204624F059FF6560A06800B9B7
:10576000A560284670BD2DE9F0410D4607002BD0FD
:1057700055B3FFF7AFFFA84204D13846FFF7D5FF76
:1057800004461EE0386808301BF0B2F804001BD055
:1057900029463846FFF7B7FF0646014622463846F7
:1057A00024F02EFF32462146384624F02FFF2246B1
:1057B0002946384624F02AFF2A462146384624F056
:1057C0001FFF2046BDE8F0810020FBE770B50446CE
:1057D000006808301BF08CF8050013D00146002249
:1057E000204624F00DFF29462046A26824F00EFF33
:1057F000A16819B12A46204624F002FFA56060681E
:1058000000B96560284670BD28B1416809B9806853
:1058100008B100207047012070472DE9F04116467D
:105820000D460746B14226D01EB11146FFF76BFF69
:1058300001E0FFF76DFF0446A5421CD0294638461B
:1058400000F01BF82A462146384624F0D9FE2246AD
:105850002946384624F0DAFE2A463146384624F0F6
:10586000D5FE32462946384624F0CAFE06B9BD6048
:10587000002C00D17D60BDE8F08170B50A46044679
:10588000FFF728FF002390420AD111462046FFF778
:1058900034FF6060011E01D0002224E0A36070BDCF
:1058A0002046FFF735FF9042114620460CD1FFF706
:1058B0002AFFA060011E05D02046BDE870400022EE
:1058C00024F09EBE636070BDFFF71DFF06461146C3
:1058D0002046FFF712FF054602463146204624F0D7
:1058E0008FFE324629462046BDE8704024F08EBE29
:1058F00010B58842029C01DC18B210BD904201DB59
:1059000020B210BD521AE41A401A604390FBF2F024
:10591000184400B210BD000070B500200D490546C6
:1059200001EBC002401CC0B295710228F8D30A4EA8
:10593000002400BF56F8340038B11BF02DF806EBF8
:10594000C40046F8345085718580641CE4B2102C84
:10595000F0D370BD8C0100208895002070B5002820
:105960001DD0012110280AD82F4B002203EBC204BE
:10597000A479E4070ED0521CD2B2022AF6D32B4CE3
:105980004FF0FF33002200BF04EBC205AE79F607EB
:1059900006D017E003EBC200817153F8320070BDEE
:1059A000AD8885420ED305D104EBC200817154F855
:1059B000320070BD002B04DB04EBC306B688B54291
:1059C00000D253B2521CD2B2102ADDD3002B05DB19
:1059D00004EBC300817154F8330070BD5FF0000523
:1059E00004EBC5029279D20709D06D1CEDB2102DDF
:1059F000F6D3002213460EA012F0F4FBFEE704EBF0
:105A0000C5029171908054F83520014610461AF075
:105A1000F1FF44F835000028DFD10022134610487A
:105A200012F0E0FBFEE700008C01002088950020CA
:105A30004E6F2066726565206275666665722E20FF
:105A4000496E637265617365204C565F44524157DD
:105A50005F4255465F4D41585F4E554D2E00000048
:105A6000044C030810B500210C4B0A4653F8314092
:105A7000844209D0491CC9B20229F7D3084B00213E
:105A800053F83140844203D103EBC100827110BD51
:105A9000491CC9B21029F3D310BD00008C010020AD
:105AA00088950020002803D00449884201D10020B5
:105AB000704750F8040C4008704700008401002033
:105AC000074906480022CA604860016847F6FC7230
:105AD00021F0010162F35F010160704788960020A8
