:020000040800F2
:10000000A0090020C1010008531C00089115000838
:10001000511C0008F1020008451E00080000000005
:10002000000000000000000000000000571C000855
:10003000F302000800000000551C0008591C0008CD
:10004000DB010008DB010008DB010008DB01000820
:10005000DB010008DB010008DB010008DB01000810
:10006000DB010008DB010008DB010008DB01000800
:10007000DB010008DB010008DB010008DB010008F0
:10008000DB010008DB010008DB010008DB010008E0
:10009000DB010008DB010008DB010008DB010008D0
:1000A000DB010008DB010008DB010008DB010008C0
:1000B000DB010008DB010008DB010008DB010008B0
:1000C000DB010008DB010008DB010008DB010008A0
:1000D000DB010008DB010008DB010008DB01000890
:1000E000DB010008DB010008DB010008DB01000880
:1000F000DB010008DB010008DB010008DB01000870
:10010000DB010008DB010008DB010008DB0100085F
:10011000DB010008DB010008DB010008DB0100084F
:10012000DB010008DB010008DB010008DB0100083F
:10013000DB010008DB010008DB010008DB0100082F
:10014000DB010008DB010008DB010008DB0100081F
:10015000DB010008DB010008DB010008DB0100080F
:10016000DB010008DB010008DB010008DB010008FF
:10017000DB010008DB010008DB01000800000000D3
:10018000DB010008DB010008DB010008DB010008DF
:10019000DB010008DB010008DB010008DB010008CF
:1001A000DB010008DB010008DB010008DFF80CD0F0
:1001B00000F08CF8004800479D220008A0090020AC
:1001C0000648804706480047FEE7FEE7FEE7FEE7F1
:1001D000FEE7FEE7FEE7FEE7FEE7FEE7011D00089B
:1001E000AD0100082DE9F05F0546002092469B46D0
:1001F00088460646814640241BE02846414647463D
:10020000224600F053F853465A46C01A914110D383
:1002100011461846224600F03AF82D1A67EB0108FD
:100220004F4622460120002100F031F817EB00096B
:100230004E41201EA4F10104DFDC484631462A4627
:100240004346BDE8F09F40EA01039B0703D009E065
:1002500008C9121F08C0042AFAD203E011F8013BB2
:1002600000F8013B521EF9D27047D2B201E000F80B
:10027000012B491EFBD270470022F6E710B513464A
:100280000A4604461946FFF7F0FF204610BD202A13
:1002900004DB203A00FA02F1002070479140C2F1DD
:1002A000200320FA03F3194390407047202A04DB0F
:1002B000203A21FA02F00021704721FA02F3D040DF
:1002C000C2F120029140084319467047064C074D81
:1002D00006E0E06840F0010394E807009847103416
:1002E000AC42F6D3FFF766FFE422000804230008BF
:1002F000FEE77047704730B5D1E901231A43D1E9D1
:1003000003352B431A434B690C681A438B691A4314
:10031000D1E90735012C496A046807D01A432A43FA
:100320006FF30E040A43224302600AE024F4F84407
:100330002B4321430B43416803606FF30E010A43D3
:100340004260002030BD426942EA41014161002023
:100350007047F8B514460546D1E9000210438A6893
:100360006FF01F03C96803EB421242EA41210843C0
:100370000090286100F04CFA064609E0601C07D0A6
:1003800024B100F045FA801BA04201D90320F8BD3A
:10039000A8698006F2D40020F8BD0000F0B56FF027
:1003A0000F05D1E9003405EB04145B1E23432E0135
:1003B0008C682F0306EB042423434FEA054C0C8A78
:1003C0008E8ACD68097E4FF07F4E07EB04440CEB1C
:1003D00006560EEB0161012A0CD082683F1107EB33
:1003E00005352B432343334302F070420B43134341
:1003F00083600FE08768084A17402A03A2F58052FD
:100400003243C5683A43234305F070450B432B4301
:100410008260C3600020F0BDFF0F0FFF70B590F841
:100420003820012A24D0012680F83860022280F882
:10043000392000EB0112148CD369183243EA0445C9
:100440001E4C0A2B16D0092B14D0137B45EA0363EC
:100450000029016813D0CD69A5431D43CD61036810
:100460001168196151680A291BD0092919D01DE0AA
:10047000022070BDD36803F07F432B43E8E74D6A49
:10048000A5431D434D6203681168996151680A29AB
:1004900001D009290AD1D168026821F07F41916217
:1004A00004E0D168026821F07F41116280F8396070
:1004B000002180F83810084670BD00000F0003FFCF
:1004C00070B5040004D094F83900002510B106E09E
:1004D000012070BD84F83850204600F01FF802203B
:1004E00084F8390020680168626821F440311143C2
:1004F00001602068416BA26821F00701114341634C
:100500002068016CE2686FF30D0111430164E5633B
:10051000012084F83900002070BD000008B5006893
:100520000649884208D10648016841F4000101608B
:10053000006800F40000009008BD000000B0024018
:100540003038024070B5044600F062F90546601C80
:1005500002D004480078044400F05AF9401BA0423D
:10056000FAD370BD10000020F0B587B014216846A2
:10057000FFF782FE25480168002944D1012101606E
:1005800023480024016841F0010101600068022550
:1005900000F0010005904FF63F00CDE9000502AAEA
:1005A00003260C2782E8D00069461A4800F03CF880
:1005B0000D20CDE9000502AA694682E8D000164860
:1005C00000F032F848F23710CDE9000502AA69467A
:1005D00082E8D000114800F027F84FF68370CDE98B
:1005E000000502AA694682E8D0000D4800F01CF818
:1005F0004CF20370CDE9000502AA694682E8D000FA
:10060000084800F011F807B0F0BD0000000000201D
:10061000383802400014024000080240001802402E
:1006200000100240000C02402DE9F84F00224FF06C
:10063000010803254FF00F0E0B6808FA02F423405F
:10064000A3426ED14E68012E05D0022E03D0112E8A
:1006500001D0122E12D186684FEA420C05FA0CF72F
:10066000BE43CF6807FA0CF7374387604668A64356
:100670000C79C4F30014944034434460C6685700B6
:1006800005FA07FC8C6826EA0C06BC403443C460BB
:100690004C68022C01D0122C13D1D40800EB840436
:1006A000A346D4F8209054074FEAD46A0EFA0AF60B
:1006B00029EA06090E6906FA0AF646EA0906CBF89F
:1006C000206004680E7924EA0C0406F00306BE409C
:1006D000264306604C68E4006FD53B4C266846F420
:1006E00080462660246822F0030604F480440094C7
:1006F000364C3444A446D4F808489607360F0EFA10
:1007000006F7BC43324FB84201D100272EE0314FEB
:10071000B84201D1012729E02F4FB84202D1022768
:1007200024E04AE02D4FB84201D103271EE02C4FB0
:10073000B84201D1042719E02A4FB84201D1052758
:1007400014E0294FB84201D106270FE0274FB842E5
:1007500001D107270AE0264FB84201D1082705E05A
:10076000244FB84201D1092700E00A27B7402743A8
:10077000CCF80878204E34684F689C43FF0300D5BE
:100780001C4334601C4E361D34684F689C43BF03C5
:1007900000D51C433460184E083634684F689C43BB
:1007A000FF0200D51C433460134E0C3634684F688A
:1007B0009C43BF0200D51C433460521C102AFFF436
:1007C0003BAFBDE8F88F00004438024000300140E4
:1007D000000002400004024000080240000C0240F9
:1007E000001002400014024000180240001C0240A9
:1007F0000020024000240240003C01400069084003
:1008000000D0012070470AB1816170470904FBE7FD
:10081000014880687047000010000020024881688D
:100820000278114481607047100000200B4810B519
:10083000016841F400710160016841F48061016068
:10084000016841F480710160032000F0CBF90020C1
:1008500000F006F800F08EF9002010BD003C0240C8
:1008600070B50D4D04464FF47A712878B1FBF0F065
:100870000A490968B1FBF0F000F00EFE48B9102CEF
:1008800007D200222146501E00F08CF900206C6037
:1008900070BD012070BD0000100000201C00002071
:1008A0002DE9F041044690F8A00016460F460128B5
:1008B0001DD0012584F8A050022084F8A10006EB89
:1008C000860000EBC60004EB800034223830FFF7CE
:1008D000BAFC32463946204600F084FF2068456263
:1008E00084F8A150002084F8A000BDE8F081022027
:1008F000FBE7000070B5040004D094F8A1000025C7
:1009000010B106E0012070BD84F8A050204600F030
:100910006BF8022084F8A1002068816921F0704101
:100920008161D4E901010843D4E90312114308436A
:1009300021688A691043886121688A6829480240D1
:100940008A60A18A0A0421688B68A669334313432D
:100950008B602168CA680240CA60A18B0B042168C1
:10096000CA68266A32431A43CA6021680A6902408B
:100970000A61A18C22680B041169A66A31431943EC
:10098000116121684A6902404A61A08D0104206812
:100990004269236B1A430A43426194F83500216887
:1009A000020294F83600CB6A03F07F43CB622168E1
:1009B000CB6A94F8346042EA004033430343CB628D
:1009C0002068416B41F0060141632068816941F074
:1009D00001018161C4F8A450012084F8A100002025
:1009E00070BD000000F800F070B586B00446142118
:1009F0006846FFF741FC2F492068884258D12E48AD
:100A00000024016841F080610160006800F08060AE
:100A1000059029481438016841F48071016001682B
:100A200001F480710591016841F0200101600168C5
:100A300001F020010591016841F080010160016829
:100A400001F080010591016841F0400101600068FA
:100A5000022500F04000059040F2F7600090CDE9DB
:100A600001540E26CDE9034669461448FFF7DCFD24
:100A700068020090CDE90154CDE90346694610486B
:100A8000FFF7D2FD4FF47E400090CDE90154CDE94F
:100A9000034669460B48FFF7C7FD4FF40C60009012
:100AA000CDE90154CDE9034669460748FFF7BCFD8F
:100AB00006B070BD0068014044380240002002408A
:100AC00000140240001C02400018024070B50446A9
:100AD00090F8A0000E46012820D0012584F8A050EF
:100AE000022084F8A10003EB830000EBC30004EBB9
:100AF000800141F8386F886A3044C1E90102C86A50
:100B00001044C8601A46204600F06CFE206845621A
:100B100084F8A150002084F8A00070BD022070BDB0
:100B200070B5044690F8A0000E46012820D001259B
:100B300084F8A050022084F8A10003EB830000EBAE
:100B4000C30004EB800151F8380F304448608868D6
:100B50001044C860C1E90A621A46204600F042FE0D
:100B60002068456284F8A150002084F8A00070BD80
:100B7000022070BD0A4808B5016841F48041016057
:100B8000006800F4804000900548001F016841F0B3
:100B900080510160006800F08050009008BD0000A6
:100BA00044380240F0B40E4B1B680C46C3F30223DA
:100BB000C3F10705042D00D90425191D072901D209
:100BC000002300E0DB1E012606FA05F1491E214044
:100BD00099409E40761E16403143F0BC01F044B966
:100BE0000CED00E0064900F0070208684FF6FF032D
:100BF000184040EA0220034A104308607047000092
:100C00000CED00E00000FA052DE9F84317480168F3
:100C100041F0805101600068154F00F080500126BE
:100C200000903E64FFF7F4FD05464FF47A78114CCE
:100C300005E000BFFFF7ECFD401B40450DD86068A4
:100C4000C003F7D57E64FFF7E3FD0546464607E09F
:100C5000FFF7DEFD401BB04202D90320BDE8F88358
:100C600060688003F4D50020F8E7000040380240B7
:100C700000000E42007000402DE9F84F0446006865
:100C8000DFF824A2894F8A4DC1074FF001084FF0C9
:100C9000000603D1810701D4400648D5CAF8686030
:100CA000FFF7B6FD814605E0FFF7B2FDA0EB0900B6
:100CB00002287DD828680001F6D42078C1077D4835
:100CC00005D06168227A890141EA027101602178C8
:100CD000890711D501686268237B9201C1F3027113
:100CE00042EA036242EA017101603968E26921F077
:100CF0001F01521E114339602178490608D56168E9
:100D0000227B890141EA0261227A41EA0271016093
:100D1000CAF86880FFF77CFD814605E0FFF778FDA3
:100D2000A0EB0900022843D828680001F6D5206806
:100D3000410701D400074ED5CAF87060FFF768FD7F
:100D4000814605E0FFF764FDA0EB090002282FD8DB
:100D50002868C0438000F5D520784107564814D54F
:100D600001682269237D9201C1F3027142EA0362A4
:100D700042EA017101603968226A6FF0FF0321F4D1
:100D8000F85103EB0222114339602178090712D58B
:100D900001682269C1F30361920142EA0161227E86
:100DA00041EA027101603868616A20F4403000E075
:100DB00051E008433860CAF87080FFF729FD074604
:100DC00005E000BFFFF724FDC01B022843D82868B8
:100DD000C0438000F6D42078800653D53448403094
:100DE000016841F0805101600068344D00F080508E
:100DF0000090286840F480702860FFF709FD0746DE
:100E000005E000BFFFF704FDC01B022823D82868B7
:100E1000C005F7D5274D143D286810F4407020D048
:100E2000218D01F4407181421BD0286820F440716B
:100E30002348C0F80080066029602868C00710D0E9
:100E4000FFF7E6FC064641F2883707E0FFF7E0FCD3
:100E5000801BB84202D90320BDE8F88F28688007BC
:100E6000F4D5A16A1248C1F301220830032A13D035
:100E7000016821F4F81101602868218DC1F30B018C
:100E8000084328602078C00604D50E4994F82C0049
:100E9000C1F8E0010020DFE702680B4B22F4F812F2
:100EA00019400A430260E7E7000047428C380240DD
:100EB0000038024084380240883802400070004008
:100EC000400E474200104742FFFCFF0F2DE9F0475C
:100ED0000E46050065D0DFF81481D8F80000F7B29F
:100EE00000F00F00B04207D288F80070D8F8000078
:100EF00000F00F00B04254D128683D4C810712D554
:100F0000400703D5206840F4E050206028780007AF
:100F100003D5206840F4604020602068A96820F074
:100F2000F000084320602878C0072DD03049686859
:100F30000839012812D0022813D0032811D00968DB
:100F4000890700292DDA216821F00301014321607E
:100F5000FFF75EFC814641F2883A0EE0096889039A
:100F6000EFE709688901ECE7FFF752FCA0EB090104
:100F7000514502D90320BDE8F0872068696800F078
:100F80000C00B0EB810FEFD1D8F80010404601F013
:100F90000F01B14207D90770006800F00F00B0429E
:100FA00001D00120E7E72878400705D52068E968E7
:100FB00020F4E050084320602878000706D5206818
:100FC000296920F4604040EAC100206000F038F850
:100FD0002168084AC1F30311515CC8400649086002
:100FE00006480068FFF73CFC0020C4E7003C0240D4
:100FF00008380240CA2200081C000020140000200B
:101000000448054900680968044AC1F38221515C1B
:10101000C84070471C00002008380240DA2200084F
:101020000448054900680968044AC1F34231515C2B
:10103000C84070471C00002008380240DA2200082F
:10104000154810B5006810F00C02144813D014496C
:10105000042A0FD0082A0ED10F4C241F22682368BF
:1010600002F03F025B0207D52068C0F38810A0FBA6
:10107000010106E0084610BD2168C1F38811A1FBFB
:1010800000010023FFF7AEF82168C1F30141491CBC
:101090004900B0FBF1F010BD083802400024F40014
:1010A00040787D012DE9F84F04006ED02078DFF8FC
:1010B0003C93C007A9F104054AD009F10400016876
:1010C000C1F38101012908D00068C0F38100022822
:1010D0000AD1D9F80000400206D52868800337D528
:1010E00060680028E1D033E06068B0F5803F10D040
:1010F000B0F5A02F286810D020F480302860286830
:1011000020F4802028606068A8B1FFF781FB0646C4
:101110000DE0286840F48030F4E740F48020286037
:10112000F7E700BFFFF774FB801B642873D82868BB
:101130008003F7D50CE0FFF76BFB064605E000BF28
:10114000FFF766FB801B6428F0D828688003F7D47B
:101150002078DFF89C8280074FF0000A3ED5A34834
:10116000001D016811F00C0F08D00068C0F3810069
:1011700002280BD1D9F80000400207D42868800764
:1011800016D5E068012800D112E02BE1E068B8B183
:101190000120C8F80000FFF73BFB064605E000BF52
:1011A000FFF736FB801B0228C0D828688007F7D5D8
:1011B0002868216920F0F80040EAC10028600DE0AD
:1011C000C8F800A0FFF724FB064604E0FFF720FB69
:1011D000801B02281FD828688007F7D420780007D2
:1011E00022D5824E83486169703671B10121016058
:1011F000FFF70EFB074604E0FFF70AFBC01B0228BF
:1012000009D830688007F7D50EE0C0F800A0FFF7D6
:10121000FFFA074605E082E0FFF7FAFAC01B022852
:101220007DD830688007F7D42078400768D5DFF88C
:10123000BCB100270BF13C0BDBF80000C0000BD465
:10124000DBF8001041F08051CBF80010DBF8000013
:10125000012700F080500090674E3068C00510D420
:10126000306840F480703060FFF7D2FA009005E0FB
:10127000FFF7CEFA0099401A022850D83068C0050E
:10128000F6D55A4EA0686C3601280FD00528306874
:1012900010D020F001003060306820F00400306091
:1012A000A068B8B1FFF7B4FA00900FE0306840F0E2
:1012B0000100F4E740F004003060F7E7FFF7A8FA18
:1012C0000099411A41F28830814266D8306880071F
:1012D000F4D50EE0FFF79CFA009007E0FFF798FACC
:1012E0000099411A41F28830814256D8306880070F
:1012F000F4D42FB1DBF8001021F08051CBF80010AE
:10130000A069C8B33949091D0968C1F381010229DF
:101310004AD00228504607D0C8F8600000E03CE000
:10132000FFF776FA04463BE04746C8F86000FFF74F
:101330006FFA064605E000BFFFF76AFA801B022835
:101340002BD828688001F7D4D4E907010843A16AA3
:101350002A4A490802EB0141626A41EA82110843C4
:1013600094F82C1040EA0161C9F800100120386699
:10137000FFF74EFA044606E036E000BFFFF748FAF2
:10138000001B022809D828688001F7D52CE000BF8F
:10139000FFF73EFA001B022802D90320BDE8F88FB0
:1013A00028688001F4D41FE00128F7D0D9F80000A4
:1013B000E26900F48001914214D1226A00F03F01F9
:1013C00091420FD147F6C071626A0140914209D142
:1013D000A26A00F44031914204D1E16A00F07060E9
:1013E000884201D00120D9E70020D7E70438024025
:1013F00000004742800E4742007000400000FFFF9F
:1014000070B50D46040003D094F82C0010B107E02D
:10141000012070BD002084F82D00204600F011F856
:10142000022084F82C00211D2068FEF764FFD4E917
:1014300000022946FEF7B2FF012084F82C000020AC
:1014400070BDFFF791B810B5044690F82C00022843
:1014500009D0022084F82C002068FEF774FF0120D8
:1014600084F82C00002010BD70B5044690F82C00C4
:101470000D4602280DD0022084F82C002068FEF7CB
:1014800068FF2868022805D05FF0010084F82C006E
:10149000002070BD0520F9E710B5401EB0F1807F37
:1014A00001D3012010BD4FF0E02460610F216017CF
:1014B00000F0DAFC0020A06107202061002010BDB0
:1014C00070B5040004D094F83900002510B106E08E
:1014D000012070BD84F83850204600F023F8242005
:1014E00084F839002068C16821F40051C1602046A9
:1014F00000F014FC2068016921F49041016120682A
:10150000416921F02A0141612068C16841F400511C
:10151000C160E563202084F8390084F83A00002097
:1015200070BD000010B586B0044614216846FEF771
:10153000A3FE14492068884221D113480021026883
:1015400042F010020260006800F0100005900E48A2
:101550001438026842F001020260006800F00100E5
:1015600005904FF4C06000900220CDE901010320F6
:1015700003900720049069460448FFF755F806B029
:1015800010BD00000010014044380240000002403D
:10159000FEE7000008B500900548018BC08A491E8F
:1015A0008BB2401E82B20021084600F025F808BD2B
:1015B0009800002000B58DB0082309920490009394
:1015C00006916846FFF758FB002800D001200DB0B7
:1015D00000BD000007490A464875938812889BB2EF
:1015E00092B220B1012801D1CA820B837047CB820D
:1015F0000A837047980000202DE9F843274DDDF855
:10160000209000266C7D0CB1044606E06F680C4605
:10161000B91A1A463B1A491E5B1E286895F814C071
:10162000DFF87C80171BC21B58F82CC0ED6900FB4B
:10163000014005FB00C41B48521E92B2056845F4E8
:1016400000050560006800F4000000901648056879
:1016500025F0010505604FF440350560022545631E
:101660000264C463EA03591A02EB0742491C11439E
:101670004164C0F83890016841F00101016029051A
:1016800002E0761C8E4202D242689207F9D5816848
:1016900041F002018160BDE8F8830000980000205D
:1016A000080000203038024000B002402DE9F0432D
:1016B0008DB0144614AA134E92E8801300220092B3
:1016C0000292356801957668CDE904434FEA082314
:1016D000CDE9067303964FEA09230DF1240E089312
:1016E0008EE862008DF832208DF8312002460548E0
:1016F0008DF830C069462030FFF7D2F80DB0BDE854
:10170000F08300009800002070B51E460446034692
:101710000548049DFFF7DAF923462A463146BDE81D
:1017200070400148FFF7FCB9B800002030B52A48E6
:1017300087B00021026842F040020260026802F0B5
:1017400040020592026842F4807202600068234CF5
:1017500000F4807005904020CDE900010120029046
:101760000320039069462046FEF75EFF84201C4D4F
:10177000009069462846FEF757FF40212046FFF7B4
:101780003DF8044604212846FFF738F844EA4004AF
:1017900080212846FFF732F844EA800010F0FF006D
:1017A0000AD001280BD002280CD003280DD0042821
:1017B0000ED0002007B030BD44F24230FAE747F2C5
:1017C0008400F7E747F21600F4E747F21800F1E764
:1017D00048F21700EEE700003038024000180240DF
:1017E00000200240F0B503688C88DD68C5F30B4526
:1017F0002C442504882404EBC2141E5906F47046B8
:101800001E5103680F68DE68C6F30B46761C3E4423
:101810002E431E5104688B89E568C5F30A052B44E5
:101820001D048C2303EBC213E65806F47046E65001
:1018300004688F68E668C6F30A06761C3E442E43A9
:10184000E6509423046803EBC213E55825F007051E
:10185000E55005680C69EC5091F831300C7E1F02A0
:1018600026069C24056804EBC21491F8323055F822
:1018700004C04FF0000C45F804C091F8305046EA1F
:1018800003433D431D4303681D519823046803EB44
:10189000C213E55825F0FF05E55005684C69EC508A
:1018A000A023046803EBC213E55840F20776B54362
:1018B000E550D1E907452C430568EC50AC2304689A
:1018C00003EBC213E55844F803C005684C6AEC50BA
:1018D0000B698BB3012B32D0042B32D0022B30D0CA
:1018E000032B2ED0072B2CD00123B024056804EB4A
:1018F000C2142E5906F0E0262E51D1E90065AD1B29
:101900000E8D5D435E43ED1C45EA064305682B5191
:10191000B423046803EBC213E5586FF30A05E550DE
:101920000468C96AE1500068842101EBC211425881
:1019300042F001024250F0BDFFE70423D5E7032344
:10194000D3E70223D1E700000E4810B50C4901602F
:10195000002141608160C1608162C16201634163B5
:10196000FEF7AEFD08B1FEF7C5FC01210548FEF704
:1019700055FD002803D0BDE81040FEF7BBBC10BDEC
:1019800000B002402400002000B587B01C2168464A
:10199000FEF772FC15481449012201600021C0E9DC
:1019A000011208221023C0E90323402343614FF4AE
:1019B000C073C0E906311302C0E9083191028162A7
:1019C000022006210090CDE9012103910421CDE9F7
:1019D0000410069069460548FFF712FD002801D063
:1019E000FEF788FC07B000BD400100A064000020A5
:1019F00030B587B014216846FEF73EFC2D48002420
:101A0000016841F480710160016801F48071059101
:101A1000016841F020010160016801F02001059199
:101A2000016841F080010160016801F080010591C9
:101A3000016841F004010160016801F004010591B1
:101A4000016841F040010160016801F04001059129
:101A5000016841F010010160016801F01001059179
:101A6000016841F008010160016801F00801059179
:101A7000016841F001010160016801F00101059177
:101A8000016841F00201016000680B4D00F00200A6
:101A90000590002220212846FEF7B5FE2020009068
:101AA0000120CDE90104694628460394FEF7BCFDF8
:101AB00007B030BD303802400004024070B59AB023
:101AC00034216846FEF7D8FB34210DA8FEF7D4FB7D
:101AD000314830490024C0E9001484601321C460F7
:101AE000C0E90441022181619F21C1611621016287
:101AF00040F29F41416240F26E21816240F23F51CB
:101B0000C16240F27A21016380F8344080F83540A8
:101B100080F83640FEF7EEFE08B1FEF7EBFB0094CE
:101B200006A801940294039404944FF4806505265A
:101B3000059480E870008DF830408DF831400994AC
:101B40000A940B948DF83240002269461248FEF741
:101B5000A7FE08B1FEF7CEFB0D9413A80E940F94C8
:101B600010941194129480E870008DF864408DF800
:101B700065401694179418948DF8664001220DA9BB
:101B80000548FEF78DFE002801D0FEF7B3FB1AB022
:101B900070BD000000680140B8000020F0B585B0BD
:101BA000012500241026CDE90056CDE902542F036B
:101BB00004943A4669461748FFF756FC0120FEF7A1
:101BC000C1FC0220CDE90006CDE902543A4669463F
:101BD0001048FFF749FC0320CDE900060820CDE9B5
:101BE00002043A4669460B48FFF73EFC4FF40C707E
:101BF0000421CDE90016CDE9025004903A46694629
:101C00000448FFF731FC40F2AB210248FFF71BFC10
:101C100005B0F0BD640000200C4810B50A49016011
:101C20004FF4E1314160002181600C22C160C0E9C4
:101C300004128161C161FFF743FC002803D0BDE8B5
:101C40001040FEF757BB10BD00100140600100209E
:101C5000FEE7704770477047FEF7E0BD70B59EB075
:101C600030216846FEF708FB142118A8FEF704FB94
:101C700030210CA8FEF700FB1F480025016841F049
:101C800080510160006800F080501D901B48016881
:101C900041F4404101600068022400F440401D907E
:101CA00001200090000401908001CDE906400F263C
:101CB0000896D820CDE9090404200B906846FFF768
:101CC000F1F9FEF7A1FF4FF4A050CDE91A50E00260
:101CD000CDE918641C90052118A8FFF7F7F8082033
:101CE0000C90C62010900520129015950CA8FEF7B8
:101CF000C3FF1EB070BD00004038024000700040BD
:101D00000548016841F47001016003494FF000602B
:101D1000803908607047000088ED00E02DE9F0414F
:101D2000044600680169E26821F4405111430161F1
:101D30002169A068E2690843616911430843216889
:101D4000CA6849F20C639A430243CA602068416939
:101D5000A26921F4407111434161E06919276425AA
:101D60003226B0F5004F354A354920684FF000085B
:101D700006D0884201D0904236D1FFF751F935E0C4
:101D8000884201D0904202D1FFF74AF901E0FFF703
:101D900037F961684A18A0FB070148EB0803FEF712
:101DA00021FA0146B0FBF5F00201B1FBF5F06FF04E
:101DB0001803584301EB800006EBC000B0FBF5F0C0
:101DC00000F0F80002EB4002B1FBF5F0584301EBE4
:101DD000800006EBC000B0FBF5F000F007002168C2
:101DE00010448860BDE8F081FFF70AF961688B0F45
:101DF0008A00A0FB0701FEF7F5F90146B0FBF5F0FC
:101E00006FF01802504301EB800006EB0010B0FBAE
:101E1000F5F000F0F002B1FBF5F002EB0012B1FBBF
:101E2000F5F06FF01803584301EB800006EB00104B
:101E3000B0FBF5F000F00F00D1E700000014014006
:101E400000100140FEE700000FB4054B10B503A9D8
:101E5000044A029800F028F810BC5DF814FB00005A
:101E600069210008200000200907090E002804DB72
:101E700000F1E02080F80014704700F00F0000F13E
:101E8000E02080F8141D704702E008C8121F08C146
:101E9000002AFAD170477047002001E001C1121FEB
:101EA000002AFBD1704700002DE9FF4F8DB09B4603
:101EB0000F460446002606E025280BD05A460F9907
:101EC0009047641C761C20780028F5D111B030466C
:101ED000BDE8F08F0025A8460122984900E005439F
:101EE00014F8013F203B02FA03F00842F7D12078B2
:101EF0002E2817D114F8010F45F004052A280ED01A
:101F00006FF02F022078A0F1300109290AD808EBE0
:101F1000880102EB410100EB0108641CF2E757F86D
:101F2000048B641C20786C280DD004DC4C2812D063
:101F30006A2811D104E074280DD07A280CD10AE067
:101F400045F4001507E0617845F48015814202D11F
:101F5000641C05F58015641C2278692A45D008DCCC
:101F6000002AB3D0582A69D0632A10D0642A08D135
:101F70003BE0702A67D0732A13D0752A5CD0782A88
:101F80005CD010465A460F999047761CD3E017F85C
:101F9000040B8DF8000000208DF80100E9460120B7
:101FA00003E057F8049B4FF0FF3069074FF000053E
:101FB00001D40AE06D1C45450DDA8542FADB19F8BB
:101FC00005100029F6D106E06D1C8542FCDB19F8EE
:101FD00005100029F8D12E4404E019F8010B5A46E7
:101FE0000F9990476D1EF8D2A5E00A200021CDE997
:101FF0000801C5F3025002280DD001CFC117031EFE
:1020000071F100030DDA4FF0000CD0EB0C006CEB1B
:1020100001012D2308E0FF1D27F00707F7E8020163
:10202000EDE72B0504D52B238DF8283001233BE069
:10203000EB0739D02023F7E70A2000E01020002129
:10204000CDE9080107E01020002145F00405CDE9A5
:1020500008014FF00808C5F3025002280FD001CF45
:1020600000214FF0000A2B071FD5702A0DD0DDE9A3
:1020700008C38CF0100C5CEA030C0CD015E0FF1DBB
:1020800027F00707F7E80201EBE740228DF8282048
:102090004FF0010A0BE050EA010306D030238DF81F
:1020A00028308DF8292002239A46582A04D024A2E9
:1020B0000DF120090B9209E026A2F9E7DDE90823DA
:1020C000FEF790F80B9B9B5C09F8013D50EA01027A
:1020D000F4D1ADEB090020300890680701D44FF02F
:1020E00001080899884502DDA8EB010000E0002006
:1020F0008046002506E00AA85A46405D0F999047A1
:102100006D1C761C5545F6DB04E030205A460F99CD
:102110009047761CB8F10001A8F10108F5DC05E054
:1021200019F8010B5A460F999047761C0899481EDA
:1021300008900029F4DC641CC5E6000009280100B1
:10214000303132333435363738396162636465662D
:1021500000000000303132333435363738394142EF
:10216000434445460000000003490A685206FCD576
:10217000C2B24A6070470000001001402DE9FF41E3
:10218000FFF7D4FA01463CA0FFF75EFE3E4C4FF449
:102190008060032120604FF416706060142020815D
:1021A00061818C21A181E081A02020820C206082AD
:1021B00000220521C620FFF7FDF90220344EE06120
:1021C0003248306004F1200032490025C0E9001592
:1021D0008560C560056121894A1E42616289531E7E
:1021E0008361A38919444B1EC361E3891A44531EBA
:1021F000036223685F1E0F4447626768A7F1010C02
:102200009444C0F828C0B4F810C063441944491E6F
:10221000C162618A39441144491E016380F8365015
:1022200080F8355080F83450FEF764FB0720062113
:10223000CDE90205CDE90051FF23022200203168DB
:10224000FFF734FAA088002280B20090208811465F
:1022500083B21046FFF758FA0020FFF7BBF9257547
:10226000012220210C48FEF7CEFA04B0681EBDE81A
:10227000F041FFF78FB90000696E6974206C6364E8
:102280003A25780D0A00000098000020000000C0E8
:10229000080000200068014000040240FEF7C6FA72
:1022A000FFF7DCFCFFF7A4FBFFF708FCFFF76CFB74
:1022B000FFF74AFBFFF7B0FCFFF770FCFFF75EFF8C
:1022C0004FF47840FFF766F9FEE7000000000000D9
:1022D00000000102030406070809000000000102D3
:1022E0000304000004230008000000202400000074
:1022F000881E000828230008240000207C09000014
:10230000981E00080000000000000000000000000F
:1023100000000000010000001000000000000000AC
:082320000024F400000000009D
:04000005080001AD41
:00000001FF
