:020000040800F2
:1000000078AA0020C10100085B3E0008E93500081D
:10001000573E00087704000823570008000000003E
:10002000000000000000000000000000AF500008C9
:1000300089050008000000005D3E0008B15000087E
:10004000DB010008DB010008DB010008DB01000820
:10005000DB010008DB010008DB010008DB01000810
:10006000DB010008DB010008DB010008DB01000800
:10007000DB010008DB010008DB010008DB010008F0
:10008000DB010008DB010008DB010008DB010008E0
:10009000DB010008DB010008DB010008DB010008D0
:1000A000DB010008DB010008DB010008DB010008C0
:1000B000DB010008D3510008DB010008DB01000868
:1000C000DB010008DB010008DB010008DB010008A0
:1000D000DB010008DB010008DB010008DB01000890
:1000E000DB010008DB010008DB010008DB01000880
:1000F000DB010008DB010008DB010008DB01000870
:10010000DB010008A93E0008DB010008DB01000854
:10011000DB010008DB010008E9510008DB010008F1
:10012000DB010008DB010008DB0100088B0400088C
:10013000DB010008DB010008DB010008DB0100082F
:10014000DB010008DB010008DB010008DB0100081F
:10015000DB0100089B040008DB010008DB0100084C
:10016000DB010008DB010008DB010008DB010008FF
:10017000DB010008DB010008DB01000800000000D3
:10018000DB010008DB010008DB010008DB010008DF
:10019000DB010008DB010008DB010008DB010008CF
:1001A000FB360008DB0100087B040008DFF80CD0F8
:1001B00000F0B8F800480047276A020878AA002033
:1001C0000648804706480047FEE7FEE7FEE7FEE7F1
:1001D000FEE7FEE7FEE7FEE7FEE7FEE7AB510008BD
:1001E000AD0100082DE9F05F0546002092469B46D0
:1001F00088460646814640241BE02846414647463D
:10020000224600F07EF853465A46C01A914110D358
:1002100011461846224600F065F82D1A67EB0108D2
:100220004F4622460120002100F05CF817EB000940
:100230004E41201EA4F10104DFDC484631462A4627
:100240004346BDE8F09F40EA01039B0703D009E065
:1002500008C9121F08C0042AFAD203E011F8013BB2
:1002600000F8013B521EF9D27047D2B201E000F80B
:10027000012B491EFBD270470022F6E710B513464A
:100280000A4604461946FFF7F0FF204610BD421CFF
:1002900010F8011B0029FBD1801A704710B500220D
:1002A00000E0521C835C8C5CA34201D1002BF8D18E
:1002B000D8B2E1B2401A10BD30B504460020034662
:1002C00000E05B1C934203D2E05CCD5C401BF8D0A5
:1002D00030BD034611F8012B00F8012B002AF9D19B
:1002E00018467047202A04DB203A00FA02F1002069
:1002F00070479140C2F1200320FA03F31943904064
:100300007047202A04DB203A21FA02F000217047CE
:1003100021FA02F3D040C2F120029140084319466D
:1003200070470000064C074D06E0E06840F001030E
:1003300094E8070098471034AC42F6D3FFF73AFF31
:10034000105304083053040870B58C1810F8015B82
:1003500015F0070301D110F8013B2A1106D110F85E
:10036000012B03E010F8016B01F8016B5B1EF9D162
:100370002B0705D40023521E0DD401F8013BFAE7E8
:1003800010F8013BCB1A921C03E013F8015B01F853
:10039000015B521EF9D5A142D8D3002070BD704731
:1003A00010B50446214640F6A430C2F2000002F027
:1003B000BEF910BD10B540F6A430C2F2000002F044
:1003C000C9F9042801D0012010BD0020FCE710B5B8
:1003D000002400F018F8012801D0012010BD40F6DB
:1003E000A430C2F2000002F0D8FA04464CB94FF42F
:1003F000006140F6A430C2F2000002F05EF800B1E5
:1004000001242046EAE708B5012000909DF800008D
:1004100008BD2DE9F84304460D4616461F464FF029
:10042000000833462A46214640F6A430C2F20000B6
:10043000009702F0F6FB08B14FF001084046BDE816
:10044000F88370472DE9F84304460D4616461F46CB
:100450004FF0000833462A46214640F6A430C2F247
:100460000000009702F05CFD08B14FF00108404623
:10047000BDE8F883704700BFFEE710B540F688205E
:10048000C2F2000000F0EEF910BD10B540F62840B1
:10049000C2F2000000F006FB10BD10B540F6884027
:1004A000C2F2000000F0FEFA10BD014608781038D4
:1004B0001823B0FBF3F24CF2E270C0F60200805C4D
:1004C000C865032A05D908686FF30900001D88650F
:1004D00003E008686FF309008865886D704701467E
:1004E00000208A6A8B69CBB932B1012A0DD0022A69
:1004F00003D0032A10D10EE000BFCB6A03F0807353
:10050000B3F1807F00D1012007E0CB6AB3F1C07F57
:1005100000D1012001E000E000BF34E08B69B3F5B9
:10052000005F1AD132B1012A07D0022A03D0032A70
:1005300011D10AE000BF01200EE0CB6A03F0807306
:10054000B3F1807F00D1012006E0CB6AB3F1C07F18
:1005500000D1012000E000BF15E032B1012A05D032
:10056000022A04D0032A0CD103E000BF00BF0120FF
:1005700008E0CB6A03F08073B3F1807F00D10120E3
:1005800000E000BF00BF70477047704730B50446B9
:100590000D4600222946204600F001F830BDF0B596
:1005A00003460125002440F66850C2F20000407A5C
:1005B000012822DA002040F66856C2F20006767A58
:1005C00040F66857C2F20007B8553846467A001D13
:1005D00040F82630001F467A083082553E46707A31
:1005E000461C7E72044604F1300008703A204870C0
:1005F0002F2088700020C87000252846F0BD30B537
:100600000246002300240868012816D013686FF3FF
:100610000E03D1E901052843CD6828430D6928431D
:100620004D6928438D692843CD6928430D6A2843C5
:100630004D6A28430343136019E0136823F4F84319
:10064000D1E9070528434D6A2843034354686FF3F3
:100650000E04D1E901052843CD6828430D692843DC
:100660004D6928438D69284304431360546000207A
:1006700030BD0246506940EA410050610020704799
:10068000F8B506460C461546002000900027D4E930
:1006900000010843A168491E40EA4110E16840EAB0
:1006A000412000900098306100F064FD074609E0A9
:1006B000681C38B125B100F05DFDC01BA84201D90E
:1006C0000320F8BDB06900F020002028F0D0002001
:1006D000F7E770B50346154600220024012D1FD010
:1006E0009A6802F070420868401E4E68761E40EA22
:1006F00006168868401E46EA0026C868401E46EA7C
:100700000036088A401E46EA0046888A401E46EAAD
:100710000056087E401E46EA006002439A6024E0CC
:100720009A6822F4704222F47002C868401E0603E0
:10073000888A401E46EA00500243DC6804F0704498
:100740000868401E4E68761E40EA06168868401EFD
:1007500046EA0026088A401E46EA0046087E401EF9
:1007600046EA006004439A60DC60002070BD2DE919
:10077000FF4104460D4616461F464FF0000814B9C7
:100780004FF0100803E0012C01D14FF0080800954C
:10079000CDF80480029603974FF48052694640F6E4
:1007A000C820C2F2000001F066FE18B9002004B0B3
:1007B000BDE8F0810120FAE72DE9F04106460F4639
:1007C000154604F0EFFB702004F0BBFB04F03EFC88
:1007D000F0B204F0B6FB04F039FC04F0E3FB712046
:1007E00004F0AFFB04F032FC00240BE0691EA142D0
:1007F00001D0012100E00021084604F036FB385505
:10080000601CC4B2AC42F1DB04F0F6FBBDE8F08141
:100810002DE9F04105460E4617464FF0000804F05A
:10082000C1FB702004F08DFB04F010FCE8B204F072
:1008300088FB04F00BFC00240BE0305D04F081FB2E
:1008400004F004FC8046B8F1000F00D003E0601C07
:10085000C4B2BC42F1DB00BF04F0CEFB4046BDE8B1
:10086000F081704770B504462068456820680668C6
:1008700005F00100E0B106F48070C8B1206800689E
:1008800020F4807021680860E06B40F00100E063B4
:10089000012021688860042084F8390000BF00200E
:1008A00084F8380000BF606910B12046616988474C
:1008B00005F02000E0B106F40050C8B120680068DF
:1008C00020F4005021680860202021688860E06BD7
:1008D00040F00200E063042084F8390000BF0020EB
:1008E00084F8380000BF606910B12046616988470C
:1008F00005F00800E0B106F40060C8B120680068A7
:1009000020F4006021680860082021688860E06B9E
:1009100040F00400E063042084F8390000BF0020A8
:1009200084F8380000BF606910B1204661698847CB
:1009300005F0040070B106F4806058B120680068CA
:1009400020F48060216808600420216888602046C7
:1009500000F06BF805F00200D0B106F40070B8B1F9
:100960002068006820F40070216808600220216877
:100970008860E06BE063012084F8390000BF00204C
:1009800084F8380000BF206910B1204621698847EB
:1009900005F01000C0B106F48050A8B120680068CE
:1009A00020F4805021680860102021688860E06B86
:1009B000E063012084F8390000BF002084F838008B
:1009C00000BF2046FFF74DFF70BD10B504460CB9BF
:1009D000012010BD94F8390028B9002084F83800AF
:1009E000204600F023F8022084F8390020680068CF
:1009F00020F4403061680843216808602068406B3B
:100A000020F00700A1680843216848632068006C53
:100A10006FF30D00E1680843216808640020E0637B
:100A2000012084F839000020D3E7704738B5044628
:100A30004FF43041C4F20201206888421DD100BF4A
:100A40000020009043F63000C4F20200006840F439
:100A5000000043F63001C4F2020108600846006855
:100A600000F40000009000BF00BF002211465A2091
:100A700000F015FE5A2000F002FE38BD014691F844
:100A80003500022803D080204865012070470520EA
:100A900081F835000868006820F001000A681060DD
:100AA0000020F3E7F8B504460020009040F21C0057
:100AB000C2F2000000684FF41651B0FBF1F7A56DCB
:100AC0002E6894F85C1008208840304098B1206867
:100AD000006800F0040070B12068006820F0040095
:100AE0002168086094F85C1008208840A860606D58
:100AF00040F00100606594F85C10012088403040AF
:100B000068B12068406900F0800040B194F85C1042
:100B100001208840A860606D40F00200606594F894
:100B20005C1004208840304068B12068006800F004
:100B3000020040B194F85C1004208840A860606D09
:100B400040F00400606594F85C101020884030404C
:100B500078B32068006800F0080050B394F85C1087
:100B600010208840A8602068006800F4802080B1D0
:100B70002068006800F4002028B9206CC8B1204625
:100B8000216C884715E0A06C98B12046A16C88477D
:100B90000FE02068006800F4807028B920680068C1
:100BA00020F0080021680860206C10B12046216CFC
:100BB000884794F85C10202088403040002865D099
:100BC0002068006800F0100000285FD094F85C10E6
:100BD00020208840A86094F83500052828D1206896
:100BE000006820F01600216808602068406920F045
:100BF000800021684861206C08B9A06C28B1206889
:100C0000006820F008002168086094F85C103F201C
:100C10008840A86000BF002084F8340000BF012095
:100C200084F83500206D10B12046216D8847F8BD4D
:100C30002068006800F4802080B12068006800F41B
:100C4000002028B9606C10B12046616C88471DE017
:100C5000E06BD8B12046E16B884717E02068006858
:100C600000F4807068B92068006820F010002168E6
:100C7000086000BF002084F8340000BF012084F821
:100C80003500E06B10B12046E16B8847606D38B3EA
:100C9000606D00F00100F0B1052084F83500206897
:100CA000006820F001002168086000BF0098401C27
:100CB0000090B84200D905E02068006800F001000B
:100CC0000028F3D100BF00BF002084F8340000BF2B
:100CD000012084F83500E06C10B12046E16C8847B3
:100CE00000BFA4E72DE9F0410446002500F042FAD8
:100CF000074614B90120BDE8F081606A00B100BF69
:100D000000BF002084F8340000BF022084F83500C2
:100D10002068006820F00100216808600AE000F007
:100D200029FAC01B052805D920206065032084F816
:100D30003500E0E72068006800F001000028EED1EF
:100D40002068056848F23F00CFF210000540D4E962
:100D500001010843E16808432169084361690843C8
:100D6000A1690843E1690843216A08430543606AB1
:100D7000042803D1D4E90B0108430543206805602A
:100D80002068456925F00705606A0543606A042804
:100D90000DD1A06A0543E06A48B12046FFF79FFBEA
:100DA00028B140206065012084F83500A3E7206861
:100DB00045612046FFF779FB064694F85C103F201A
:100DC0008840B06000206065012084F83500002074
:100DD00091E770B5044600F0CDF906462546681C3B
:100DE00028B140F21800C2F200000078054400BFAC
:100DF00000F0C0F9801BA842FAD370BD00B587B0DF
:100E0000142102A8FFF738FA40F20800C2F20000ED
:100E1000006808B107B000BD012040F20801C2F22D
:100E20000001086000BF0020019043F63800C4F2C2
:100E30000200006840F0010043F63801C4F20201EC
:100E400008600846006800F00100019000BF00BF84
:100E50004FF63F00029002200390002004900320F0
:100E600005900C20069002A94FF4A050C4F2020095
:100E700000F049F80D200290022003900020049019
:100E8000032005900C20069002A94FF40060C4F2E4
:100E9000020000F038F848F2371002900220039068
:100EA00000200490032005900C20069002A94FF426
:100EB000C050C4F2020000F026F84FF68370029092
:100EC0000220039000200490032005900C2006903F
:100ED00002A94FF48050C4F2020000F014F84CF262
:100EE00003700290022003900020049003200590DC
:100EF0000C20069002A94FF44060C4F2020000F0FA
:100F000002F800BF86E7F8B502460B46002500242C
:100F1000002000211CE1012606FA01F51E6806EA00
:100F20000504AC427DD15E68012E08D05E68022EB9
:100F300005D05E68112E02D05E68122E13D1906823
:100F40004F000326BE40B0434F00DE68BE40304332
:100F50009060506801268E40B0431E79C6F300169B
:100F60008E4030435060D0684F000326BE40B043EF
:100F70004F009E68BE403043D0605E68022E02D0B3
:100F80005E68122E13D1CF0802F1200656F8270012
:100F90004E07F70E0F26BE40B0434F07FF0E1E69E7
:100FA000BE403043CF0802F1200646F82700106803
:100FB0004F000326BE40B0431E7906F003064F00E3
:100FC000BE40304310605E6806F08056B6F1805F28
:100FD000A8D100BF0026009643F64406C4F20206DC
:100FE000366846F4804643F64407C4F202073E6082
:100FF0003E46366806F48046009600BF00BF43F6C2
:101000000806C4F201068F0856F827008E07370F2E
:101010000F26BE40B0430026C4F20206B24203D1FE
:1010200000E094E0002648E04FF48066C4F2020637
:10103000B24201D1012640E04FF40066C4F202063C
:10104000B24201D1022638E04FF44066C4F20206F3
:10105000B24201D1032630E04FF48056C4F20206BA
:10106000B24201D1042628E04FF4A056C4F2020691
:10107000B24201D1052620E04FF4C056C4F2020668
:10108000B24201D1062618E04FF4E056C4F202063F
:10109000B24201D1072610E04FF40056C4F2020616
:1010A000B24201D1082608E04FF41056C4F20206FD
:1010B000B24201D1092600E00A268F073F0FBE4049
:1010C000304343F60806C4F201068F0846F82700AD
:1010D0004FF47056C4F201063068A0435E6806F40F
:1010E0008036B6F5803F00D120434FF47056C4F2ED
:1010F00001063060361D3068A0435E6806F4003695
:10110000B6F5003F00D1204343F60446C4F2010681
:101110003060361D3068A0435E6806F48016B6F570
:10112000801F00D1204343F60846C4F20106306018
:10113000361D3068A0435E6806F40016B6F5001F41
:1011400000D1204343F60C46C4F201063060491C2E
:101150001029FFF4E0AEF8BD024613690B400BB155
:10116000012000E0002070470AB1816101E00B041A
:101170008361704740F21000C2F2000000687047BF
:1011800040F21000C2F20000006840F21801C2F202
:1011900000010978084440F21001C2F20001086021
:1011A000704710B54FF47050C4F20200006840F46C
:1011B00000704FF47051C4F20201086008460068E4
:1011C00040F4806008600846006840F48070086061
:1011D000032000F0A2FA002000F004F800F027FA43
:1011E000002010BD70B5044640F21800C2F20000A5
:1011F00000784FF47A71B1FBF0F040F21C01C2F2BA
:1012000000010968B1FBF0F5284601F0C5FF08B1FF
:10121000012070BD102C0AD200222146501E00F081
:101220003EFA40F21400C2F20000046001E0012026
:10123000EFE70020EDE770B504460E46154600BF07
:1012400094F8A000012801D1022070BD012084F88B
:10125000A00000BF022084F8A10005EB850101EB8E
:10126000C50204F1380101EB820034223146FEF759
:10127000EAFF2A463146204602F09DFA0120216805
:10128000486284F8A10000BF002084F8A00000BFDD
:1012900000BFDAE7704770B504462068856B2068A8
:1012A000466B05F00400E0B106F00400C8B1206808
:1012B000406B20F004002168486304202168C86363
:1012C000D4F8A40040F00100C4F8A400042084F87D
:1012D000A10000BF002084F8A00000BF2046FFF757
:1012E000D9FF05F00200E0B106F00200C8B12068A5
:1012F000406B20F002002168486302202168C86327
:10130000D4F8A40040F00200C4F8A400042084F83B
:10131000A10000BF002084F8A00000BF2046FFF716
:10132000B9FF05F00100A8B106F0010090B12068F6
:10133000406B20F001002168486301202168C863E8
:1013400084F8A10000BF002084F8A00000BF204660
:1013500000F0B0F805F00800B0B106F0080098B150
:101360002068406B20F0080021684863082021684D
:10137000C863012084F8A10000BF002084F8A00009
:1013800000BF204600F052F970BD70B504460CB99C
:10139000012070BD94F8A10028B9002084F8A000B5
:1013A000204600F088F8022084F8A10020688069B7
:1013B00020F0704021688861D4E901010843E168A8
:1013C00008432169084321688969084321688861C5
:1013D000206880684FF47841CFF20001084021680E
:1013E0008860A08A050420688068A16929430843B1
:1013F000216888602068C0684FF47841CFF200010E
:1014000008402168C860A08B05042068C068216A74
:10141000294308432168C860206800694FF4784177
:10142000CFF20001084021680861A08C0504206803
:101430000069A16A2943084321680861206840695E
:101440004FF47841CFF20001084021684861A08D37
:10145000050420684069216B2943084321684861DD
:1014600094F83500050294F8360006042068C06A36
:1014700000F07F402168C86246EA050094F8341005
:1014800008432168C96A08432168C8622068406B24
:1014900040F00600216848632068806940F0010040
:1014A000216888610020C4F8A400012084F8A1000C
:1014B00000206EE7704710B586B00446142101A8DD
:1014C000FEF7DAFE4FF4D041C4F2010120688842F1
:1014D0007DD100BF0020009043F64400C4F202001A
:1014E000006840F0806043F64401C4F202010860E5
:1014F0000846006800F08060009000BF00BF00BF99
:101500000020009043F63000C4F20200006840F46E
:10151000807043F63001C4F202010860084600689A
:1015200000F48070009000BF00BF00BF002000905A
:101530000846006840F0200008600846006800F097
:101540002000009000BF00BF00BF002000900846B0
:10155000006840F0800008600846006800F08000E5
:10156000009000BF00BF00BF002000900846006848
:1015700040F0400008600846006800F0400000901D
:1015800000BF00BF40F2F7600190022002900020EF
:101590000390032004900E20059001A94FF4005001
:1015A000C4F20200FFF7AFFC4FF48060019002200C
:1015B000029000200390032004900E20059001A9C2
:1015C0004FF4A050C4F20200FFF79DFC00E02BE0B6
:1015D0004FF47E40019002200290002003900320EF
:1015E00004900E20059001A94FF4E050C4F20200CF
:1015F000FFF789FC4FF40C6001900220029000205C
:101600000390032004900E20059001A94FF4C050D0
:10161000C4F20200FFF777FC00221146582000F0C8
:101620003EF8582000F02BF806B010BD704708B502
:1016300000BF0020009043F64400C4F2020000689E
:1016400040F4804043F64401C4F2020108600846B9
:10165000006800F48040009000BF00BF00BF002081
:101660000090081F006840F08050091F086008467D
:10167000006800F08050009000BF00BF08BD014628
:101680000846002809DB00F01F0301229A404309A5
:101690009B0003F1E023C3F8002100BF70472DE950
:1016A000F05F80460D461646002704F04DF80746C9
:1016B00039462A46334601F00700C0F1070ABAF15D
:1016C000040F02D94FF0040A01E0C0F1070AD14625
:1016D00000F1040ABAF1070F02D24FF0000A01E04C
:1016E000A0F1030AD4464FF0010A0AFA09FAAAF156
:1016F000010A0AEA020A0AFA0CFA4FF0010B0BFA85
:101700000CFBABF1010B0BEA030B4AEA0B0421467D
:10171000404604F021F8BDE8F09F00BF00F007024A
:101720004EF60C53CEF2000319684FF6FF03194032
:1017300041F0FD7343F0806343EA02214EF60C53FF
:10174000CEF20003196000BF704738B5002400BF17
:10175000002000904FF46150C4F20200006840F095
:1017600080504FF46151C4F20201086008460068DD
:1017700000F08050009000BF00BF01200021C4F2A3
:101780000E210864FFF7F6FC044607E0FFF7F2FCC1
:10179000001BB0F57A7F01D9032038BD4FF4E0403B
:1017A000C4F20000406800F48030B0F5803FEDD115
:1017B00001200021C4F20E214864FFF7DBFC04463F
:1017C00007E0FFF7D7FC001BB0F57A7F01D90320B3
:1017D000E3E74FF4E040C4F20000406800F400305A
:1017E000B0F5003FEDD10020D7E7F8B5044600255D
:1017F0000026207800F0010048B9207800F00200AF
:10180000022804D0207800F04000402879D1002040
:101810000021C4F247218866FFF7ACFC054606E0CC
:10182000FFF7A8FC401B022801D90320F8BD4FF4A4
:101830006050C4F202000068C0F3C0600028EFD11D
:10184000207800F0010048B160688101207A41EA07
:10185000007043F68401C4F202010860207800F0B1
:101860000200022821D143F68400C4F2020000687D
:10187000C0F3027660688101207B41EA006040EAA3
:10188000067043F68401C4F20201086043F68C003E
:10189000C4F20200006820F01F00E169491E0843FD
:1018A00043F68C01C4F202010860207800F0400089
:1018B00040280CD160688101207B41EA0061207AD8
:1018C00041EA007043F68401C4F20201086001207D
:1018D0000021C4F247218866FFF74CFC054607E06B
:1018E000FFF748FC401B022802D903209EE708E0CE
:1018F0004FF46050C4F202000068C0F3C0600028DA
:10190000EED0207800F00400042804D0207800F005
:10191000080008287AD100200021C4F24721086776
:10192000FFF728FC054606E0FFF724FC401B0228D1
:1019300001D903207AE74FF46050C4F20200006836
:10194000C0F340700028EFD1207800F00400042894
:101950001FD143F68800C4F202000068C0F302768B
:1019600020698101207D41EA006040EA067043F66B
:101970008801C4F202010860081D006820F4F851D3
:10198000206A401E41EA002043F68C01C4F20201A5
:101990000860207800F0080008281DD143F6880070
:1019A000C4F202000068C0F303662069800140EAC7
:1019B0000661207E41EA007043F68801C4F202010C
:1019C0000860081D006820F44030616A084343F64F
:1019D0008C01C4F20201086001200021C4F24721F9
:1019E0000867FFF7C7FB054607E0FFF7C3FB401B8F
:1019F000022802D9032019E708E04FF46050C4F22E
:101A000002000068C0F340700028EED0207800F09B
:101A1000200020287DD100BF002000904FF46150AD
:101A2000C4F20200006840F080504FF46151C4F2EB
:101A3000020108600846006800F08050009000BF76
:101A400000BF4FF4E040C4F20000006840F4807032
:101A50004FF4E041C4F200010860FFF78BFB05463C
:101A600006E0FFF787FB401B022801D90320DDE6D3
:101A70004FF4E040C4F20000006800F480700028D9
:101A8000EFD043F67000C4F20200006800F4407624
:101A900096B3208D00F44070B0422DD043F6700014
:101AA000C4F20200006820F4407601204FF4646123
:101AB000C4F2472108600020086043F67000C4F2B9
:101AC00002000660006800F00100A8B1FFF752FBB9
:101AD000054608E0FFF74EFB401B41F28831884283
:101AE00001D90320A2E643F67000C4F202000068A8
:101AF000C0F340000028EDD000BF208D00F44070FE
:101B0000B0F5407F14D143F60800C4F2020000682B
:101B100000E028E020F4F810A16A21F4407121F0DF
:101B20007041084343F60801C4F2020108600BE06B
:101B300043F60800C4F20200006820F4F81043F6EF
:101B40000801C4F20201086043F67000C4F202000A
:101B50000068218DC1F30B01084343F67001C4F204
:101B60000201086000BF207800F01000102806D1A4
:101B700094F82C004FF48F51C4F2472108600020E4
:101B800054E670B504460D460CB9012070BD4FF403
:101B90007050C4F20200006800F00F00A8420CD29E
:101BA0004FF47051C4F202010D700846006800F055
:101BB0000F00A84201D00120E8E7207800F00200E1
:101BC00002282FD1207800F0040004280BD143F61E
:101BD0000800C4F20200006840F4E05043F6080137
:101BE000C4F202010860207800F0080008280BD138
:101BF00043F60800C4F20200006840F4604043F677
:101C00000801C4F20201086043F60800C4F20200B1
:101C1000006820F0F000A168084343F60801C4F210
:101C200002010860207800F00100C0B3606801285C
:101C300009D14FF46050C4F202000068C0F3404084
:101C4000D8B90120A2E76068022802D060680328A2
:101C500009D14FF46050C4F202000068C0F3406044
:101C600058B9012092E74FF46050C4F202000068B6
:101C7000C0F3400008B9012088E743F60800C4F229
:101C80000200006820F003006168084343F6080181
:101C9000C4F202010860FFF76DFA064609E013E09E
:101CA000FFF768FA801B41F28831884201D903208E
:101CB0006CE743F60800C4F20200006800F00C0074
:101CC0006168B0EB810FEBD14FF47050C4F20200A9
:101CD000006800F00F00A8420CD94FF47051C4F214
:101CE00002010D700846006800F00F00A84201D004
:101CF00001204BE7207800F0040004280DD143F6C2
:101D00000800C4F20200006820F4E050E1680843D3
:101D100043F60801C4F202010860207800F00800D0
:101D200008280ED143F60800C4F20200006820F42F
:101D30006040216940EAC10043F60801C4F2020193
:101D4000086000F043F843F60801C4F20201096894
:101D5000C1F303114CF2EA72C0F60202515CC840B2
:101D600040F21C01C2F20001086040F21400C2F20D
:101D700000000068FFF736FA002007E740F21C0079
:101D8000C2F200000068704700B5FFF7F7FF43F6A6
:101D90000801C4F202010968C1F382214CF2FA720F
:101DA000C0F60202515CC84000BD00B5FFF7E6FF77
:101DB00043F60801C4F202010968C1F342314CF252
:101DC000FA72C0F60202515CC84000BD2DE9F0472E
:101DD000002400250026A14643F60800C4F20200B4
:101DE000006800F00C0020B1042807D008284ED16C
:101DF00009E04FF41059C0F2F4094DE047F64009EC
:101E0000C0F27D1948E043F60400C4F20200006805
:101E100000F03F0443F60400C4F20200006800F43E
:101E20008000A0B147F64000C0F27D1043F60401E7
:101E3000C4F202010968C1F38811A0FB01700146D8
:101E4000224600233846FEF7CDF9054613E04FF44D
:101E50001050C0F2F40043F60401C4F20201096814
:101E6000C1F38811A0FB01700146224600233846C9
:101E7000FEF7B8F9054643F60400C4F20200006814
:101E8000C0F30140401C4600B5FBF6F904E04FF4F6
:101E90001059C0F2F40900BF00BF4846BDE8F08702
:101EA000F8B504460CB90120F8BD207800F0010017
:101EB000002870D043F60800C4F20200006800F069
:101EC0000C00042812D043F60800C4F20200006897
:101ED00000F00C00082817D143F60400C4F20200F9
:101EE000006800F48000B0F5800F0DD14FF4605011
:101EF000C4F202000068C0F3404000286AD0606865
:101F0000002867D10120CFE700BF6068B0F5803FAF
:101F10000CD14FF46050C4F20200006840F48030ED
:101F20004FF46051C4F20201086026E06068B0F529
:101F3000A02F11D14FF46050C4F20200006840F4A9
:101F400080204FF46051C4F2020108600846006826
:101F500040F48030086010E04FF46050C4F202009A
:101F6000006820F480304FF46051C4F20201086030
:101F70000846006820F48020086000BF6068A8B1AF
:101F8000FFF7F8F8054607E0FFF7F4F8401B642870
:101F900002D9032088E71DE04FF46050C4F202002C
:101FA0000068C0F340400028EED013E0FFF7E2F8ED
:101FB000054606E0FFF7DEF8401B642801D9032040
:101FC00072E74FF46050C4F202000068C0F3404072
:101FD0000028EFD1207800F00200022879D143F6E2
:101FE0000800C4F20200006800F00C0080B143F663
:101FF0000800C4F20200006800F00C00082824D198
:1020000043F60400C4F20200006800F48000E0B966
:102010004FF46050C4F202000068C0F3400020B1E9
:10202000E068012801D001203EE74FF46050C4F27F
:102030000200006820F0F800216940EAC1004FF476
:102040006051C4F20201086043E0E06840B301203F
:102050000021C4F247210860FFF78CF8054606E02E
:10206000FFF788F8401B022801D903201CE74FF432
:102070006050C4F202000068C0F340000028EFD0B6
:102080004FF46050C4F20200006820F0F8002169AB
:1020900040EAC1004FF46051C4F20201086018E048
:1020A00000200021C4F247210860FFF763F80546CD
:1020B00006E0FFF75FF8401B022801D90320F3E692
:1020C0004FF46050C4F202000068C0F340000028E2
:1020D000EFD1207800F00800082836D16069D0B12F
:1020E00001204FF46861C4F247210860FFF742F80D
:1020F000054606E0FFF73EF8401B022801D9032001
:10210000D2E643F67400C4F202000068C0F3400057
:102110000028EFD019E000204FF46861C4F2472195
:102120000860FFF727F8054606E0FFF723F8401B95
:10213000022801D90320B7E643F67400C4F2020076
:102140000068C0F340000028EFD1207800F00400C0
:1021500004287CD100274FF46150C4F202000068CB
:1021600000F08050B0B900BF002000904FF46150E3
:10217000C4F20200006840F080504FF46151C4F294
:10218000020108600846006800F08050009000BF1F
:1021900000BF01274FF4E040C4F20000006800F4E3
:1021A0008070F8B94FF4E040C4F20000006840F4D9
:1021B00080704FF4E041C4F200010860FEF7DAFFDE
:1021C000054606E0FEF7D6FF401B022801D9032092
:1021D0006AE64FF4E040C4F20000006800F480704A
:1021E0000028EFD000BFA06801280CD143F6700092
:1021F000C4F20200006840F0010043F67001C4F22E
:102200000201086027E0A068052811D143F670009C
:10221000C4F20200006840F0040043F67001C4F20A
:10222000020108600846006840F00100086012E002
:1022300043F67000C4F20200006820F0010043F68B
:102240007001C4F2020108600846006800E041E045
:1022500020F00400086000BFA068B0B1FEF78AFF5C
:10226000054608E0FEF786FF401B41F288318842B0
:1022700001D9032018E643F67000C4F2020000689A
:10228000C0F340000028EDD015E0FEF773FF0546CF
:1022900008E0FEF76FFF401B41F28831884201D908
:1022A000032001E643F67000C4F202000068C0F3A8
:1022B00040000028EDD1012F0BD14FF46150C4F242
:1022C0000200006820F080504FF46151C4F2020116
:1022D000086000BFA069002852D043F60800C4F28D
:1022E0000200006800F00C00082864D0A0690228F1
:1022F00047D100200021C4F247210866FEF73AFFCB
:10230000054606E0FEF736FF401B022801D90320F0
:10231000CAE54FF46050C4F202000068C0F34060A8
:102320000028EFD1D4E907010843616A40EA81112E
:102330000122A06AC2EB500041EA00412C20005D5E
:1023400041EA006043F60401C4F202010860012082
:102350000021C4F247210866FEF70CFF054606E09F
:10236000FEF708FF401B022801D903209CE54FF42B
:102370006050C4F202000068C0F340600028EFD053
:102380003EE000200021C4F247210866FEF7F2FE7D
:10239000054606E0FEF7EEFE401B022801D90320A9
:1023A00082E54FF46050C4F202000068C0F3406060
:1023B0000028EFD124E0A069012800D174E543F69C
:1023C0000400C4F20200066806F48001E06981425C
:1023D00014D106F03F01206A81420FD147F6C07048
:1023E0003040616A884209D106F44031A06A8142D6
:1023F00004D106F07061E06A814201D0012053E50A
:10240000002051E570B504460D460CB9012070BDA1
:1024100094F82C0028B9002084F82D00204600F004
:1024200011F8022084F82C00211D2068FEF7E7F83F
:102430002946D4E90002FEF74CF9012084F82C006B
:102440000020E4E710B50446FEF7D8FC10BD70B5D7
:1024500004460D4694F82C00022800D170BD0220DD
:1024600084F82C0029462068FEF703F9012084F83F
:102470002C000020F2E770B504460D46164694F88D
:102480002C00022800D170BD022084F82C003246B6
:1024900029462068FEF7F4F82868022803D10520B1
:1024A00084F82C0002E0012084F82C000020EAE7E8
:1024B00010B50446FDF773FF10BD70B58AB0044631
:1024C0000D46032084F83400606C032820D0B5F555
:1024D000805F04D1A06B40F08050A0631CE0B5F594
:1024E000006F07D1204602F03BFB0646A06B30434D
:1024F000A06311E03DB9204602F0FEFA0646A06B4B
:102500003043A06308E0A06B40F00060A06303E0EC
:10251000A06B40F08050A063A06B50B140F2FF5020
:10252000C0F2400021688863012084F834000AB0BA
:1025300070BD60680490A0680590E06806900795FB
:1025400060690890A069099007A807C88DE807008E
:10255000206804A90EC901F0AFFC012084F8340002
:102560000020E4E7704710B50246506E800F0870F7
:10257000506EC0F383604870506EC0F30160887085
:10258000506E000CC870B2F86400000A087192F82E
:1025900064004871906E000DC880906EC0F30340D7
:1025A00008726820805AC0F3C03048726820805A90
:1025B000C0F3803088726820805AC0F34030C872FF
:1025C0006820805AC0F30030087300204873506CB4
:1025D000002836D16820805A8005030DD06E43EA6A
:1025E00090700861D06EC0F3C2600875D06EC0F301
:1025F00002604875D06EC0F342508875D06EC0F34B
:102600008240C875D06EC0F3C23008760869401C9D
:1026100050650B7E506D03F007039B1C01249C400A
:1026200060435065087A00F00F03012098409065E0
:10263000D2E915035B0A5843D0654FF40073136663
:1026400024E0506C012813D16820805C8006830A46
:10265000D06E43EA104008610869401C830253654C
:10266000536DD3654FF400739365936D13660DE05E
:1026700040F2FF50C0F2400013689863906B40F046
:1026800080509063012082F8340010BD6C20805A85
:10269000C0F3803001F8190F6C20805AC0F3C610C7
:1026A00048706C20805C00F07F008870106FC00F55
:1026B000C870106FC0F341700871106FC0F3826072
:1026C0004871106FC0F383508871106FC0F3405091
:1026D000C87100200872106FC0F30040487270206B
:1026E000805AC0F3C03088727020805AC0F38030A6
:1026F000C8727020805AC0F3403008737020805A2E
:10270000C0F3003048737020805AC0F38120887372
:102710007020805AC0F30120C8737020805CC0F321
:10272000460008740120487419390020ADE70246BC
:10273000506C0860906C4860D06C8860106DC86008
:10274000506D0861906D4861D06D8861106EC861F0
:1027500000207047F8B504460020009069462046E6
:1027600002F0B2F9054615B1A06B2843A0630098AA
:10277000C0F343263046F8BD70B50446256B20688B
:10278000406BC0F3C03030B105F0080018B12046EE
:1027900002F075F900E12068406BC0F300200028CA
:1027A00063D04FF48070216888632068C06B20F488
:1027B0009D7020F442402168C8632068C06A20F000
:1027C00001002168C86205F0080038B305F0020076
:1027D00010B905F0200050B1206801F02BFD06462D
:1027E0002EB1A06B3043A0632046FFF7BBFE40F242
:1027F0003A5021688863012084F834000020206367
:1028000005F0010010B905F0020018B1204600F0F3
:102810007DFBC1E0204600F07EFBBDE005F08000BE
:102820000028B7D005F0200050B1206801F002FD6B
:1028300006462EB1A06B3043A0632046FFF792FE00
:1028400005F001000028A5D105F002000028A1D163
:102850002068C06A20F008002168C862012084F85E
:102860003400204600F057FB96E02068406BC0F330
:10287000803030B105F0080018B1204602F0A4F90C
:102880008AE02068406B40F23A21084008B10120FC
:1028900000E0002000287FD02068406BC0F340009B
:1028A00018B1A06B40F00200A0632068406BC0F339
:1028B000C00018B1A06B40F00800A0632068406B16
:1028C000C0F3401018B1A06B40F02000A063206856
:1028D000406BC0F3001018B1A06B40F01000A06373
:1028E0002068406BC0F3402018B1A06B40F0080096
:1028F000A06340F23A70216888632068C06B20F4BE
:102900009D7020F400702168C863206801F092FC7B
:10291000A16B0843A06305F0080040B1012084F8D2
:102920003400002020632046FFF71CFE34E005F051
:10293000800030B305F0100010B905F0200068B138
:1029400044F23770C0F60000E16B0865E06BFEF7FB
:1029500095F8B0B1E06B01F0EEFE1DE005F001006E
:1029600010B905F0020068B144F2EF60C0F6000053
:10297000216C0865206CFEF781F810B1206C01F025
:10298000B6FE09E00020A063012084F83400002096
:1029900020632046FFF78CFD70BD10B504460CB9CE
:1029A000012010BD94F8340020B900202077204683
:1029B00000F056F8032084F83400204600F00BF8AD
:1029C00008B10120EDE70020A0632063012084F816
:1029D00034000020E5E770B58AB00446002004907A
:1029E00005900690079008907620099007A807C8E0
:1029F0008DE80700206804A90EC901F05DFA0646BB
:102A000016B101200AB070BD002048F2A001C4F246
:102A100025210860206801F06AFA01204FF4004186
:102A2000C4F22521C1F8A000204601F0C3FF0546ED
:102A30003DB1012084F83400A06B2843A06301203D
:102A4000E0E7204601F035FF05463DB1012084F85E
:102A50003400A06B2843A0630120D3E70020D1E716
:102A600010B586B00446142101A8FDF705FC4FF40B
:102A70003051C4F20101206888427DD100BF00209E
:102A8000009043F64400C4F20200006840F4006085
:102A900043F64401C4F2020108600846006800F4ED
:102AA0000060009000BF00BF00BF0020009043F610
:102AB0003000C4F20200006840F0040043F6300128
:102AC000C4F2020108600846006800F004000090AB
:102AD00000BF00BF00BF002000900846006840F023
:102AE000080008600846006800F00800009000BF79
:102AF00000BF4FF4F8500190022002900020039094
:102B0000032004900C20059001A94FF40060C4F24A
:102B10000200FEF7F8F90420019002200290002044
:102B20000390032004900C20059001A94FF440600D
:102B3000C4F20200FEF7E7F946F25840C4F2020080
:102B400040F62841C2F2000108604FF00060486082
:102B5000002140F62840C2F200008160C1604FF4BD
:102B60008061016189004161890081612021C16129
:102B700000210162042100E051E0416203218162F1
:102B80004FF40001C16289100163FEF7ABF808B190
:102B9000FDF7FBFC00BF40F62840C2F200002064B5
:102BA000846300BF46F2A040C4F2020040F68841B0
:102BB000C2F2000108604FF000604860402140F61A
:102BC0008840C2F2000081600021C1604FF4806142
:102BD000016189004161890081612021C161002179
:102BE000016204214162032181624FF40001C1624C
:102BF00089100163FEF776F808B1FDF7C6FC00BF47
:102C000040F68840C2F20000E063846300BF002207
:102C100011463120FEF743FD3120FEF730FD06B0AE
:102C200010BD2DE9FF4F89B004468B469946DDF86B
:102C300058A0FEF79FFA02900B9800905D46BBF1FA
:102C4000000F07D1A06B40F00060A06301200DB021
:102C5000BDE8F08F94F83400012873D10020A06300
:102C6000009800EB0901E06D814205D9A06B40F0AE
:102C70000070A0630120EAE7032084F834000020FC
:102C80002168C862606C012802D000984002009060
:102C90004FF40071206801F08AF98046B8F1000F06
:102CA0000DD040F2FF50C0F2400021688863A06B55
:102CB00040EA0800A063012084F83400C7E74FF021
:102CC000FF3003904FEA49200490902005900220A5
:102CD0000690002007900120089003A9206801F0C9
:102CE000BEF8B9F1010F07D90220206320680099CE
:102CF00001F0C5F9804606E00120206320680099B4
:102D000001F0D9F98046B8F1000F10D040F2FF5021
:102D1000C0F2400021688863A06B40EA0800A0630D
:102D2000012084F834000020206301208FE7049EF6
:102D30003CE02068406B00F40040E8B1E6B10020C0
:102D4000019016E0DCE0206801F0DAF807462F7009
:102D50006D1C761E380A28706D1C761E380C287083
:102D60006D1C761E380E28706D1C761E0198401C56
:102D7000019001980828E6D3FEF7FCF90299401A61
:102D8000504502D2BAF1000F10D140F2FF50C0F20C
:102D9000400021688863A06B40F00040A0630120E0
:102DA00084F8340000202063032050E72068406B43
:102DB00040F22A3108400028BBD02068406B00F464
:102DC0008070E8B1B9F1010F1AD9606C032817D0EF
:102DD000206801F02FFA8046B8F1000F10D040F2C1
:102DE000FF50C0F2400021688863A06B40EA0800F1
:102DF000A063012084F8340000202063012026E72E
:102E00002068406B00F0080080B140F2FF50C0F233
:102E1000400021688863A06B40F00800A063012097
:102E200084F8340000202063012010E72068406B04
:102E300000F0020080B140F2FF50C0F24000216873
:102E40008863A06B40F00200A063012084F8340086
:102E5000002020630120FAE62068406B00F020008B
:102E600080B140F2FF50C0F2400021688863A06B3F
:102E700040F02000A063012084F83400002020638B
:102E80000120E4E62CE0206801F03AF807462F70B4
:102E90006D1C761E380A28706D1C761E380C287042
:102EA0006D1C761E380E28706D1C761EFEF762F9BA
:102EB0000299401A504502D2BAF1000F10D140F2E7
:102EC000FF50C0F2400021688863A06B40F00040D2
:102ED000A063012084F83400002020630120B6E6BE
:102EE0002068406B00F4001008B1002ECBD140F2F6
:102EF0003A5021688863012084F834000020A6E657
:102F0000A06B40F00050A0630120A0E610B504467D
:102F1000FDF797FA10BD10B50446FDF7ABFA10BDEA
:102F20002DE9F04F89B00446894693469846FEF74E
:102F300021F90290DA464E46B9F1000F07D1A06B95
:102F400040F00060A063012009B0BDE8F08F94F864
:102F5000340001287ED10020A0630AEB0801E06D57
:102F6000814205D9A06B40F00070A0630120EBE71F
:102F7000032084F8340000202168C862606C0128B6
:102F800001D04FEA4A2A4FF40071206801F00FF88F
:102F9000054665B140F2FF50C0F2400021688863E9
:102FA000A06B2843A063012084F83400CCE74FF0E5
:102FB000FF3003904FEA48200490902005900020B5
:102FC000069007900120089003A9206800F047FFB1
:102FD000B8F1010F07D9202020635146206801F085
:102FE00047F9054606E0102020635146206801F0AD
:102FF0005BF905467DB140F2FF50C0F24000216808
:103000008863A06B2843A063012084F8340000206B
:103010002063012098E7049F46E02068406B00F49D
:10302000804040B33FB30020019021E03078009011
:10303000761C7F1E3078009941EA00200090761CB3
:103040007F1E3078009941EA00400090761C7F1E78
:10305000307800E09AE0009941EA00600090761C28
:103060007F1E6946206800F063FF0198401C0190B4
:1030700001980828DAD3FEF77DF80299411A1298D0
:10308000814201D2129878B940F2FF50C0F240005C
:1030900021688863A06B2843A063012084F8340072
:1030A0000020206303204FE72068406B40F21A3174
:1030B00008400028B1D02068406B00F48070D0B187
:1030C000B8F1010F17D9606C032814D0206801F003
:1030D000B1F805467DB140F2FF50C0F240002168D2
:1030E0008863A06B2843A063012084F8340000208B
:1030F0002063012028E72068406B00F0080080B1C1
:1031000040F2FF50C0F2400021688863A06B40F09D
:103110000800A063012084F834000020206301200F
:1031200012E72068406B00F0020080B140F2FF50CF
:10313000C0F2400021688863A06B40F00200A063E9
:10314000012084F83400002020630120FCE6206880
:10315000406B00F0100080B140F2FF50C0F2400020
:1031600021688863A06B40F01000A063012084F800
:103170003400002020630120E6E640F23A50216846
:103180008863012084F834000020DDE6A06B40F065
:103190000050A0630120D7E670B504462546681E9E
:1031A000B0F1807F01D301200FE0681E4FF0E021D5
:1031B00048610F214FF0FF3002F0CEFA00204FF0AF
:1031C000E021886107200861002070BD70477047CA
:1031D00030B502460B4600BF92F83C00012801D1F1
:1031E000022030BD012082F83C0000BF022082F89E
:1031F0003D00106844681068816824F07004186805
:103200000443106844600025C4F201051068A84218
:103210002DD01068B0F1804F29D04FF48065C4F2F2
:1032200000051068A84222D04FF40065C4F20005E2
:103230001068A8421BD04FF44065C4F20005106826
:10324000A84214D04FF48065C4F201051068A8426A
:103250000DD04FF48045C4F201051068A84206D095
:103260004FF4C055C4F200051068A84205D121F002
:1032700080015868014310688160012082F83D0098
:1032800000BF002082F83C0000BF00BFA9E710B5D6
:1032900004460CB9012010BD94F83D0028B9002067
:1032A00084F83C00204600F00CF8022084F83D0031
:1032B000211D206801F0A3FF012084F83D000020BB
:1032C000E9E738B504464FF48051C4F200012068A4
:1032D00088421DD100BF002000904FF46150C4F21D
:1032E0000200006840F010004FF46151C4F2020186
:1032F00008600846006800F01000009000BF00BFA2
:10330000002211463620FEF7CAF93620FEF7B7F93B
:1033100038BD01460868C06840F001000B68D860FD
:103320000868806800F00702062A05D0086800686F
:1033300040F001000B68186000207047704710B51E
:10334000044620680069C0F34000D8B12068C06816
:10335000C0F34000B0B16FF00200216808610120A5
:1033600020772068806900F0030018B12046FFF73D
:10337000E5FF05E0204600F0ADF8204600F0ABF890
:103380000020207720680069C0F38000D8B1206851
:10339000C068C0F38000B0B16FF00400216808611C
:1033A000022020772068806900F4407018B1204620
:1033B000FFF7C4FF05E0204600F08CF8204600F03F
:1033C0008AF80020207720680069C0F3C000D8B1D7
:1033D0002068C068C0F3C000B0B16FF00800216879
:1033E0000861042020772068C06900F0030018B14C
:1033F0002046FFF7A3FF05E0204600F06BF82046CB
:1034000000F069F80020207720680069C0F3001000
:10341000D8B12068C068C0F30010B0B16FF01000E0
:1034200021680861082020772068C06900F4407096
:1034300018B12046FFF782FF05E0204600F04AF869
:10344000204600F048F8002020772068006900F04E
:10345000010058B12068C06800F0010030B16FF081
:10346000010021680861204600F036F820680069F4
:10347000C0F3C01058B12068C068C0F3C01030B1AC
:103480006FF08000216808612046FFF79FFE2068EA
:103490000069C0F3801058B12068C068C0F3801084
:1034A00030B16FF0400021680861204600F015F847
:1034B00020680069C0F3401058B12068C068C0F3AC
:1034C000401030B16FF02000216808612046FFF7FE
:1034D0007EFE10BD704770477047704710B50446B8
:1034E0000CB9012010BDA06900B100E000BF94F844
:1034F000390028B9002084F83800204600F027F869
:10350000242084F839002068C06820F40050216825
:10351000C860204601F0FBFE2068006920F490405E
:10352000216808612068406920F02A00216848610C
:103530002068C06840F400502168C8600020E06343
:10354000202084F8390084F83A000020CAE710B53A
:1035500086B00446142101A8FCF78EFE4FF480517A
:10356000C4F20101206888423CD100BF00200090D5
:1035700043F64400C4F20200006840F0100043F635
:103580004401C4F2020108600846006800F010001F
:10359000009000BF00BF00BF0020009043F6300045
:1035A000C4F20200006840F0010043F63001C4F2AA
:1035B000020108600846006800F00100009000BFAA
:1035C00000BF4FF4C06001900220029000200390E1
:1035D000032004900720059001A90020C4F20200F6
:1035E000FDF791FC06B010BD00BFFEE718B504461C
:1035F00040F2572340F2FF3200210846009400F0C9
:1036000001F818BD2DE9F84F1C460A9F4FF0000A3B
:1036100003460D461646A446A6EB030B0BF1010B21
:10362000CBF5806B1FFA8BF84FF4806B0BFB053BDF
:103630004FEA4B0BABF1804900BFD346CDF800B049
:1036400043F6300BC4F2020BDBF800B04BF4000B76
:1036500043F6300EC4F2020ECEF800B0F346DBF8AB
:1036600000B00BF4000BCDF800B000BF00BF4FF46A
:10367000403B4FF4304EC4F2020ECEF800B04FF093
:10368000020BCEF834B0F346CBF84080CBF83C9038
:10369000ACEB050B0BF1010BA6EB030E0EF1010ECB
:1036A0004BEA0E4B4FF4304EC4F2020ECEF844B04B
:1036B000F346CBF83870DBF800B04BF0010BCEF8D6
:1036C00000B000BF4FF4304BC4F2020BDBF804B083
:1036D0000BF0020BBBF1000FF4D04FF4304BC4F2EF
:1036E000020BDBF808B04BF0020B4FF4304EC4F283
:1036F000020ECEF808B0BDE8F88F10B540F6FC20F9
:10370000C2F20000FDF7C7FD10BD08B500BF0020E4
:10371000009043F63000C4F20200006840F400005C
:1037200043F63001C4F2020108600846006800F464
:103730000000009000BF00BF40F6FC20C2F2000075
:103740000068D0F8840040F0010140F6FC20C2F28D
:1037500000000068C0F8841040F6FC20C2F20000AF
:103760000068D0F8040120F0010140F6FC20C2F20C
:1037700000000068C0F8041140F6FC20C2F200000E
:103780000068406A40F0010040F6FC21C2F20001EE
:103790000968486200F005F84FF0FF30FFF726FF98
:1037A00008BD10B5012220214FF48060C4F2020050
:1037B000FDF7DAFC10BDF0B58E880768FF68C7F327
:1037C0000B473E44330406688436802707FB0266B5
:1037D000766806F47047066884364FF0800C0CFB60
:1037E000026677600E680768FF68C7F30B473E44C0
:1037F000761C1E43076884370CFB02777E608E8937
:103800000768FF68C7F30A073E4433040668843636
:10381000802707FB0266B66806F4704706688436A0
:103820000CFB0266B7608E680768FF68C7F30A077B
:103830003E44761C1E43076884370CFB0277BE604B
:1038400006688436802707FB0266366926F007077C
:10385000066884360CFB026637610F690668843699
:103860000CFB026637613126765C33023226765CC9
:1038700034040E7E350606688436802707FB026610
:10388000B6690027066884360CFB0266B76191F8BA
:1038900030601E4326432E43076884370CFB0277B3
:1038A000BE6106688436802707FB0266766926F0CB
:1038B000FF07066884360CFB026677614F6906686D
:1038C00084360CFB0266776106688436802707FB26
:1038D0000266F66926F0070727F4E0670668843673
:1038E0000CFB0266F761D1E907673E43076884373E
:1038F0000CFB0277FE6106688436802707FB0266B0
:10390000B66A0027066884360CFB0266B7624F6A07
:10391000066884360CFB0266B7620E690EB9042392
:1039200013E00E69012E01D103230EE00E69042E6F
:1039300008D00E69022E05D00E69032E02D00E6942
:10394000072E01D1022300E0012306688436802778
:1039500007FB0266F66A06F0E027066884364FF039
:10396000800C0CFB0266F762D1E90076F61B5E4321
:10397000F61C0F8D5F4346EA0747066884360CFB4A
:103980000266F76206688436802707FB0266366B9C
:10399000F70AFF02066884360CFB02663763CF6ABB
:1039A000066884360CFB0266376306688436D701E6
:1039B000F65946F00107066884364FEAC21C46F8FD
:1039C0000C70F0BD08B500BF0020009043F6300039
:1039D000C4F20200006840F4800043F63001C4F2F3
:1039E000020108600846006800F48000009000BFF3
:1039F00000BF002211463B20FDF751FE3B20FDF7A2
:103A00003EFE002211464520FDF749FE4520FDF708
:103A100036FE08BD10B540F22201C2F200014CF69C
:103A20000400C0F60200FCF7B1FD40F22101C2F231
:103A30000001087010BD00B587B01C216846FCF776
:103A40001BFC4FF4A070CAF2000040F6C821C2F27D
:103A50000001086000204860012140F6C820C2F241
:103A6000000081600821C160102101614021416195
:103A70004FF4C07181610021C1614FF400610162A6
:103A800049004162490081620220009008200190B3
:103A9000062002900390022004900590069069464B
:103AA00040F6C820C2F20000FEF7ACFC08B1FCF7FB
:103AB0006CFD07B000BD00B587B0142102A8FCF76B
:103AC000DBFB00BF0020019043F63000C4F202008F
:103AD000006840F4807043F63001C4F202010860CF
:103AE0000846006800F48070019000BF00BF00BF6E
:103AF000002001900846006840F020000860084659
:103B0000006800F02000019000BF00BF00BF00204F
:103B100001900846006840F0800008600846006890
:103B200000F08000019000BF00BF00BF00200190A6
:103B30000846006840F0040008600846006800F08D
:103B40000400019000BF00BF00BF002001900846A4
:103B5000006840F0400008600846006800F040003F
:103B6000019000BF00BF00BF002001900846006820
:103B700040F0100008600846006800F01000019056
:103B800000BF00BF00BF002001900846006840F061
:103B9000080008600846006800F00800019000BFB7
:103BA00000BF00BF002001900846006840F00100FF
:103BB00008600846006800F00100019000BF00BFE7
:103BC00000BF002001900846006840F00200086035
:103BD0000846006800F00200019000BF00BF00220C
:103BE00020214FF48060C4F20200FDF7BDFA2020CE
:103BF00002900120039000200490059002A94FF448
:103C00008060C4F20200FDF77EF907B000BD00B588
:103C10009BB034210EA8FCF72FFB342101A8FCF740
:103C20002BFB4FF4D040C4F2010040F6FC21C2F25D
:103C30000001086000204860002140F6FC20C2F22C
:103C400000008160C1600161132141610221816135
:103C50009F21C1611621016240F29F41416240F201
:103C60006E21816240F23F51C16240F27A210163CC
:103C7000002180F8341080F8351080F83610FDF7F8
:103C800084FB08B1FCF781FC00200E904FF48060AB
:103C90000F90002010904FF4167011900220129097
:103CA000FF201390002014904FF4C060159007205F
:103CB0001690800717904FF4806018904FF416709C
:103CC000199000208DF8680000218DF869108DF89A
:103CD0006A1000220EA940F6FC20C2F20000FDF797
:103CE000AAFA08B1FCF751FC002001904FF4806063
:103CF0000290002003904FF416700490002006906C
:103D0000FF2007904FF48060089005200990002064
:103D10000A900B900C908DF8340000218DF835102E
:103D20008DF83610012201A940F6FC20C2F20000F5
:103D3000FDF781FA08B1FCF728FC1BB000BD4FF479
:103D40003050C4F2010040F6A431C2F20001086014
:103D500000204860002140F6A430C2F200008160DB
:103D6000C1600161416102218161704710B5002489
:103D70000023012211461846FCF7F9FC3220FDF71A
:103D800028F80023012202211846FCF7F0FC00234A
:103D9000082203211846FCF7EAFC4FF40C74234672
:103DA000012204210020FCF7E2FC40F2AB2140F6A6
:103DB000C820C2F20000FEF74AFB10BD1CB500206F
:103DC000009001904FF48050C4F2000040F6E841AA
:103DD000C2F200010860B3204860002140F6E840CC
:103DE000C2F20000816040F2E731C1608021816150
:103DF000FFF74DFA08B1FCF7C8FB002000900190D6
:103E0000694640F6E840C2F20000FFF7E1F908B168
:103E1000FCF7BBFB1CBD10B54FF48050C4F2010091
:103E200040F62851C2F2000108604FF4E1304860CA
:103E3000002140F62850C2F200008160C16001619B
:103E40000C21416100218161C161FFF747FB08B18D
:103E5000FCF79BFB10BD00BFFEE77047704710B535
:103E6000024600230868506248689062D1E9020463
:103E700020430C6920434C6920430343D06A20F05F
:103E8000F7001843D062002010BD01460869C0B297
:103E900070470146086800F003007047024602F1CF
:103EA000140043181868704710B540F6A430C2F2E9
:103EB0000000FEF761FC10BD0FB410B504460021F0
:103EC000DDE903021043059A1043069A1043079A4E
:103ED0001043089A10430143606820F0FF0020F46B
:103EE000FC4008436060002010BC5DF814FB10B576
:103EF0000446032020600220FCF76BFF002010BD69
:103F00000146D1F88000704710B5024600230868CA
:103F10009060D1E901042043CC6820430C69204320
:103F20000343D0686FF30B001843D060002010BD2E
:103F300002460868C2F880000020704770B586B05D
:103F400005460C4601943720029040200390002043
:103F500004904FF48060059001A92846FFF7D4FF34
:103F600041F288323721284600F0DAF90646304619
:103F700006B070BD70B586B005460C4644F480109E
:103F800040F0004001902920029040200390002042
:103F900004904FF48060059001A92846FFF7B4FF14
:103FA000284600F0C7FA0646304606B070BD70B528
:103FB00086B005460C4601941020029040200390E4
:103FC000002004904FF48060059001A92846FFF777
:103FD0009BFF41F288321021284600F0A1F90646E5
:103FE000304606B070BD70B586B005460C460194EB
:103FF0000620029040200390002004904FF480603F
:10400000059001A92846FFF77FFF41F2883206217B
:10401000284600F085F90646304606B070BD30B53A
:1040200085B00446002000900190029003904FF468
:104030008060049069462046FFF766FF204600F046
:104040004FF90546284605B030BD30B585B0044669
:104050004FF4D5700090082001904020029000207D
:1040600003904FF48060049069462046FFF74CFFB0
:10407000204600F0E8FA0546284605B030BD70B588
:1040800086B005460C460194122002904020039011
:10409000002004904FF48060059001A92846FFF7A6
:1040A00033FF41F288321221284600F039F90646E2
:1040B000304606B070BD70B586B005460C4601941A
:1040C0001120029040200390002004904FF4806063
:1040D000059001A92846FFF717FF41F28832112108
:1040E000284600F01DF90646304606B070BDF0B512
:1040F00085B0064614461D460094072001904020D6
:104100000290002003904FF480600490694630468E
:10411000FFF7FAFE41F288320721304600F000F93D
:104120000746384605B0F0BD30B585B004460020DE
:10413000009002200190C0200290002003904FF4D4
:104140008060049069462046FFF7DEFE204600F0BE
:10415000BEF90546284605B030BD70B586B00546A7
:104160000C46019409200290C02003900020049086
:104170004FF48060059001A92846FFF7C5FE284648
:1041800000F0A5F90646304606B070BD30B585B0E2
:10419000044600200090332001904020029000202F
:1041A00003904FF48060049069462046FFF7ACFE10
:1041B00041F288323321204600F0B2F80546284605
:1041C00005B030BD70B586B005460C4601940D2093
:1041D000029040200390002004904FF480600590EE
:1041E00001A92846FFF790FE41F288320D212846AA
:1041F00000F096F80646304606B070BD70B586B041
:1042000005460C46002001900320029040200390B8
:10421000002004904FF48060059001A92846FFF724
:1042200073FE22460321284600F0B0F906463046C8
:1042300006B070BD30B585B00446002000900C205B
:10424000019040200290002003904FF48060049081
:1042500069462046FFF758FE4FF46142C0F2F5521E
:104260000C21204600F05CF80546284605B030BD1C
:1042700070B586B005460C46019419200290402086
:104280000390002004904FF48060059001A9284617
:10429000FFF73AFE41F288321921284600F040F833
:1042A0000646304606B070BD70B586B005460C4671
:1042B00001941820029040200390002004904FF4B5
:1042C0008060059001A92846FFF71EFE41F2883262
:1042D0001821284600F024F80646304606B070BD86
:1042E000014640F21C00C2F200000068C0084FF412
:1042F0007A73B0FBF3F041F2883300FB03F200BFA6
:10430000101EA2F1010202D14FF000407047486B2D
:1043100000F080000028F3D0C52088630020F5E776
:104320002DE9F04305460F46904640F21C00C2F2CC
:1043300000000068C0084FF47A71B0FBF1F000FB98
:1043400008F900BFB9F10000A9F1010903D14FF04C
:104350000040BDE8F0836E6B06F045000028F1D008
:1043600006F400600028EDD1686B00F0040010B185
:104370000420A863EDE7686B00F0010010B1012094
:10438000A863E6E7C520A8632846FFF77EFDB8428C
:1043900001D00120DDE700212846FFF77FFD04461C
:1043A0004EF20800CFF6FF50204008B90020D0E7B9
:1043B00004F00040B0F1004F02D14FF00070C8E7A8
:1043C00004F08040B0F1804F01D14020C1E704F0FB
:1043D0000050B0F1005F01D18020BAE704F08050B6
:1043E000B0F1805F02D14FF48070B2E704F000605A
:1043F000B0F1006F02D14FF40070AAE704F08060C2
:10440000B0F1806F02D14FF48060A2E704F08070B9
:10441000B0F1807F02D14FF400609AE704F400000D
:10442000B0F5000F02D14FF4805092E704F4800001
:10443000B0F5800F02D14FF400508AE704F4001069
:10444000B0F5001F02D14FF4804082E704F48010E1
:10445000B0F5801F02D14FF400407AE704F48020C9
:10446000B0F5802F02D14FF4003072E704F4003031
:10447000B0F5003F02D14FF480206AE704F48030A9
:10448000B0F5803F02D14FF4002062E704F4004011
:10449000B0F5004F02D14FF480105AE704F4804089
:1044A000B0F5804F02D14FF4001052E704F40050F1
:1044B000B0F5005F02D14FF480004AE704F0080035
:1044C000082801D1000544E74FF4803041E710B5DA
:1044D000014640F21C00C2F200000068C0084FF420
:1044E0007A74B0FBF4F041F2883400FB04F300BFAF
:1044F000181EA3F1010302D14FF0004010BD4A6B1A
:1045000002F045000028F3D002F400600028EFD14B
:10451000486B00F0040010B104208863EEE7486B9C
:1045200000F0010010B101208863E7E7C52088632F
:104530000020E3E710B5014640F21C00C2F2000083
:104540000068C0084FF47A74B0FBF4F041F288348C
:1045500000FB04F300BF181EA3F1010302D14FF0CA
:10456000004010BD4A6B02F045000028F3D002F471
:1045700000600028EFD1486B00F0040010B1042067
:104580008863EEE7C52088630020EAE72DE9F04361
:1045900004460F46904640F21C00C2F2000000683C
:1045A000C0084FF47A71B0FBF1F041F2883100FBA2
:1045B00001F900BFB9F10000A9F1010903D14FF0E1
:1045C0000040BDE8F083666B06F045000028F1D09E
:1045D00006F400600028EDD1606B00F0040010B11B
:1045E0000420A063EDE7606B00F0010010B1012032
:1045F000A063E6E72046FFF748FCB84201D001205F
:10460000DFE7C520A06300212046FFF747FC0546F1
:1046100005F4604020B9280CA8F800000020D0E77D
:1046200005F48040B0F5804F02D14FF40050C8E748
:1046300005F40040B0F5004F02D14FF48050C0E7C0
:104640004FF48030BDE710B5014640F21C00C2F2C5
:1046500000000068C0084FF47A74B0FBF4F041F237
:10466000883400FB04F300BF181EA3F1010302D13C
:104670004FF0004010BD4A6B02F045000028F3D017
:1046800002F400600028EFD1486B00F0040010B184
:1046900004208863EEE7486B00F0010010B10120B0
:1046A0008863E7E7486B00F0400008B1402088636A
:1046B0000020DFE710B50446012040F22001C2F2DD
:1046C00000010870FBF776FE58B940F22000C2F2F4
:1046D0000000007820F0010040F22001C2F2000149
:1046E000087040F22000C2F20000007810BD70B5E2
:1046F0000546AC6B40F23A50216888632046FEF7CD
:1047000029F80646012084F8340000202063062E94
:1047100001D0052E05D12068FFF78CFDA16B084361
:10472000A063A06B18B92046FDF7C2FE02E0204648
:10473000FDF718FF70BD70B50546AC6B40F23A50FE
:10474000216888632046FEF705F80646012084F8B4
:10475000340000202063062E01D0052E05D12068EC
:10476000FFF768FDA16B0843A063A06B18B9204652
:10477000FDF79EFE02E02046FDF7F4FE70BD2DE938
:10478000F04389B004460F46FCF7F4FC81464FF035
:1047900000080020019002903E4608212068FFF7A3
:1047A00006FC05461DB1284609B0BDE8F08350223D
:1047B000125B11042068FFF7C1FB05460DB12846C6
:1047C000F2E74FF0FF30039008200490302005906E
:1047D00002200690002007900120089003A920687D
:1047E000FFF73DFB2068FFF7D1FC05460DB12846D9
:1047F000DAE715E02068406B00F4001038B120685B
:10480000FFF77EFB01A941F8280008F10108FCF739
:10481000B1FCA0EB0900401C10B94FF00040C3E709
:104820002068406B40F22A4108400028E2D020680E
:10483000406B00F0080018B1082021688863B3E7D6
:104840002068406B00F0020018B1022021688863E4
:10485000AAE72068406B00F0200018B120202168F2
:104860008863A1E740F23A50216888630298000605
:10487000029901F47F4140EA0120029901F47F018D
:1048800040EA1120029940EA11603060361D01981B
:104890000006019901F47F4140EA0120019901F4E9
:1048A0007F0140EA1120019940EA11603060002048
:1048B0007AE730B58FB00446012003902068FFF7F7
:1048C000E8FA18B94FF080600FB030BD606C032873
:1048D0001BD02068FFF728FC05460DB12846F3E7FA
:1048E00000212068FFF7DAFA606704212068FFF7EB
:1048F000D5FAA06708212068FFF7D0FAE0670C21FD
:104900002068FFF7CBFA80210851606C032807D09C
:1049100003A92068FFF772FC05460DB12846D3E7CE
:10492000606C032820D0BDF80C1021655022125B6A
:1049300011042068FFF711FC05460DB12846C3E7B6
:1049400000212068FFF7AAFA606604212068FFF7BB
:10495000A5FAA06608212068FFF7A0FAE0660C21FE
:104960002068FFF79BFA206704212068FFF796FA7A
:10497000010DE16404A92046FDF7F5FD10B14FF0EB
:104980008050A1E75020005B01040A460023206804
:10499000FFF7ADFB05460DB1284695E7D4E90412B3
:1049A000A069CDE90012029094E80F00FFF784FAA5
:1049B000002089E7F8B50446002000900026002773
:1049C0002068FFF72CFB05460DB12846F8BD20688E
:1049D000FFF73BFB054645B10021A1642068FFF7C6
:1049E0001EFB05461DB12846F0E70121A164A06C1D
:1049F000012808D100212068FFF7A0FA054615B16B
:104A00004FF08050E2E71FE000212068FFF796FAA0
:104A100005460DB12846D9E70021CCF210112068D7
:104A2000FFF7A8FA054615B14FF08050CEE70021F8
:104A30002068FFF733FA0646012080EAD67080F03E
:104A400001070098401C00904FF6FF7100988842C3
:104A500001D2002FD8D04FF6FF710098884202D3C0
:104A60004FF08070B2E706F08040B0F1804F02D185
:104A70000120606401E0002060640020A6E72DE9C9
:104A8000F0410546AC6AEF6AE7B14FF0000814E068
:104A90002868FFF735FA06462670641C7F1E300A28
:104AA0002070641C7F1E300C2070641C7F1E300E32
:104AB0002070641C7F1E08F10108B8F1080FE7D3CD
:104AC000AC62EF62BDE8F08170B504460D4615B9E1
:104AD0004FF0006070BD5022125B11042068FFF798
:104AE00071FB06460EB13046F4E700212068FFF75F
:104AF000D5F928600020EDE77CB504460020009041
:104B0000019000212068FFF7C9F900F00070B0F1B2
:104B1000007F02D14FF400607CBD69462046FFF75C
:104B20002EFE05460DB12846F6E7019800F48030C8
:104B300098B15022125B11042068FFF7FFF9054677
:104B40000DB12846E8E700212068FFF74CFA05463A
:104B50000DB12846E0E70020DEE74FF08060DBE79C
:104B60007CB5044600200090019000212068FFF7EA
:104B700095F900F00070B0F1007F02D14FF40060B1
:104B80007CBD69462046FFF7FAFD05460DB1284673
:104B9000F6E7019800F4802098B15022125B1104CE
:104BA0002068FFF7CBF905460DB12846E8E702215A
:104BB0002068FFF718FA05460DB12846E0E7002007
:104BC000DEE74FF08060DBE7F8B505462C6A6E6AD9
:104BD0001EB300271DE020780090641C761E20780C
:104BE000009941EA00200090641C761E207800990C
:104BF00041EA00400090641C761E2078009941EA4A
:104C000000600090641C761E69462868FFF790F9E2
:104C10007F1C082FDFD32C626E62F8BD10B50446EE
:104C2000012040F22001C2F200010870FBF7CFFB27
:104C300038B92046FFF73EFD40F22001C2F20001E4
:104C4000087040F22000C2F20000007810BDF0B5FC
:104C500089B007460D461446012640F22000C2F2F4
:104C60000000007800F0010010B1032009B0F0BD91
:104C700035B1012D06D0022D0BD0032D18D10FE038
:104C8000002617E001A8FBF78BFB079820600026A1
:104C900010E001A8FBF784FB08982080002609E0BB
:104CA00001A8FBF77DFB0898400A2060002601E080
:104CB000042600BF00BF3046D8E72DE9F04180460A
:104CC0000C4615461E460127BB1E32462946204685
:104CD000FBF79FFB28B900BFFBF76CFB0028FBD15B
:104CE00000273846BDE8F08110B504462046FFF79E
:104CF000E1FC10BD2DE9F04180460C4615461E46EC
:104D00000127BB1E324629462046FBF79BFB28B9EC
:104D100000BFFBF74FFB0028FBD100273846BDE85A
:104D2000F08110B5002240214FF4E050C4F202009F
:104D3000FCF71AFA00F0CCF8002208214FF40050DA
:104D4000C4F20200FCF710FA022008F0F3FD012281
:104D500040214FF4E050C4F20200FCF705FA0220B3
:104D600008F0E8FD002240214FF4E050C4F20200B8
:104D7000FCF7FAF910BD00B587B000BF0020019024
:104D800043F63000C4F20200006840F4807043F63D
:104D90003001C4F2020108600846006800F4807027
:104DA000019000BF00BF00BF0020019008460068CE
:104DB00040F0800008600846006800F08000019024
:104DC00000BF00BF40200290012003900490032008
:104DD000059002A94FF4E050C4F20200FCF793F8EA
:104DE0000820029002A94FF40050C4F20200FCF720
:104DF0008AF8012208214FF40050C4F20200FCF7A7
:104E0000B3F9012240214FF4E050C4F20200FCF754
:104E1000ABF907B000BD10B5002240214FF4E050BF
:104E2000C4F20200FCF7A0F900F052F801220821B8
:104E30004FF40050C4F20200FCF796F9022008F08B
:104E400079FD012240214FF4E050C4F20200FCF74A
:104E50008BF9022008F06EFD002240214FF4E05053
:104E6000C4F20200FCF780F910BD70B505460024BD
:104E700000F040F81E2008F05DFD00261EE0002234
:104E800040214FF4E050C4F20200FCF76DF902201B
:104E900008F050FD012240214FF4E050C4F202001E
:104EA000FCF762F96006040E00F037F808B1601CE8
:104EB000C4B2022008F03EFD701CC6B2082EDEDB34
:104EC00015B9FFF7A8FF01E0FFF72BFF204670BDE3
:104ED00000B585B0082000900120019002900320C9
:104EE000039069464FF40050C4F20200FCF70BF83F
:104EF00005B000BD00B585B00820009000200190ED
:104F0000012002900320039069464FF40050C4F240
:104F10000200FBF7F8FF05B000BD10B508214FF403
:104F20000050C4F20200FCF717F910BD10B504469A
:104F3000224608214FF40050C4F20200FCF714F995
:104F400010BD70B50446FFF7C3FF002240214FF4A7
:104F5000E050C4F20200FCF707F900251FE0E00969
:104F6000FFF7E4FF6006040E022008F0E3FC0122D4
:104F700040214FF4E050C4F20200FCF7F5F80220A3
:104F800008F0D8FC002240214FF4E050C4F20200A7
:104F9000FCF7EAF8022008F0CDFC681CC5B2082D29
:104FA000DDDB70BD10B5FFF793FF012208214FF440
:104FB0000050C4F20200FCF7D7F8012240214FF460
:104FC000E050C4F20200FCF7CFF81E2008F0B2FC5B
:104FD000002208214FF40050C4F20200FCF7C4F88C
:104FE000022008F0A7FC002240214FF4E050C4F258
:104FF0000200FCF7B9F810BD10B5FFF769FF0022F9
:1050000040214FF4E050C4F20200FCF7ADF800225A
:1050100008214FF40050C4F20200FCF7A5F81E204E
:1050200008F088FC012240214FF4E050C4F2020055
:10503000FCF79AF8022008F07DFC012208214FF4C9
:105040000050C4F20200FCF78FF810BD10B5002428
:10505000FFF750FF012208214FF40050C4F2020074
:10506000FCF782F8012240214FF4E050C4F2020024
:10507000FCF77AF8022008F05DFC0AE0601CC4B27C
:10508000FA2C03DDFFF7B8FF012010BD022008F065
:1050900051FCFFF742FF0028F0D1002240214FF4DD
:1050A000E050C4F20200FCF75FF80020EDE7704723
:1050B00010B5FCF765F810BD00B59FB0302113A8FE
:1050C000FBF7DAF814210EA8FBF7D6F8302102A876
:1050D000FBF7D2F800BF002001904FF46150C4F2FA
:1050E0000200006840F080504FF46151C4F20201A8
:1050F00008600846006800F08050019000BF00BFC3
:1051000000BF002001904FF4E040C4F200000068AE
:1051100040F440404FF4E041C4F20001086008460A
:10512000006800F44040019000BF00BF01201390D0
:10513000000414900220199041051A9119211B9125
:105140004FF4B4711C9102211D9108211E9113A8E6
:10515000FCF7A6FE08B1FBF718FAFCF7F6FA08B15F
:10516000FBF713FA0F200E9002200F9000201090F2
:105170004FF4A05011904FF48050129005210EA8CA
:10518000FCF7FFFC08B1FBF700FA08200290B420FE
:1051900006900221089100200B9002A8FCF725FB45
:1051A00008B1FBF7F2F91FB000BD4EF68850CEF201
:1051B0000000006840F470004EF68851CEF2000105
:1051C00008604FF000604EF60851CEF20001086012
:1051D000704710B5012021F08CF940F64820C2F24A
:1051E0000000FEF7ACF810BD10B5012021F081F9E8
:1051F00040F6E840C2F20000FEF7A1F810BD10B57D
:1052000002680023C4F2010398421AD0B0F1804F23
:1052100017D04FF48063C4F20003984211D04FF4CA
:105220000063C4F2000398420BD04FF44063C4F211
:105230000003984205D04FF48063C4F20103984202
:1052400003D122F070024B681A430023C4F2010319
:1052500098423ED0B0F1804F3BD04FF48063C4F20F
:105260000003984235D04FF40063C4F20003984223
:105270002FD04FF44063C4F20003984229D04FF47A
:105280008063C4F20103984223D04FF48043C4F2F8
:10529000010398421DD04FF48843C4F201039842A1
:1052A00017D04FF49043C4F20103984211D04FF449
:1052B000C053C4F2000398420BD04FF4E053C4F241
:1052C0000003984205D04FF40053C4F20003984203
:1052D00003D122F44072CB681A4322F080034C6958
:1052E00043EA040202608B68C3620B688362002396
:1052F000C4F20103984205D04FF48063C4F2010365
:10530000984201D10B6903630123436110BD2DE96C
:10531000F84F04462068006920F44050E1680843D3
:10532000216808612169A068084361690843E1694F
:10533000084300902068C06820F4037020F41440F3
:10534000009908432168C8602068406920F44070D3
:10535000A169084321684861E069B0F5004F7ED13A
:105360004FF48051C4F201012068884206D04FF406
:10537000A051C4F201012068884272D1FCF715FDEA
:10538000814602206168A0FB015003461920A9FB59
:1053900000712A463846FAF725FF6421B0FBF1F088
:1053A0004FEA001A02206168A0FB01500346192051
:1053B000A9FB00712A463846FAF714FF0746022077
:1053C0006168A0FB01511920A9FB00B084462A4660
:1053D0000B4658466146FAF705FF6421B0FBF1F031
:1053E00000EBC00101EB0010A7EB8000322101EBC4
:1053F000C0006421B0FBF1F000F0F8000AEB400AB5
:1054000002206168A0FB015003461920A9FB00712E
:105410002A463846FAF7E6FE074602206168A0FBF6
:10542000015003461920A9FB00B001462A46584600
:10543000FAF7D8FE6421B0FBF1F000EBC00101EBFC
:105440000010A7EB8000322101EBC0006421B0FB0B
:10545000F1F000F007005044216888605FE171E0DE
:10546000FFE7FCF791FC814602206168A0FB015038
:1054700003461920A9FB00712A463846FAF7B2FE06
:105480006421B0FBF1F04FEA001A02206168A0FB32
:10549000015003461920A9FB007001462A463846F0
:1054A000FAF7A0FE074602206168A0FB0150034600
:1054B0001920A9FB00B12A465846FAF793FE642149
:1054C000B0FBF1F000EBC00101EB0010A7EB800096
:1054D000322101EBC0006421B0FBF1F000F0F800D4
:1054E0000AEB400A02206168A0FB01511920A9FBC8
:1054F000007080462A460B4638464146FAF772FE4F
:10550000074602206168A0FB015003461920A9FB51
:1055100000B12A465846FAF765FE6421B0FBF1F067
:1055200000EBC00101EB0010A7EB8000322101EB82
:10553000C0006421B0FBF1F000F007005044216886
:105540008860ECE04FF48051C4F201012068884289
:1055500006D04FF4A051C4F201012068884270D1F6
:10556000FCF723FC814604206168A0FB015119204F
:10557000A9FB007080462A460B4638464146FAF79A
:1055800031FE824604206168A0FB015003461920C9
:10559000A9FB00712A463846FAF724FE6421B0FBC5
:1055A000F1F000EBC00101EB0010AAEB800032210A
:1055B00001EB00106421B0FBF1F000F0F00A0420D0
:1055C0006168A0FB015003461920A9FB0070014649
:1055D0002A463846FAF706FE6421B0FBF1F00AEBE2
:1055E000001A04206168A0FB015003461920A9FBA2
:1055F00000712A463846FAF7F5FD0746042061682F
:10560000A0FB015003461920A9FB00B001462A4621
:105610005846FAF7E7FD6421B0FBF1F000EBC0015A
:1056200001EB0010A7EB8000322101EB0010642198
:10563000B0FBF1F000F00F005044216888606EE08C
:10564000FFE7FCF7A1FB814604206168A0FB015045
:1056500003461920A9FB00712A463846FAF7C2FD15
:10566000824604206168A0FB015003461920A9FB73
:1056700000712A463846FAF7B5FD6421B0FBF1F017
:1056800000EBC00101EB0010AAEB8000322101EB1E
:1056900000106421B0FBF1F000F0F00A0420616812
:1056A000A0FB015003461920A9FB007001462A46C1
:1056B0003846FAF797FD6421B0FBF1F00AEB001AC7
:1056C00004206168A0FB017003461920A9FB00506B
:1056D00001463A462846FAF785FD074604206168E8
:1056E000A0FB015003461920A9FB00B001462A4641
:1056F0005846FAF777FD6421B0FBF1F000EBC001EA
:1057000001EB0010A7EB8000322101EB00106421B7
:10571000B0FBF1F000F00F00504421688860BDE854
:10572000F88F00BFFEE700000FB4054B10B503A9CA
:10573000044A029803F07CFE10BC5DF814FB0000E4
:10574000D71D0108280A00204EF60C50CEF20000AA
:105750000068C0F30220704710B5002807DB0A0775
:10576000130E4FF46442CEF20002135409E00A070C
:10577000140E4EF61852CEF2000200F00F031B1F5B
:10578000D45410BD02E008C8121F08C1002AFAD183
:1057900070477047002001E001C1121F002AFBD1B1
:1057A000704770B50446002508E02168481C206059
:1057B0000878303805EB850100EB41052168087851
:1057C00000F004F80028F0D1284670BD01463029C9
:1057D00003DB392901DC012070470020FCE710B50C
:1057E000442141F2B060C2F2000001F0FBFD20F064
:1057F0006FFE40F29C01C2F2000108600023042207
:10580000142149F6CD50C0F6000020F0DBFA40F23A
:10581000A401C2F20001086004F058FA002040F22E
:10582000A001C2F20001087010BD2DE9F047054645
:105830000F4616461C46152E29D245F23030C0F6CA
:105840000400D0E806F0284612F0C1F8814600EBCB
:10585000D9704FEA600A384612F0B9F8804600EB7A
:10586000D870AAEB600000B22080284612F051F8F0
:10587000814600EBD9704FEA600A384612F049F8C9
:10588000804600EBD870AAEB600000B2608069E14E
:1058900000202080608065E1284612F098F881465B
:1058A00000EBD9704FEA600A384612F090F8804653
:1058B00000EBD870AAEB600000B22080002060806E
:1058C00050E1284612F083F88046384612F07FF8FF
:1058D000A8EB000000B220800020608042E10020A0
:1058E0002080284612F015F88046384612F011F84C
:1058F000A8EB000000B2608034E1284612F067F89F
:10590000814600EBD9704FEA600A384612F05FF822
:10591000804600EBD870AAEB600000B220802846D9
:1059200011F0F7FF8046384611F0F3FFA8EB0000B6
:1059300000B2608016E1284612F049F880463846E9
:1059400012F045F8A8EB000000B22080284611F0C4
:10595000E0FF8046384611F0DCFFA8EB000000B203
:105960006080FFE000202080284611F0D2FF8146B1
:1059700000EBD9704FEA600A384611F0CAFF804642
:1059800000EBD870AAEB600000B26080EAE0284625
:1059900012F01DF88046384612F019F8A8EB000006
:1059A00000B22080284611F0B4FF814600EBD97088
:1059B0004FEA600A384611F0ACFF804600EBD87021
:1059C000AAEB600000B26080CCE000202080384666
:1059D00011F09FFF404200B26080C3E0284611F002
:1059E000F6FF814600EBD9704FEA600A384611F0A5
:1059F000EEFF804600EBD870AAEB600000B220807A
:105A0000384611F086FF404200B26080AAE0284686
:105A100011F0DDFF8046384611F0D9FFA8EB0000F9
:105A200000B22080384611F074FF404200B260801E
:105A300098E087E06FE067E054E03AE030E01FE094
:105A400007E0FFE700202080284611F062FF608019
:105A500088E0284611F0BBFF814600EBD9704FEA81
:105A6000600A384611F0B3FF804600EBD870AAEB0D
:105A7000600000B22080284611F04BFF608071E08A
:105A8000284611F0A4FF8046384611F0A0FFA8EB8D
:105A9000000000B22080284611F03BFF608061E0EA
:105AA000384611F094FF404200B220800020608010
:105AB00058E0384611F08BFF404200B22080284663
:105AC00011F027FF814600EBD9704FEA600A384693
:105AD00011F01FFF804600EBD870AAEB600000B207
